:1000000000000220E50100001102000011020000C2
:100010001102000011020000110200001102000094
:100020001102000011020000110200001102000084
:100030001102000010020000110200001102000075
:100040001102000011020000110200001102000064
:100050001102000011020000110200001102000054
:100060001102000011020000110200001102000044
:100070001102000011020000110200001102000034
:100080001102000011020000110200001102000024
:100090001102000011020000110200001102000014
:1000A0001102000011020000110200001102000004
:1000B0001102000011020000151E000011020000D4
:1000C00011020000110200001102000011020000E4
:1000D0001102000011020000110200000348044B4D
:1000E000834202D0034B03B1184770471800002029
:1000F00018000020000000000548064B1B1AD90F0D
:1001000001EBA301491002D0034B03B1184770471C
:1001100018000020180000200000000010B5064C58
:10012000237843B9FFF7DAFF044B13B10448AFF368
:1001300000800123237010BD180000200000000083
:100140006C23000008B5054B1BB105490548AFF30A
:100150000080BDE80840FFF7CFBF00BF00000000EF
:100160001C0000206C230000A3F5803A704700BFFC
:10017000174B002B08BF134B9D46FFF7F5FF0021DF
:100180008B460F461348144A121A01F00FFF0E4B0C
:10019000002B00D098470D4B002B00D09847002033
:1001A000002104000D000D48002802D00C48AFF3D8
:1001B000008001F003FF2000290001F0B9FE01F0EA
:1001C000E3FE00BF00000800000000000000000087
:1001D0000000022018000020440000200000000061
:1001E00000000000064880470649074A074B9A422C
:1001F000BEBF51F8040B42F8040BF8E7FFF7B8FF55
:10020000A103000078230000000000201800002057
:10021000FEE700BF80B400AF034BDB6C1B0EDBB20C
:100220001846BD4680BC7047B081E00F80B582B0F3
:1002300000AF00F01FF87860074B5B6803F00F0316
:100240007A6822FA03F37B60044A7B6813607B6858
:1002500018460837BD4680BD00800C4008000020CD
:1002600080B400AF024B1846BD4680BC704700BF4B
:10027000006CDC0280B582B000AF394BDB6A03F45E
:100280007053B3F5005F09D0B3F5005F12D8B3F532
:10029000006F0BD0B3F5805F04D00BE0314B1B68CF
:1002A0007B604FE04FF400437B604BE02E4B1B68BC
:1002B0007B6047E02A4BDB6803F4E063B3F5A06F93
:1002C0001AD0B3F5A06F39D8B3F5806F17D0B3F556
:1002D000806F33D8B3F5407F14D0B3F5407F2DD86D
:1002E000B3F5007F11D0B3F5007F27D8002B1AD0CB
:1002F000B3F5807F0CD021E01C4B7B6021E01C4BD0
:100300007B601EE01B4B7B601BE01B4B7B6018E09F
:10031000FFF780FF0346122B02D9184B7B6010E0D9
:10032000174B7B600DE0FFF775FF0346122B02D9D8
:10033000144B7B6005E0144B7B6002E000237B6084
:1003400000BF00BF064B1B689B0B03F00703013384
:100350007A68B2FBF3F318460837BD4680BD00BF8C
:1003600000800C400400002000000020003FAB0192
:10037000406F4001809FD500C0D8A70040B5640001
:10038000C0CF6A00804F120040420F0080B400AF1F
:10039000024B1B681846BD4680BC70470000002019
:1003A00080B400AF034B044A9A6000BFBD4680BCD6
:1003B000704700BF00ED00E00000000080B483B093
:1003C00000AF0346FB71FB79002B03D0054B0122E4
:1003D0001A6602E0034B00221A6600BF0C37BD46C6
:1003E00080BC704700A0084080B483B000AF786044
:1003F00000BF064B5A6E7B681340002BF9D100BF3B
:1004000000BF0C37BD4680BC704700BF00A008404D
:1004100080B483B000AF7860054B9A6A7B68DB4399
:10042000034913408B6200BF0C37BD4680BC704748
:1004300000A0084080B500AF00222849002001F04C
:1004400041FA00222549012001F03CFA002223490B
:10045000022001F037FA00222049032001F032FA8D
:1004600000221E49042001F02DFA00221B4905201C
:1004700001F028FA00221949062001F023FA00228F
:100480001649072001F01EFA0022FF21002001F08A
:10049000D7FA0022FF21012001F0D2FA0022FF2129
:1004A000022001F0CDFA0022FF21032001F0C8FA5A
:1004B0000022FF21042001F0C3FA0022FF210520C1
:1004C00001F0BEFA0022FF21062001F0B9FA002255
:1004D000FF21072001F0B4FA00BF80BD00F00FF04B
:1004E00080B500AF00222649072001F0EBF9002279
:1004F0002449062001F0E6F900222249052001F0F6
:10050000E1F900221F49042001F0DCF900221D4915
:10051000032001F0D7F900221A49022001F0D2F994
:1005200000221849012001F0CDF900224FF02041AE
:10053000002001F0C7F900220721072001F080FA0E
:1005400000220721062001F07BFA00220721052066
:1005500001F076FA00220721042001F071FA00224E
:100560000721032001F06CFA00220721022001F08C
:1005700067FA00220721012001F062FA00BF80BD66
:1005800000E00F5000E00FF080B582B000AF0346EE
:10059000FB710121244800F02DFD0321234800F0C8
:1005A0008DFD4021224800F0EFFB012000F0D6FE37
:1005B0000121204800F01EFD4FF0FF30FFF728FF1B
:1005C0001D4800F0B3FF0121082001F077F8012158
:1005D000102001F073F80121802001F06FF8012153
:1005E0004FF4807001F06AF801214FF4007001F0BF
:1005F00065F8FB79002B0DD04FF4402001F0DEFAB6
:100600004FF4803000F0CEFF0C4BDB6F0B4A43F011
:100610000803D367FFF70EFF4FF0FF30FFF7E4FE4C
:1006200000BF0837BD4680BDD0433E0002001E001B
:1006300080002A0000362C000C23000000800C40B3
:1006400080B586B000AF78600023FB740123BB74D3
:1006500007F1080308220021184601F0A7FC002139
:10066000052000F025F97B682F4A934203DA7B6866
:100670002E4A934203DA2E4800F0A6F951E07B6837
:10068000002B04DA7B685B427B600123FB7406234A
:100690007B6137E0BB7C002B15D07A68254B83FB50
:1006A00002139910D317C91A0B469B000B445B0029
:1006B000D11ACBB23033D9B207F108027B691344A7
:1006C0000A461A700DE0FB7C002B01D02D2100E0C2
:1006D000202107F108027B6913440A461A7000239F
:1006E000FB747B68134A82FB03129210DB17D31A48
:1006F0007B607B68002B14BF01230023BB747B69E4
:10070000013B7B617B69002BC4DAFB7C002B03D0AF
:100710000121052000F0CCF807F10803184600F08D
:1007200053F91837BD4680BD80969800816967FFF0
:10073000202300006766666680B58AB000AF7860E7
:100740007B6842F20E72934202DD42F20F737B60CD
:100750007B6813F57A7F01DC3D4B7B607B68002B67
:1007600006DA786801F00CFC78600123BB6101E0D7
:100770000023BB614FF0FF30FFF736FE0120FFF78B
:100780001DFE00F06DF80123FB6100233B6254E085
:100790007A68FB6992FBF3F22E4B83FB02139910EC
:1007A000D317C91A0B469B000B445B00D11A0B46AA
:1007B000FB82BB69012B04D13B6A032B01D11023BF
:1007C000FB82FB8A244A32F81330BB8200237B620F
:1007D00027E022493A6A1346DB009B1A5B00CA18DD
:1007E0007B6A1344CB331B783B611C493A6A13463E
:1007F000DB009B1A5B00CA187B6A1344C4331B7866
:10080000FB60BA8A7B6A42FA03F303F00103002B10
:1008100004D001223969F86800F070FF7B6A013367
:100820007B627B6A062BD4DDFA6913469B00134476
:100830005B00FB613B6A01333B623B6A032BA7DD34
:100840000020FFF7BBFD00BF2837BD4680BD00BFBD
:1008500019FCFFFF67666666E82200003020000092
:1008600080B500AF00227821012001F0E9F80022D4
:100870007821022001F0E4F800227821032001F021
:10088000DFF800227821042001F0DAF80022782134
:10089000052001F0D5F800227821062001F0D0F8DB
:1008A00000227821072001F0CBF800BF80BD0000B6
:1008B00080B584B000AF03463960FB710023FB6054
:1008C0000023BB60FB790E2B6BD801A252F823F0FA
:1008D0000D09000017090000210900002B09000084
:1008E000350900003F0900004909000053090000D4
:1008F0005D09000067090000710900007B09000024
:10090000850900008F090000990900000123FB60A0
:100910000C23BB6046E00023FB602023BB6041E06A
:100920000323FB602723BB603CE00223FB600C2316
:10093000BB6037E00023FB601C23BB6032E0032375
:10094000FB600C23BB602DE00423FB600C23BB6029
:1009500028E00023FB601E23BB6023E00523FB602F
:100960002723BB601EE00023FB602223BB6019E04D
:100970000023FB602323BB6014E00723FB600C23F0
:10098000BB600FE00523FB600C23BB600AE006237D
:10099000FB600C23BB6005E00723FB601D23BB60ED
:1009A00000E000BF3B68002B05D00122B968F86861
:1009B00000F0A4FE04E00022B968F86800F09EFE92
:1009C00000BF1037BD4680BD80B58AB000AF7860EB
:1009D000786801F017FB0346BB6100233B624FF0D0
:1009E000FF30FFF701FD0120FFF7E8FCFFF778FD7E
:1009F00000233B6245E03A6ABB699A4203DA7B68AE
:100A00001B787B6201E020237B627B6A203B7B6258
:100A1000214A7B6A32F81330FB820023FB6127E016
:100A20001E493A6A1346DB009B1A9B00CA18FB69F1
:100A300013440E331B783B6118493A6A1346DB00B6
:100A40009B1A9B00CA18FB6913441B78FB60FA8A47
:100A5000FB6942FA03F303F00103002B05D0FB68A6
:100A600039690122184600F049FEFB690133FB6138
:100A7000FB690D2BD4DD7B6801337B603B6A01335E
:100A80003B623B6A062BB6DD0020FFF797FC00BFF8
:100A90002837BD4680BD00BF302200003020000056
:100AA00080B487B000AFF860B9607A60FB6803F18A
:100AB000424303F58013DA00BB6813449B007B615B
:100AC0007B697A681A6000BF1C37BD4680BC7047DE
:100AD00080B485B000AF786039607B6803F1424331
:100AE00003F58013DA003B6813449B00FB60FB684E
:100AF0001B6818461437BD4680BC704780B485B06B
:100B000000AF78607B68002B02D07B68B3F5004FA4
:100B10007B68B3FA83F3DBB2C3F11F03FB60FB68AE
:100B200018461437BD4680BC7047000080B400AF43
:100B3000034BDB6C1B0CDBB21846BD4680BC704718
:100B4000B081E00F80B582B000AFFFF7EFFF034642
:100B5000792B05D0792B26DC482B22D04A2B22D1A9
:100B6000134B1B699BB21B029BB203F47C53FB80AB
:100B70000F4B9B6903F0F0039AB2FB881343FB8091
:100B80000B4BDB691B0903F00F039AB2FB8813437D
:100B9000FB80FB88B3F5017F01D3064B04E0064BD5
:100BA00002E0054B00E0002318460837BD4680BD33
:100BB000D0FF0FE000366E010048E80180B584B038
:100BC00000AF78600123FB60FFF7BCFF02467B6843
:100BD000934204D80023FB600023BB600BE0FFF7C7
:100BE000B1FF03465B007A689A4202D80123BB60DA
:100BF00001E00223BB60FA681E210848FFF750FF9E
:100C0000064B5B6823F48072BB681B0203491343E5
:100C10004B6000BF1037BD4680BD00BF00800C4058
:100C200080B485B000AF78603960204B5B6803F01A
:100C30000703FB60FB68012B02D9FB68042B02D180
:100C40000023FB7202E00123FB7200BF7B68184A9D
:100C5000934207D9FB7A002B01D0052300E004233F
:100C6000FB6016E07B68124A93420BD87B68114AFE
:100C7000934207D9FB7A002B01D0032300E0012324
:100C8000FB6006E0FB7A002B01D0022300E000238A
:100C9000FB60064B5B6823F007020449FB681343C3
:100CA0004B6000BF1437BD4680BC704700000C404D
:100CB0000048E8010024F40080B582B000AF0E4B7C
:100CC000DB6B002B14BF01230023FB710A4B41F6A1
:100CD0007132DA63FFF7C4FA034600211846FFF7C2
:100CE0009FFFFB79002B02D0034B0022DA6300BF89
:100CF0000837BD4680BD00BF00000C4080B584B001
:100D000000AF786039600C4BDB6B002B14BF012304
:100D10000023FB73084B41F67132DA633968786857
:100D2000FFF77EFFFB7B002B02D0034B0022DA6330
:100D300000BF1037BD4680BD00000C4080B483B0BA
:100D400000AF7860094B5B6D03F00103002B07D106
:100D500000BF064B1A6D7B681340002BF9D100E0F1
:100D600000BF0C37BD4680BC704700BF00800C4000
:100D700080B400AF00BFBD4680BC704780B400AFF8
:100D800000BFBD4680BC704790B585B000AF7860AD
:100D900039607B681B0903F00F03FB60FB68013BB4
:100DA0000C2B00F2148101A252F823F0E10D000097
:100DB000CF0F0000CF0F0000130E0000CF0F000078
:100DC000CF0F0000590E0000A90E0000790F00009F
:100DD000CF0F0000CF0F0000CF0F0000390E000032
:100DE0003B68002B01D03B68082BFFF765FF7A4B6F
:100DF0001B6823F4E0323B68013B9B0376491343B5
:100E00000B60FFF713FAB8600021B868FFF776FFB0
:100E1000DEE03B68002B02D03B68B3F5007F38680A
:100E2000FFF76CFE38606C4B9B6823F00F026A4939
:100E30003B6813438B60CBE03868FFF75FFE0346E7
:100E4000013B3B60644B5B6823F480723B681B0290
:100E5000614913434B60BBE03B68002B02D03B6809
:100E6000B3F5007FFFF728FFFFF7E0F902463B6884
:100E7000B2FBF3F31846FFF7A1FE3868FFF73EFE1A
:100E80003860554B5B6823F00F0253493B681343AE
:100E90004B60FFF7CBF9B8600021B868FFF72EFF71
:100EA000B868FFF78BFE93E07B684C4A934251D0C1
:100EB0007B684A4A93425DD87B68494A93422ED068
:100EC0007B68474A934255D87B68464A934204D090
:100ED0007B68454A934211D04CE00420FFF72EFF77
:100EE0003868FFF70BFE38603B4B9B6E23F0F00237
:100EF0003B681B01384913438B663CE00420FFF735
:100F00001DFF3868FFF7FAFD3860334B9B6E23F402
:100F100070623B681B02304913438B662BE03B68D1
:100F20000F2B01D93B68802B0420FFF707FF38689F
:100F3000FFF7E4FD3860284B9B6E23F440541020EB
:100F4000FFF7DCFD02463B689B1A1B03224A234342
:100F5000936610E00420FFF7F1FE3868FFF7CEFD3E
:100F600038601D4B9B6E23F003021B493B68134303
:100F70008B6600E000BF2BE07B681C4A934204D0E4
:100F80007B681B4A934210D020E04020FFF7D6FE3A
:100F90003868FFF7B3FD38600F4B1B6F23F0030277
:100FA0000D493B6813430B6710E04020FFF7C6FE76
:100FB0003868FFF7A3FD3860074B1B6F23F0300242
:100FC0003B681B01044913430B6700BF00E000BFEF
:100FD00000BF1437BD4690BD00800C4080062E0037
:100FE00080002A00801612008026160090071A0042
:100FF00090171C0080B586B000AF78600B46FB7080
:1010000000233B617B681B0A03F00F03013B092BA4
:1010100044D801A252F823F05310000059100000E8
:10102000411000009D1000009D1000005F100000A6
:10103000691000009D1000009D100000731000005A
:10104000184B7B61FFF7F2F803461846FFF7B6FD31
:1010500012E0154B7B610FE0144B7B610CE0144BED
:101060007B6101233B6107E0124B7B6110233B61F5
:1010700002E0114B7B6100BF7B681B0B03F01F0379
:10108000FB603B69002B02D03869FFF757FEFB7805
:101090001A46F9687869FFF703FD00E000BF1837CA
:1010A000BD4680BD40800C4008800C4044800C4010
:1010B00058800C4060800C4078800C4080B588B02F
:1010C00000AF78600B46FB700323FB610323FB76C4
:1010D00000233B617B6803F00F03FB60FB68013B6F
:1010E000062B00F22A8101A252F823F00911000018
:1010F000DF110000DF1100003B1300003B13000074
:10110000A5120000CF120000FB78023B082B00F272
:10111000168101A252F823F03D1100004711000092
:1011200051110000931100003F1300003F13000015
:101130003F1300003F1300003F1300000423FB6136
:101140000023FB7631E00323FB610123FB762CE0D7
:101150000223FB610223FB76FFF7F4FC0346013315
:101160001846FFF72BFDFFF711F90346784A934223
:1011700006D9784B1B68774A43F06003136014E08C
:10118000744B1B6823F06003724A43F02003136022
:101190000BE00123FB610323FB76FFF7D3FC03463F
:1011A00001331846FFF70AFD00BFFB7E0122012133
:1011B000184600F0F1F8FFF77FFDFFF7D9FD654A0B
:1011C000FB695362FFF732F8B860B868FFF7F6FCC6
:1011D0000021B868FFF792FDFFF7D0FDB4E0FB787F
:1011E000013B092B00F2AD8001A252F823F000BFB1
:1011F000191200001F1200002F12000043130000FC
:10120000431300003F12000043130000431300008B
:10121000431300005B12000000237B6122E00122E7
:101220000121002000F0B8F802237B611AE00122BE
:101230000121012000F0B0F801237B6112E0FEF7EC
:10124000F5FFB860B868FFF7B9FC012204214248F5
:10125000FFF726FC03237B6104E000237B6101236D
:101260003B6100BFFB68022B0DD13A4B9B6A23F414
:10127000803323F003037A691A433B691B04354921
:1012800013438B6260E0334B9B6A23F4801323F09B
:101290000C037A6992001A433B691B052D491343DD
:1012A0008B6251E0FB78072B02D0092B07D04BE073
:1012B000284B1B68274A23F08053136006E0254B18
:1012C0001B68244A43F08053136000BF3CE0FB7866
:1012D000092B26D0092B36DC022B02D0032B10D091
:1012E00031E001220121002000F056F8194B402284
:1012F0005A6200BF174BDB6A03F48033002BF9D02E
:101300001AE001220121012000F046F8114B602271
:101310005A6200BF0F4BDB6A03F40033002BF9D095
:101320000AE00C4B20225A6200BF0A4BDB6A03F42E
:101330000043002BF9D000BF06E000BF04E000BF6F
:1013400002E000BF00E000BF2037BD4680BD00BF07
:101350000048E80100800C4040800C4080B483B01D
:1013600000AF78600B4B9B6D03F00803002B0CD192
:101370007B6803F007037B60064BDB6F23F00702FB
:1013800004497B681343CB6700E000BF0C37BD46C0
:1013900080BC704700800C4080B586B000AF03462B
:1013A000FB710B46BB7113467B71FB79042B48D84C
:1013B00001A252F823F000BF05140000F71300004B
:1013C000DB130000CD130000E913000001233B6193
:1013D0000223FB6001237B611DE004233B610823A2
:1013E000FB6003237B6116E010233B612023FB603D
:1013F00005237B610FE040233B618023FB600723D3
:101400007B6108E04FF480733B614FF40073FB6035
:1014100009237B6100BFBB79002B0ED00B4A3B69CF
:1014200013627B79002B0DD000BF79690848FFF764
:101430004FFB0346002BF8D004E0044AFB6813621C
:1014400000E000BF1837BD4680BD00BF00800C40E3
:101450002C800C4080B483B000AF0346FB71FB7955
:10146000002B06D0084B1B68074A43F001031360AA
:1014700005E0054B1B68044A23F00103136000BF1D
:101480000C37BD4680BC704700A0084080B483B0D4
:1014900000AF0346FB71FB79002B06D0084BDB68DD
:1014A000074A43F00403D36005E0054BDB68044AB8
:1014B00023F00403D36000BF0C37BD4680BC7047E7
:1014C00000A0084080B483B000AF0346FB71FB79F5
:1014D000002B06D0084BDB68074A43F48073D360C7
:1014E00005E0054BDB68044A23F48073D36000BF3A
:1014F0000C37BD4680BC704700A0084080B487B060
:1015000000AFF860B9607A60FB6803F1424303F50D
:101510008013DA00BB6813449B007B617B697A68A7
:101520001A6000BF1C37BD4680BC704780B584B0D0
:1015300000AF78601A4B5B68FB600020FFF78AFF02
:10154000FB6823F4830323F01F03FB607B685B6865
:10155000FA681343FB607B681B7A1A46FB681343E7
:10156000FB607B685B7A1A46FB681343FB607B6811
:10157000DB68FA681343FB607B681B8A1A46FB68CA
:101580001343FB60064AFB6853607B681B78002BA3
:1015900002D00120FFF75EFF00BF1037BD4680BDBF
:1015A00000A0084080B485B000AF78600E4B5B6847
:1015B000FB60FB6823F48033FB607B68002B08D062
:1015C0007B68B3F5803F06D1FB6843F48033FB6052
:1015D00002E000BF00E000BF034AFB68536000BFA9
:1015E0001437BD4680BC704700A0084080B584B069
:1015F00000AF78600E4BDB68FB60FB6823F47F0371
:10160000FB607B685B689B04FA681343FB607B6844
:101610009B68FA681343FB60054AFB68D3607B68EC
:101620001B781846FFF74EFF00BF1037BD4680BD40
:1016300000A0084080B584B000AF78601E4BDB6826
:10164000FB601D4A7B685B6853611B4A7B68DB68F3
:101650009361FB6823F0F803FB607B681B7ADB0077
:10166000FA681343FB607B681B7C5B01FA681343D9
:10167000FB607B685B7C1A46FB681343FB60FB687E
:1016800023F08053FB607B685B69002B07D07B688D
:101690005B69082B03D1FB6843F08053FB60064A6B
:1016A000FB68D3607B681B781846FFF7EFFE00BF2E
:1016B0001037BD4680BD00BF00A0084080B483B095
:1016C00000AF03460A46FB8013467B717B79002BF3
:1016D00006D0094B9A68FB88074913438B6006E0E4
:1016E000054B9A68FB88DB43034913408B6000BFBE
:1016F0000C37BD4680BC704700A0084080B584B060
:1017000000AFF860B9601346FB71FB68072B00F26D
:10171000B38001A252F823F03917000061170000CE
:1017200089170000B1170000D91700000118000048
:101730002918000051180000BB681F2B06DCBB688D
:10174000FA7919464F48FFF7D9FE96E0BB68203B6F
:10175000BB60BB68FA7919464B48FFF7CFFE8CE0B7
:10176000BB681F2B06DCBB68FA7919464748FFF7B0
:10177000C5FE82E0BB68203BBB60BB68FA791946B6
:101780004348FFF7BBFE78E0BB681F2B06DCBB6855
:10179000FA7919463F48FFF7B1FE6EE0BB68203B7F
:1017A000BB60BB68FA7919463B48FFF7A7FE64E0C7
:1017B000BB681F2B06DCBB68FA7919463748FFF770
:1017C0009DFE5AE0BB68203BBB60BB68FA791946B6
:1017D0003348FFF793FE50E0BB681F2B06DCBB6865
:1017E000FA7919462F48FFF789FE46E0BB68203B8F
:1017F000BB60BB68FA7919462B48FFF77FFE3CE0D7
:10180000BB681F2B06DCBB68FA7919462748FFF72F
:1018100075FE32E0BB68203BBB60BB68FA791946B5
:101820002348FFF76BFE28E0BB681F2B06DCBB6874
:10183000FA7919461F48FFF761FE1EE0BB68203B9E
:10184000BB60BB68FA7919461B48FFF757FE14E0E6
:10185000BB681F2B06DCBB68FA7919461748FFF7EF
:101860004DFE0AE0BB68203BBB60BB68FA791946B5
:101870001348FFF743FE00E000BF00BF1037BD462E
:1018800080BD00BF40A0084050A0084044A00840D0
:1018900054A0084048A0084058A008404CA0084068
:1018A0005CA00840CCA00840B4A00840D0A00840EC
:1018B000B8A00840D4A00840BCA00840D8A0084068
:1018C000C0A0084080B487B000AFF860B9607A600B
:1018D000FB68072B00F2AC8001A252F823F000BF96
:1018E0000119000025190000491900006D190000B8
:1018F00091190000B9190000E1190000091A00004F
:101900004E4B1B6C7B61BB68DB437A6913407B6188
:10191000BA687B6813407A6913437B61474A7B69E5
:10192000136486E0454B5B6C7B61BB68DB437A6983
:1019300013407B61BA687B6813407A6913437B610B
:101940003E4A7B69536474E03C4B9B6C7B61BB6893
:10195000DB437A6913407B61BA687B6813407A691C
:1019600013437B61354A7B69936462E0334BDB6CE4
:101970007B61BB68DB437A6913407B61BA687B6833
:1019800013407A6913437B612C4A7B69D36450E02E
:101990002A4BD3F8CC307B61BB68DB437A691340B8
:1019A0007B61BA687B6813407A6913437B61234A81
:1019B0007B69C2F8CC303CE0204BD3F8D0307B615F
:1019C000BB68DB437A6913407B61BA687B6813406C
:1019D0007A6913437B61194A7B69C2F8D03028E0E9
:1019E000164BD3F8D4307B61BB68DB437A69134074
:1019F0007B61BA687B6813407A6913437B610F4A45
:101A00007B69C2F8D43014E00C4BD3F8D8307B613A
:101A1000BB68DB437A6913407B61BA687B6813401B
:101A20007A6913437B61054A7B69C2F8D83000E0CC
:101A300000BF00BF1C37BD4680BC704700A00840F7
:101A400080B487B000AFF860B9607A60FB68072B9C
:101A500000F2AC8001A252F823F000BF7D1A000012
:101A6000A11A0000C51A0000E91A00000D1B0000B1
:101A7000351B00005D1B0000851B00004E4B1B6DDD
:101A80007B61BB68DB437A6913407B61BA687B6822
:101A900013407A6913437B61474A7B69136586E08B
:101AA000454B5B6D7B61BB68DB437A6913407B61AF
:101AB000BA687B6813407A6913437B613E4A7B694D
:101AC000536574E03C4B9B6D7B61BB68DB437A697B
:101AD00013407B61BA687B6813407A6913437B616A
:101AE000354A7B69936562E0334BDB6D7B61BB6894
:101AF000DB437A6913407B61BA687B6813407A697B
:101B000013437B612C4A7B69D36550E02A4BD3F8A1
:101B1000B4307B61BB68DB437A6913407B61BA6890
:101B20007B6813407A6913437B61234A7B69C2F85F
:101B3000B4303CE0204BD3F8B8307B61BB68DB436A
:101B40007A6913407B61BA687B6813407A691343F2
:101B50007B61194A7B69C2F8B83028E0164BD3F88C
:101B6000BC307B61BB68DB437A6913407B61BA6838
:101B70007B6813407A6913437B610F4A7B69C2F823
:101B8000BC3014E00C4BD3F8C0307B61BB68DB4346
:101B90007A6913407B61BA687B6813407A691343A2
:101BA0007B61054A7B69C2F8C03000E000BF00BF1E
:101BB0001C37BD4680BC704700A0084080B483B08D
:101BC00000AF7860064B5B6823F4E01204497B6841
:101BD00013434B6000BF0C37BD4680BC704700BF4D
:101BE00000A0084080B487B000AFF860B9607A60A8
:101BF000FB6803F1424303F58013DA00BB6813442A
:101C00009B007B617B697A681A6000BF1C37BD4608
:101C100080BC704780B485B000AF786039607B6865
:101C2000002B03D07B68012B03D008E0064BFB6040
:101C300002E0064BFB6000BFFB683A681A6014378D
:101C4000BD4680BC704700BF080008400C0008403B
:101C500080B582B000AF0346FB71FB791A460021C4
:101C60000348FFF7BFFF00BF0837BD4680BD00BF78
:101C70000000084080B485B000AF78607B681B78B6
:101C8000002B02D00123FB6001E00023FB607B6896
:101C90005B78002B03D0FB6843F00203FB607B689A
:101CA0009B78002B03D0FB6843F00403FB60044ADD
:101CB000FB68136000BF1437BD4680BC704700BF8F
:101CC0000000084080B485B000AF78601A4B5B69B3
:101CD000DBB29B00DBB203F03C03FB73164B1B69CA
:101CE0009B09DBB203F00303DAB2FB7B1343FB7304
:101CF0007B68FA7B9A70104B1B69DBB203F03F03E1
:101D0000DAB27B685A700C4B9B691B09DBB21B0172
:101D1000FB73094BDB691B09DBB203F00F03DAB27B
:101D2000FB7B1343FB737B68FA7B1A7000BF14378D
:101D3000BD4680BC704700BFD0FF0FE080B483B0C9
:101D400000AF0346FB7197F90730002B0BDBFB79E3
:101D500003F01F02064997F907305B09012000FADA
:101D600002F241F8232000BF0C37BD4680BC70470B
:101D700000E100E080B400AF034BDB6C1B0EDBB274
:101D80001846BD4680BC7047B081E00F80B582B078
:101D900000AF0E4B01221A64FFF7ECFF0346FB7104
:101DA0003B1D1846FFF78EFFFB790F2B0AD93B79B5
:101DB000022B07D9064B1B6823F05003044A43F05B
:101DC0001003136000BF0837BD4680BD00000C4003
:101DD000C0800C4080B483B000AF7860034A7B6859
:101DE000936100BF0C37BD4680BC704700000840BF
:101DF00080B483B000AF7860054BDA6904497B6832
:101E00001343CB6100BF0C37BD4680BC704700BF99
:101E10000000084080B500AF0220FFF7DBFF134B46
:101E20001B680133114A1360104B1B683B2B1AD9F6
:101E30000E4B00221A600E4B1B6801330C4A1360D4
:101E40000B4B1B683B2B0ED9094B00221A60094B28
:101E50001B680133074A1360064B1B68172B02D916
:101E6000044B00221A6000BF80BD00BF3800002074
:101E7000340000200C00002080B582B000AF164A6C
:101E80003B1D1268114619800233120C1A70202172
:101E90001248FEF779FF01211048FFF7ABF8002345
:101EA0003B7100237B710123BB713B1D1846FFF77B
:101EB000E1FE40F2FF310020FFF7ACFE1E20FFF7ED
:101EC0003DFF0220FFF794FF0120FFF7C1FE00BF96
:101ED0000837BD4680BD00BF682300008016120091
:101EE00080B58AB000AF01210820FEF7E1FC012394
:101EF0003B770F233B6200237B6207F11C031846EC
:101F0000FFF774FB01233B710023BB600F233B6190
:101F100001233B7301233B7580237B750823BB6141
:101F20003B1D1846FFF786FB00BF2837BD4680BD26
:101F300080B500AFFFF72AFF0D4B1B781846FEF760
:101F400023FBFFF799FFFFF7CBFF0A4B1B681846EF
:101F5000FEF776FB084B1B68642203FB02F2074B7B
:101F60001B6813441846FEF7E7FB00BFEDE700BF10
:101F70003C000020380000200C000020340000202D
:101F80000028B8BF4042704708B5064B044613B15D
:101F90000021AFF30080044B1B6803B19847204633
:101FA00000F038F800000000400000200346024422
:101FB000934200D1704703F8011BF9E770B5002682
:101FC0000C4D0D4C641BA410A64209D100F024F85E
:101FD00000260A4D0A4C641BA410A64205D170BD10
:101FE00055F8043B98470136EEE755F8043B98470F
:101FF0000136F2E710000020100000201000002041
:1020000014000020034613F8012B002AFBD1181AF4
:1020100001387047FEE700BFF8B500BFF8BC08BC48
:102020009E467047F8B500BFF8BC08BC9E46704796
:1020300001010507070304020302040605060D0E4D
:102040000E0E0D0D0D0D0E0E0E0E0D0D01010507E0
:10205000070304020302040605060F1010100F0FF9
:102060000F0F101010100F0F0101050707030402D6
:102070000302040605061112121211111111121297
:1020800012121111010105070703040203020406DD
:102090000506131C1C1C131313131C1C1C1C1313EC
:1020A00000010507060203010302040604051D1EC4
:1020B0001E1E1D1D1D1D1E1E1E1E1D1D00010507B1
:1020C000060203010302040604051F2020201F1F2F
:1020D0001F1F202020201F1F0101050707030402E6
:1020E0000302040605062122222221212121222287
:1020F000222221210705020103060423232323238F
:102100002323070502010306042424242424242471
:102110000705020103060425252525252525070594
:10212000020103060426262626262626000107028B
:1021300006272727272700000000000000001312B1
:1021400011100F0E0D0C00000000212524260101A6
:102150000304040203020D0E0D0D0E0D0E0E0101FF
:102160000304040203020F100F0F100F10100101DF
:1021700003040402030211121111121112120101BF
:10218000030404020302131C13131C131C1C000180
:102190000203040103021D1E1D1D1E1D1E1E000143
:1021A0000203040103021F201F1F201F2020010122
:1021B00003040402030221222121222122220507F5
:1021C0000704040605060E0E0D0D0E0E0D0D050777
:1021D00007040406050610100F0F10100F0F050757
:1021E0000704040605061212111112121111050737
:1021F0000704040605061C1C13131C1C13130507F7
:102200000603040604051E1E1D1D1E1E1D1D0507BA
:1022100006030406040520201F1F20201F1F05079A
:102220000704040605062222212122222121000082
:1022300000000011800200000000020600002000E3
:1022400039000F000000401500204004001000225B
:102250003F0006005B044F0466046D047D04070024
:102260007F046F0400000000000A000080200000CE
:10227000FFFF7704790A3900B020790071007D04EE
:10228000760406000E00700A3800B602B6083F0059
:1022900073043F08730C6D0401113E003022362890
:1022A000802A6E040922390080080F00010008000E
:1022B000000158107C0458005E04582071040C0C76
:1022C000740404000E00700C3800541454045C04B0
:1022D000730467045004080C78001C0010201428B4
:1022E000802A0C08482000003F0006005B004F00D9
:1022F00066006D007D0007007F006F0077007C00A6
:1023000039005E007900710040000000010000000B
:10231000030040000C00000000000000000000006E
:102320004F7672666C6F77000000000001000000BD
:102330000100000002000000010000000200000097
:102340000200000003000000010000000200000085
:102350000200000003000000020000000300000073
:102360000300000004000000010001000000000064
:08237000F8DDFF7F0100000011
:10237800006CDC0200800000809FD5000C0000008B
:08238800450100001D010000E9
:04000003000001E513
:00000001FF
