S01C000053544B333730305F45464D333247475F6932635F322E73333704
S113000000000220E50100001102000011020000BE
S11300101102000011020000110200001102000090
S11300201102000011020000110200001102000080
S11300301102000010020000110200001102000071
S1130040110200004D1C000011020000110200000A
S11300501102000011020000110200001102000050
S1130060110200001102000011020000731C0000C4
S11300701102000011020000110200001102000030
S11300801102000011020000110200001102000020
S11300901102000011020000110200001102000010
S11300A01102000011020000110200001102000000
S11300B011020000110200001102000011020000F0
S11300C011020000110200001102000011020000E0
S11300D01102000011020000110200000348044B49
S11300E0834202D0034B03B118477047200000201D
S11300F020000020000000000548064B1B1AD90F01
S113010001EBA301491002D0034B03B11847704718
S113011020000020200000200000000010B5064C44
S1130120237843B9FFF7DAFF044B13B10448AFF364
S113013000800123237010BD200000200000000077
S1130140581D000008B5054B1BB105490548AFF320
S11301500080BDE80840FFF7CFBF00BF00000000EB
S113016024000020581D0000A3F5803A704700BF0A
S1130170174B002B08BF134B9D46FFF7F5FF0021DB
S11301808B460F461348144A121A01F0A1FD0E4B78
S1130190002B00D098470D4B002B00D0984700202F
S11301A0002104000D000D48002802D00C48AFF3D4
S11301B0008001F095FD2000290001F06DFD01F0A3
S11301C075FD00BF000008000000000000000000F2
S11301D00000022020000020640000200000000035
S11301E000000000064880470649074A074B9A4228
S11301F0BEBF51F8040B42F8040BF8E7FFF7B8FF51
S113020079030000641D000000000020200000208D
S1130210FEE700BF80B400AF034BDB6C1B0EDBB208
S11302201846BD4680BC7047B081E00F80B582B0EF
S113023000AF00F015F87860074B5B6803F00F031C
S11302407A6822FA03F37B60044A7B6813607B6854
S113025018460837BD4680BD00800C4008000020C9
S113026080B582B000AF394BDB6A03F47053B3F549
S1130270005F09D0B3F5005F12D8B3F5006F0BD05F
S1130280B3F5805F04D00BE0314B1B687B604FE01B
S11302904FF400437B604BE02E4B1B687B6047E0D0
S11302A02A4BDB6803F4E063B3F5A06F1AD0B3F50F
S11302B0A06F39D8B3F5806F17D0B3F5806F33D8FA
S11302C0B3F5407F14D0B3F5407F2DD8B3F5007F4C
S11302D011D0B3F5007F27D8002B1AD0B3F5807F57
S11302E00CD021E01C4B7B6021E01C4B7B601EE0AA
S11302F01B4B7B601BE01B4B7B6018E0FFF78AFF06
S11303000346122B02D9184B7B6010E0174B7B601D
S11303100DE0FFF77FFF0346122B02D9144B7B60DD
S113032005E0144B7B6002E000237B6000BF00BF4C
S1130330064B1B689B0B03F0070301337A68B2FB7F
S1130340F3F318460837BD4680BD00BF00800C405B
S11303500400002000000020003FAB01406F40017A
S1130360809FD500C0D8A70040B56400C0CF6A0004
S1130370804F120040420F0080B400AF034B044A88
S11303809A6000BFBD4680BC704700BF00ED00E02E
S11303900000000080B400AF4FF400431846BD468F
S11303A080BC704780B400AF4FF47A731846BD46E2
S11303B080BC704780B400AF024B1B681846BD4632
S11303C080BC70470400002080B487B000AFF860A0
S11303D0B9607A60FB6803F1424303F58013DA00E5
S11303E0BB6813449B007B617B697A681A6000BF19
S11303F01C37BD4680BC704780B485B000AF7860C0
S113040039607B6803F1424303F58013DA003B68EB
S113041013449B00FB60FB681B6818461437BD46F9
S113042080BC704780B483B000AF786001227B68E1
S113043002FA03F318460C37BD4680BC704780B4FB
S113044085B000AF78607B68002B02D07B68B3F581
S1130450004F7B68B3FA83F3DBB2C3F11F03FB6085
S1130460FB6818461437BD4680BC704780B400AFA3
S1130470034BDB6C1B0EDBB21846BD4680BC7047D9
S1130480B081E00F80B400AF034BDB6C1B0CDBB21C
S11304901846BD4680BC7047B081E00F80B582B07D
S11304A000AFFFF7EFFF0346792B05D0792B26DC4D
S11304B0482B22D04A2B22D1134B1B699BB21B021F
S11304C09BB203F47C53FB800F4B9B6903F0F00356
S11304D09AB2FB881343FB800B4BDB691B0903F0C7
S11304E00F039AB2FB881343FB80FB88B3F5017FAB
S11304F001D3064B04E0064B02E0054B00E0002369
S113050018460837BD4680BDD0FF0FE000366E01A7
S11305100048E80180B584B000AF78600123FB6037
S1130520FFF7BCFF02467B68934204D80023FB60BC
S11305300023BB600BE0FFF7B1FF03465B007A6862
S11305409A4202D80123BB6001E00223BB60FA682F
S11305501E210848FFF738FF064B5B6823F48072BE
S1130560BB681B02034913434B6000BF1037BD46F1
S113057080BD00BF00800C4080B582B000AF1E215A
S11305800448FFF739FF78607B6818460837BD4692
S113059080BD00BF00800C4080B582B000AF264B08
S11305A05B6903F4E063B3F5E06F36D0B3F5E06F55
S11305B039D8B3F5C06F33D0B3F5C06F33D8B3F5C2
S11305C0407F0ED0B3F5407F2DD8B3F5007F13D014
S11305D0B3F5007F27D8002B1CD0B3F5807F16D04D
S11305E021E0FFF743FF0346122B02D9134B7B6034
S11305F01CE0134B7B6019E0FFF738FF0346122B16
S113060002D9104B7B6011E00F4B7B600EE00F4B67
S11306107B600BE00E4B7B6008E00E4B7B6005E0DB
S11306200D4B7B6002E000237B6000BF7B681846B3
S11306300837BD4680BD00BF00800C40804F1200CB
S113064040420F0040B56400C0CF6A00C0D8A70084
S1130650809FD500406F4001003FAB0180B582B060
S113066000AF0D4800F03AFB0346FB70FB78072B04
S113067005D0092B07D1FFF7F3FD786006E0FFF7FB
S11306808BFF786002E000237B6000BF7B68184624
S11306900837BD4680BD00BF06000E0090B585B08A
S11306A000AF78600023BB607B68344A934203D078
S11306B07B68334A934200E000BF786800F00EFB89
S11306C00346FB607B682D4A934204D07B682C4A26
S11306D0934206D00CE02B4B9B6A03F00303FB60B0
S11306E006E0284B9B6A9B0803F00303FB6000BFF2
S11306F0FB68032B38D801A252F823F0330700001B
S11307000D070000150700001D070000FFF742FE5B
S1130710B8602DE0FFF74EFEB86029E0FFF786FDD4
S11307200446FFF729FF0346013324FA03F3BB60B1
S11307301EE00023BB607B68104A934203D07B68B1
S11307400F4A934213D10F4B9A6A7B680B498B4231
S113075001D1102300E0142322FA03F3002B06D066
S1130760FFF720FEB86002E00023BB6000E000BF9A
S1130770BB6818461437BD4690BD00BF02001E007A
S11307800300200000800C4080B483B000AF786088
S1130790094B5B6D03F00103002B07D100BF064B2F
S11307A01A6D7B681340002BF9D100E000BF0C37B1
S11307B0BD4680BC704700BF00800C4080B582B04D
S11307C000AF114800F08AFA0346FB70FB78092B4E
S11307D00ED0092B10DC022B02D0032B04D00BE02B
S11307E0FFF7E8FD78600AE0FFF7D4FD786006E0E3
S11307F0FFF736FD786002E000237B6000BF7B6872
S113080018460837BD4680BD0723260090B585B03D
S113081000AF78607B681B0903F00F03BB60BB6803
S1130820013B0C2B00F2B68001A252F823F000BF6A
S1130830650800009509000095090000750800008E
S1130840950900009509000089080000B708000018
S11308505109000095090000950900009509000060
S11308609D0800004F4B1B689B0B03F007030133EB
S1130870FB6092E04B4B9B6803F00F03FB60F8684E
S1130880FFF7D0FDF86088E0464B5B6803F00F0388
S1130890FB60F868FFF7C6FDF8607EE0414B5B68DB
S11308A01B0A03F00103FB60FB6801331846FFF7E2
S11308B0B9FDF86071E07B683B4A93423AD07B68AB
S11308C0394A934240D87B68384A934222D07B68A5
S11308D0364A934238D87B68354A934204D07B68C1
S11308E0344A93420BD02FE02E4B9B6E1B0903F02E
S11308F00F03FB60F868FFF795FDF86027E0294BCC
S11309009B6E1B0A03F00F03FB60F868FFF78AFD78
S1130910F8601CE0234B9B6E1B0B03F003041020B8
S1130920FFF78DFD03462344FB60F868FFF77AFD6B
S1130930F8600CE01B4B9B6E03F00303FB60F8684C
S1130940FFF770FDF86002E00123FB6000BF24E0C4
S11309507B68194A934204D07B68184A93420AD0B0
S113096014E0104B1B6F03F00303FB60F868FFF700
S113097059FDF8600DE00B4B1B6F1B0903F00303DB
S1130980FB60F868FFF74EFDF86002E00123FB60AE
S113099000BF02E00123FB6000BFFB681846143768
S11309A0BD4690BD00800C4080062E0080002A00C9
S11309B0801612008026160090071A0090171C005B
S11309C080B586B000AF78600B46FB7000233B61B6
S11309D07B681B0A03F00F03013B092B44D801A2D7
S11309E052F823F01F0A0000250A00000D0A000037
S11309F0690A0000690A00002B0A0000350A000099
S1130A00690A0000690A00003F0A0000184B7B6174
S1130A10FFF70CFC03461846FFF77CFD12E0154B6C
S1130A207B610FE0144B7B610CE0144B7B61012371
S1130A303B6107E0124B7B6110233B6102E0114BE9
S1130A407B6100BF7B681B0B03F01F03FB603B69EA
S1130A50002B02D03869FFF797FEFB781A46F96835
S1130A607869FFF7B1FC00E000BF1837BD4680BDD0
S1130A7040800C4008800C4044800C4058800C405E
S1130A8060800C4078800C4090B585B000AF7860F1
S1130A907B6803F47813B3F5781F00F00681B3F58F
S1130AA0781F00F20D81B3F5381F00F0C580B3F54F
S1130AB0381F00F20581B3F5301F00F0A680B3F5AE
S1130AC0301F00F2FD80B3F5281F00F08B80B3F5D2
S1130AD0281F00F2F580B3F5181F00F0E280B3F58B
S1130AE0181F00F2ED80B3F5001F00F0B280B3F5DB
S1130AF0001F00F2E580B3F5F01F52D0B3F5F01FEC
S1130B0000F2DE80B3F5E01F00F0B580B3F5E01F1E
S1130B1000F2D680B3F5D01F00F0A080B3F5D01F4B
S1130B2000F2CE80B3F5B01F4ED0B3F5B01F00F283
S1130B30C780B3F5901F39D0B3F5901F00F2C08081
S1130B40B3F5801F00F0A980B3F5801F00F2B880D0
S1130B50B3F5602F00F09D80B3F5602F00F2B080F4
S1130B60B3F5802F0DD0B3F5802F00F2A980002BB0
S1130B7003D0B3F5003F10D0A2E0FFF771FBF8609B
S1130B80A1E0FFF76DFBF860514B9B6803F00F0386
S1130B90FA6822FA03F3FB6095E0FFF747FBF8607D
S1130BA091E04C48FFF77AFDF8608CE04948FFF784
S1130BB075FDF860464B9B6E1B0903F00F03FA6842
S1130BC022FA03F3FB607EE04248FFF767FDF8601A
S1130BD03F4B9B6E1B0A03F00F03FA6822FA03F3E0
S1130BE0FB6070E03B48FFF759FDF860384B9B6EA3
S1130BF01B0B03F003041020FFF721FC03462344DE
S1130C00FA6822FA03F3FB605DE03248FFF746FD21
S1130C10F8602F4B9B6E1B0B03F00303FA6822FA58
S1130C2003F3FB602A4BDB6F03F007030133FA681D
S1130C30B2FBF3F3FB6046E02648FFF72FFDF860B4
S1130C40234B9B6E03F00303FA6822FA03F3FB6061
S1130C5039E02148FFF722FDF86034E01E48FFF731
S1130C601DFDF8601A4B1B6F03F00303FA6822FAA8
S1130C7003F3FB6027E01848FFF710FDF860144BFE
S1130C801B6F1B0903F00303FA6822FA03F3FB60EA
S1130C9019E0FFF7E3FCF86015E0FFF77DFCF8606E
S1130CA011E0FFF78BFDF8600DE0FFF7BFFA044693
S1130CB07868FFF7ABFD0346B4FBF3F3FB6002E097
S1130CC00023FB6000BFFB6818461437BD4690BD87
S1130CD000800C4002001E000300200080B485B098
S1130CE000AF78600123FB737B6803F00F03BB60E4
S1130CF0BB68013B062B00F2A08001A252F823F04E
S1130D001D0D0000590D00009B0D00003B0E00005E
S1130D103B0E0000DD0D0000FF0D00004B4BDB6AB5
S1130D2003F47053B3F5005F09D0B3F5005F0FD837
S1130D30B3F5006F09D0B3F5805F03D008E0022358
S1130D40FB7308E00323FB7305E00423FB7302E059
S1130D500523FB7300BF73E03C4B9B6A03F0030362
S1130D60032B0CD0032B0DD8012B02D0022B03D064
S1130D7008E00323FB730FE00223FB730CE006235C
S1130D80FB7309E0314B9B6A03F48033002B02D0E0
S1130D900A23FB7300E000BF52E02C4B9B6A03F074
S1130DA00C030C2B0CD00C2B0DD8042B02D0082BCD
S1130DB003D008E00323FB730FE00223FB730CE072
S1130DC00623FB7309E0214B9B6A03F48013002B79
S1130DD002D00A23FB7300E000BF31E01B4B1B6809
S1130DE003F08053002B03D0B3F1805F03D027E0DE
S1130DF00723FB7302E00923FB7300BF20E0134BBE
S1130E00DB6A03F46033B3F5003F0FD0B3F5003F62
S1130E100FD8B3F5004F03D0B3F5803F03D008E0FB
S1130E200923FB7308E00223FB7305E00323FB7330
S1130E3002E00123FB7300BF02E00023FB7300BF49
S1130E40FB7B18461437BD4680BC704700800C40BD
S1130E5080B487B000AFF860B9607A60FB6803F1D2
S1130E60424303F58013DA00BB6813449B007B61A3
S1130E707B697A681A6000BF1C37BD4680BC704726
S1130E8080B485B000AFF860B9607A60FB681A6816
S1130E90BB68DB431A407B681A43FB681A6000BFD7
S1130EA01437BD4680BC704780B483B000AF78600F
S1130EB0044A7B68C2F81C3100BF0C37BD4680BCB5
S1130EC0704700BF0060004080B483B000AF0346A9
S1130ED03960FB71FB79002B0DD0FB79012B0AD013
S1130EE0FB79022B07D0FB79032B04D0FB79042B6D
S1130EF001D0FB79052B01223B6802FA03F3074971
S1130F00FA7918461346DB0013449B000B44143350
S1130F10186000BF0C37BD4680BC704700600040BD
S1130F2080B483B000AF03463960FB71FB79002BBA
S1130F300DD0FB79012B0AD0FB79022B07D0FB796A
S1130F40032B04D0FB79042B01D0FB79052B012260
S1130F503B6802FA03F30749FA7918461346DB00A3
S1130F6013449B000B441033186000BF0C37BD467C
S1130F7080BC70470060004080B586B000AFB960A7
S1130F807A601A460346FB731346BB7300237B61E6
S1130F90FB7B002B0DD0FB7B012B0AD0FB7B022BB0
S1130FA007D0FB7B032B04D0FB7B042B01D0FB7B02
S1130FB0052B7B68072B0ED87B689B00072202FA5F
S1130FC003F1FA7B7B689B0002FA03F31A461A4882
S1130FD0FFF756FF10E07B68083B7B617B699B0051
S1130FE0072202FA03F1FA7B7B699B0002FA03F3FE
S1130FF01A461248FFF744FFBB7B1A46796810482B
S1131000FFF726FF97F820301A4679680D48FFF756
S11310101FFF01227B6802FA03F31846FFF744FF1F
S113102097F824301A4679680748FFF711FF00BF84
S11310301837BD4680BD00BF006100400461004018
S1131040086100400C6100401061004080B584B02C
S113105000AFB9607B600346FB731346BB73FB7B35
S1131060002B0DD0FB7B012B0AD0FB7B022B07D07E
S1131070FB7B032B04D0FB7B042B01D0FB7B052BD8
S1131080BB7B002B0DD07B68002B05D0FB7BB968A4
S11310901846FFF745FF04E0FB7BB9681846FFF7E5
S11310A013FFBB68072B20D82B49FA7B1346DB00C0
S11310B013449B000B4404331A68BB689B000F2144
S11310C001FA03F3DB431340B97BBA68920001FAD7
S11310D002F211462048FA7B19431346DB001344FD
S11310E09B0003440433196021E01B49FA7B134637
S11310F0DB0013449B000B4408331A68BB68083BAD
S11311009B000F2101FA03F3DB431340B97BBA6858
S1131110083A920001FA02F211460F48FA7B194389
S11311201346DB0013449B00034408331960BB7B64
S1131130002B0DD17B68002B05D0FB7BB9681846CA
S1131140FFF7EEFE04E0FB7BB9681846FFF7BCFE30
S113115000BF1037BD4680BD0060004080B483B03E
S113116000AF786039607B683A681A6300BF0C3757
S1131170BD4680BC704780B487B000AFF860B960EA
S11311807A60FB6803F1424303F58013DA00BB681D
S113119013449B007B617B697A681A6000BF1C372B
S11311A0BD4680BC704780B485B000AFF860B960BC
S11311B07A60FB681A68BB68DB431A407B681A4391
S11311C0FB681A6000BF1437BD4680BC704780B40A
S11311D083B000AF786001E07B68DB697B68DB6823
S11311E003F48073002BF7D100BF00BF0C37BD465A
S11311F080BC704780B588B000AFF860B9607A6091
S1131200FB707B68002B7ED0FB7803F00303FB703C
S1131210FB681B6823F44072FB681A60F868FB786B
S11312201B021A464FF44071FFF7BDFFBB68002B49
S113123010D1FB68374A934204D13748FFF724FCA6
S1131240B86007E0FB68354A934203D13448FFF79E
S11312501BFCB8604FF0FF33BB61FB681B6803F0F5
S11312600203002B12D0FB78022B0CD0022B20DCC3
S1131270002B02D0012B03D01BE02A4BBB611BE0E7
S1131280294BBB6118E0294BBB6115E0FB78022BAD
S11312900CD0022B0FDC002B02D0012B03D00AE070
S11312A0234BBB6108E0234BBB6105E0224BBB61D0
S11312B002E000BF00E000BFFB78204AD35C7B6102
S11312C07B697A6802FB03F33B613B69002B1CD00A
S11312D07B689B00BA68D21A3B6913445A1E3B6967
S11312E0B2FBF3F3013BFB61FB681B6803F00203F1
S11312F0002B04D0FB69002B01D10123FB61FA69A7
S1131300FB681A6102E000BF00E000BF2037BD4661
S113131080BD00BF00A0004000B2040000A4004053
S113132000C2040040164000C0D8A70080507401D9
S113133080841E0040548900002D3101441D0000AA
S113134080B582B000AF78600B46FB707B68084ABA
S1131350934202D07B68074A93427B68FA78002163
S11313601846FFF708FF00BF0837BD4680BD00BF21
S113137000A0004000A4004080B582B000AF7860B7
S113138039607B68144A934202D07B68134A9342C3
S11313907B6800225A6312497868FFF7DFFE786899
S11313A03B685B7883F00103DBB21A460121FFF747
S11313B0E2FE3B6859683B689A683B681B7B786827
S11313C0FFF718FF3B681B7819467868FFF7B8FFEA
S11313D000BF0837BD4680BD00A0004000A4004007
S11313E0FFFF010080B588B000AF78607B68A34A36
S11313F0934202D07B68A24A93427B689F4A9342FD
S113140002D1A04BBB6109E07B689D4A934202D1A3
S11314109D4BBB6102E06FF0030318E2BB699B685C
S11314207B617B689B6A3B613B6903F4C063002B6F
S113143014D03B6903F40073002B03D0BB69FD2275
S11314405A7007E03B6903F48063002B02D0BB6948
S1131450FE225A70BB6909221A70E3E1BB691B784A
S1131460082B00F2CB8101A252F823F09114000062
S1131470E31400006F150000C51500002D160000D0
S1131480951600001D1700005D170000E11700000D
S11314907B695B8803F01003002B09D07B691B88F0
S11314A01B0A9BB203F0060343F0F003FB610EE05A
S11314B07B691B8803F0FE03FB617B695B8803F097
S11314C00203002B03D0FB6943F00103FB61BB69FA
S11314D001221A707B68FA695A627B6801225A6099
S11314E0A0E13B6903F08003002B0DD080217868D4
S11314F0FFF734FEBB69FF225A70BB6908221A70D9
S11315007B6802225A6082E13B6903F04003002BAE
S113151000F07D8140217868FFF720FE7B695B88BD
S113152003F01003002B08D0BB6902221A707B69F8
S11315301B88DAB27B685A6269E17B695B8803F0D5
S11315400203002B0FD0BB6907221A70BB691B79F9
S11315507A69DB0013441B89012B40F058817B68B6
S113156008225A6053E1BB6905221A704EE13B69B7
S113157003F08003002B0DD080217868FFF7EEFD87
S1131580BB69FF225A70BB6908221A707B68022269
S11315905A603EE13B6903F04003002B00F03981BF
S11315A040217868FFF7DAFD7B695B8803F002036A
S11315B0002B03D0BB6903221A7027E1BB69052203
S11315C01A7023E17B695B8803F01003002B09D0B8
S11315D07B691B881B0A9BB203F0060343F0F003EC
S11315E0FB6104E07B691B8803F0FE03FB617B69FC
S11315F05B8803F00403002B0ED0FB6943F0010366
S1131600FB61BB691B797A69DB0013441B89012BDD
S113161002D17B6808225A60BB6904221A707B6875
S113162001225A607B68FA695A62FBE03B6903F065
S11316308003002B0DD080217868FFF78FFDBB69F4
S1131640FF225A70BB6908221A707B6802225A6012
S1131650E1E03B6903F04003002B00F0DC80402113
S11316607868FFF77BFD7B695B8803F00403002B3C
S11316700CD0BB6907221A70CDE000BF00A0004067
S113168000A400403C00002048000020BB69052263
S11316901A70BBE0BB695A88BB691B797969DB00A6
S11316A00B441B899A4224D3BB6900225A80BB692C
S11316B01B790133DAB2BB691A717B695B8803F069
S11316C00403002B03D0BB6903221A709EE07B69DC
S11316D05B8803F00103002B04D1BB691B79012B48
S11316E040F29380BB6908221A707B6802225A6018
S11316F098E0BB691B797A69DB0013445A68BB69BB
S11317005B88591C88B2B969488013441B781A460F
S11317107B685A62BB6906221A7083E03B6903F056
S11317208003002B0DD080217868FFF717FDBB697B
S1131730FF225A70BB6908221A707B6802225A6021
S11317406BE03B6903F04003002B66D040217868CE
S1131750FFF704FDBB6905221A7057E03B6903F0EB
S11317602003002B5BD0BB691B797A69DB0013442F
S11317701B89FB607B68DB69FB72BB695B881A466B
S1131780FB6893420ED9BB691B797A69DB00134469
S11317905A68BB695B88591C88B2B969488013448C
S11317A0FA7A1A70BB695B881A46FB68934206D8BA
S11317B0BB6908221A707B6802225A602FE07B689A
S11317C004225A60FB68012B29D9BB695B881A463D
S11317D0FB68013B9A4222D17B6808225A601EE0D2
S11317E03B6903F48073002B1BD04FF4807178683D
S11317F0FFF7B4FCBB6909221A7012E0BB69FB2233
S11318005A70BB6909221A700CE000BF09E600BFD8
S113181008E000BF06E000BF04E000BF02E000BF34
S113182000E000BFBB691B78092B0BD17B68002249
S11318305A63BB6993F90130012B05D1BB690022BE
S11318405A7001E0012302E0BB6993F901301846A4
S11318502037BD4680BD00BF80B584B000AF78603E
S113186039607B682E4A934202D07B682D4A9342AA
S11318707B682B4A934202D12B4BFB6009E07B68C7
S1131880284A934202D1294BFB6002E06FF0030324
S113189042E07B689B6803F00103002B02D07B6865
S11318A020225A603B685B8803F00203002B03D0BC
S11318B03B681B89002B09D03B685B8803F0040359
S11318C0002B06D03B681B8A002B02D16FF0030368
S11318D022E0FB6800221A70FB6801225A70FB6840
S11318E000225A80FB6800221A71FB683A689A60E9
S11318F07B68C0225A607868FFF769FC0C497868F5
S1131900FFF72CFC7B685B6B43F4FC627B685A63D7
S11319107868FFF767FD034618461037BD4680BD5B
S113192000A0004000A400403C000020480000202B
S1131930FFFF010080B485B000AF78601A4B5B698B
S1131940DBB29B00DBB203F03C03FB73164B1B6959
S11319509B09DBB203F00303DAB2FB7B1343FB7393
S11319607B68FA7B9A70104B1B69DBB203F03F0370
S1131970DAB27B685A700C4B9B691B09DBB21B0102
S1131980FB73094BDB691B09DBB203F00F03DAB20B
S1131990FB7B1343FB737B68FA7B1A7000BF14371D
S11319A0BD4680BC704700BFD0FF0FE080B483B059
S11319B000AF0346FB7197F90730002B0BDBFB7973
S11319C003F01F02064997F907305B09012000FA6A
S11319D002F241F8232000BF0C37BD4680BC70479B
S11319E000E100E080B400AF034BDB6C1B0EDBB204
S11319F01846BD4680BC7047B081E00F80B483B008
S1131A0000AF7860044A7B68C2F81C3100BF0C3711
S1131A10BD4680BC704700BF0060004080B400AF8A
S1131A20034BD3F814311846BD4680BC704700BF41
S1131A300060004080B483B000AF03463960FB719E
S1131A40FB79002B0DD0FB79012B0AD0FB79022BFB
S1131A5007D0FB79032B04D0FB79042B01D0FB794D
S1131A60052B01223B6802FA03F30749FA79184669
S1131A701346DB0013449B000B441833186000BF6B
S1131A800C37BD4680BC70470060004080B582B012
S1131A9000AF0E4B01221A64FFF7A4FF0346FB714B
S1131AA03B1D1846FFF746FFFB790F2B0AD93B79FC
S1131AB0022B07D9064B1B6823F05003044A43F05A
S1131AC01003136000BF0837BD4680BD00000C4002
S1131AD0C0800C4090B585B000AF01211348FEF7DB
S1131AE06FFF134B3C460FCB84E80F003B4619466F
S1131AF01048FFF741FC01230F2206210320FFF7C2
S1131B00A5FA01230F2207210320FFF79FFA094BAF
S1131B1003229A63074B9B6B23F4E063054A43F467
S1131B208073936300BF1437BD4690BD00B20400B8
S1131B30481D000000A0004080B582B002AF012122
S1131B401B48FEF73DFF0123032209210120FFF773
S1131B507DFA012303220A210120FFF777FA0123EA
S1131B600193012300930023092209210120FFF797
S1131B7003FA012301930123009300230A220A217B
S1131B800120FFF7F9F90120FFF710FF0B20FFF701
S1131B900DFF0123042202210420FFF757FA012339
S1131BA0042203210420FFF751FA00BFBD4680BD83
S1131BB000D2040080B586B000AFE2233B8001234D
S1131BC07B800D4B7B600A233B813B4619460B48C7
S1131BD0FFF742FE0346FB7504E00848FFF702FCEA
S1131BE00346FB7597F91730012BF6D000BF00BFF1
S1131BF01837BD4680BD00BF0C00002000A0004087
S1131C0080B586B000AFE2233B8002237B800D4B7E
S1131C107B600A233B813B4619460B48FFF71CFEB9
S1131C200346FB7504E00848FFF7DCFB0346FB753D
S1131C3097F91730012BF6D000BF00BF1837BD4607
S1131C4080BD00BF5400002000A0004080B582B0D9
S1131C5000AFFFF7E3FE78607868FFF7CFFEFFF789
S1131C60CFFF02210420FFF7E5FE00BF0837BD4681
S1131C7080BD80B582B000AFFFF7D0FE7860786891
S1131C80FFF7BCFEFFF796FF03210420FFF7D2FE07
S1131C9000BF0837BD4680BD80B500AFFFF7F6FE34
S1131CA0FFF74AFFFFF716FF00BFFDE708B5064B35
S1131CB0044613B10021AFF30080044B1B6803B149
S1131CC09847204600F030F8000000006000002033
S1131CD003460244934200D1704703F8011BF9E71D
S1131CE070B500260C4D0D4C641BA410A64209D1FE
S1131CF000F01CF800260A4D0A4C641BA410A642EE
S1131D0005D170BD55F8043B98470136EEE755F808
S1131D10043B98470136F2E7180000201800002021
S1131D20180000201C000020FEE700BFF8B500BF2B
S1131D30F8BC08BC9E467047F8B500BFF8BC08BCA8
S1131D409E467047080911080101000000000000C8
S10F1D50606701000000000000000000BB
S10B1D5C0CE4FF7F010000000C
S1131D64006CDC0200800000809FD50055604A0DA1
S1131D74155920600F2E0000450100001D010000CC
S90301E516
