S01B000050574D5F555245544D452D494E544552525550542E733337BA
S113000000000220C90400000B05000009050000DF
S11300100B0500000B0500000B0500000B0500009C
S11300200B0500000B0500000B0500000B0500008C
S11300300B0500000A0500000B0500000B0500007D
S11300400B050000851000000B0500000B050000E7
S11300500B0500000B0500000B0500000B0500005C
S11300600B0500000B0500000B0500002D1000001F
S11300700B050000F51100000B0500000B05000046
S11300800B0500000B0500000B0500000B0500002C
S11300900B0500000B0500000B0500000B0500001C
S11300A00B0500000B0500000B0500000B0500000C
S11300B00B0500000B0500000B0500000B050000FC
S11300C00B0500000B0500000B0500000B050000EC
S11300D00B0500000B0500000B05000000000000EC
S11300E0000000000000000000000000000000000C
S11300F000000000000000000000000000000000FC
S113010000000000000000000000000000000000EB
S113011000000000000000000000000000000000DB
S11303C00348044B834202D0034B03B118477047E0
S11303D01800002018000020000000000548064B0B
S11303E01B1AD90F01EBA301491002D0034B03B12F
S11303F01847704718000020180000200000000073
S113040010B5064C237843B9FFF7DAFF044B13B158
S11304100448AFF300800123237010BD18000020AE
S1130420000000001822000008B5054B1BB1054967
S11304300548AFF30080BDE80840FFF7CFBF00BF19
S1130440000000001C00002018220000A3F5803AE0
S1130450704700BF174B002B08BF134B9D46FFF797
S1130460F5FF00218B460F461348144A121A01F077
S11304708DFE0E4B002B00D098470D4B002B00D067
S113048098470020002104000D000D48002802D0E8
S11304900C48AFF3008001F081FE2000290000F039
S11304A0C5FE01F061FE00BF00000800000000006E
S11304B00000000000000220180000203C00002082
S11304C0000000000000000000F0DAF80F4C104DAE
S11304D0AC420ADA21686268A3689B00043BA2BFAD
S11304E0C858D050FAE70C34F2E70A4B0A4CA3423E
S11304F008DA19685A680020043AA4BF8850FBE758
S11305000833F4E7FFF7A6FFFEE7FEE7B422000096
S1130510C0220000C0220000C022000080B400AF4E
S1130520034BDB6C1B0EDBB21846BD4680BC704728
S1130530B081E00F80B582B000AF00F015F87860AC
S1130540074B5B6803F00F037A6822FA03F37B60BE
S1130550044A7B6813607B6818460837BD4680BD33
S113056000800C400800002080B582B000AF394BF9
S1130570DB6A03F47053B3F5005F09D0B3F5005F91
S113058012D8B3F5006F0BD0B3F5805F04D00BE045
S1130590314B1B687B604FE04FF400437B604BE0C2
S11305A02E4B1B687B6047E02A4BDB6803F4E06357
S11305B0B3F5A06F1AD0B3F5A06F39D8B3F5806F37
S11305C017D0B3F5806F33D8B3F5407F14D0B3F5AB
S11305D0407F2DD8B3F5007F11D0B3F5007F27D825
S11305E0002B1AD0B3F5807F0CD021E01C4B7B602C
S11305F021E01C4B7B601EE01B4B7B601BE01B4B14
S11306007B6018E0FFF78AFF0346122B02D9184BD0
S11306107B6010E0174B7B600DE0FFF77FFF034624
S1130620122B02D9144B7B6005E0144B7B6002E073
S113063000237B6000BF00BF064B1B689B0B03F0CD
S1130640070301337A68B2FBF3F318460837BD4653
S113065080BD00BF00800C4004000020000000208A
S1130660003FAB01406F4001809FD500C0D8A70078
S113067040B56400C0CF6A00804F120040420F00B2
S113068080B400AF034B044A9A6000BFBD4680BCEF
S1130690704700BF00ED00E00000000080B487B0A8
S11306A000AFF860B9607A60FB6803F1424303F578
S11306B08013DA00BB6813449B007B617B697A6812
S11306C01A6000BF1C37BD4680BC704780B582B03D
S11306D000AF00F0C5FA0346792B05D0792B26DC50
S11306E0482B22D04A2B22D1134B1B699BB21B02ED
S11306F09BB203F47C53FB800F4B9B6903F0F00324
S11307009AB2FB881343FB800B4BDB691B0903F094
S11307100F039AB2FB881343FB80FB88B3F5017F78
S113072001D3064B04E0064B02E0054B00E0002336
S113073018460837BD4680BDD0FF0FE000366E0175
S11307400048E80180B584B000AF78600123FB6005
S1130750FFF7BCFF02467B68934204D80023FB608A
S11307600023BB600BE0FFF7B1FF03465B007A6830
S11307709A4202D80123BB6001E00223BB60FA68FD
S11307801E210848FFF78AFF064B5B6823F480723A
S1130790BB681B02034913434B6000BF1037BD46BF
S11307A080BD00BF00800C4080B483B000AF78608F
S11307B0094B5B6D03F00103002B07D100BF064B0F
S11307C01A6D7B681340002BF9D100E000BF0C3791
S11307D0BD4680BC704700BF00800C4080B586B029
S11307E000AF78600B46FB7000233B617B681B0AFB
S11307F003F00F03013B092B44D801A252F823F064
S11308003B0800004108000029080000850800009A
S11308108508000047080000510800008508000012
S1130820850800005B080000184B7B61FFF782FE1F
S113083003461846FFF786FF12E0154B7B610FE075
S1130840144B7B610CE0144B7B6101233B6107E09B
S1130850124B7B6110233B6102E0114B7B6100BFB3
S11308607B681B0B03F01F03FB603B69002B02D06A
S11308703869FFF799FFFB781A46F9687869FFF73A
S11308800DFF00E000BF1837BD4680BD40800C401E
S113089008800C4044800C4058800C4060800C4020
S11308A078800C4080B483B000AFEFF310833B60DA
S11308B03B687B6072B600BF7B6818460C37BD4648
S11308C080BC704780B483B000AF78607B68002B35
S11308D001D162B600BF00BF0C37BD4680BC704773
S11308E080B487B000AFF860B9607A60FB6803F148
S11308F0424303F58013DA00BB6813449B007B6119
S11309007B697A681A6000BF1C37BD4680BC70479B
S113091080B586B000AFF860B9607A60FFF7C2FFB7
S11309207861FB681A68BB68DB431A407968BB6866
S11309300B401A43FB681A607869FFF7C3FF00BFD6
S11309401837BD4680BD000080B483B000AF786026
S1130950044A7B68C2F81C3100BF0C37BD4680BC1A
S1130960704700BF0060004080B483B000AF03460E
S11309703960FB71FB79002B0DD0FB79012B0AD078
S1130980FB79022B07D0FB79032B04D0FB79042BD2
S113099001D0FB79052B0848FA7901213B6899407D
S11309A01346DB0013449B0003441433196000BF57
S11309B00C37BD4680BC70470060004080B483B0F3
S11309C000AF03463960FB71FB79002B0DD0FB7936
S11309D0012B0AD0FB79022B07D0FB79032B04D01F
S11309E0FB79042B01D0FB79052B0848FA79012106
S11309F03B6899401346DB0013449B0003441033C7
S1130A00196000BF0C37BD4680BC704700600040D1
S1130A1080B586B000AFB9607A601A460346FB73AE
S1130A201346BB7300237B61FB7B002B0DD0FB7B48
S1130A30012B0AD0FB7B022B07D0FB7B032B04D0BA
S1130A40FB7B042B01D0FB7B052B7B68072B0ED88B
S1130A507B689B00072202FA03F1FA7B7B689B0008
S1130A6002FA03F31A461A48FFF752FF10E07B68B4
S1130A70083B7B617B699B00072202FA03F1FA7B46
S1130A807B699B0002FA03F31A461248FFF740FF02
S1130A90BB7B1A4679681048FFF722FF97F820308D
S1130AA01A4679680D48FFF71BFF01227B6802FA9A
S1130AB003F31846FFF748FF97F824301A4679687D
S1130AC00748FFF70DFF00BF1837BD4680BD00BFC4
S1130AD00061004004610040086100400C61004076
S1130AE01061004080B584B000AFB9607A603B60AB
S1130AF00346FB73FB7B002B0DD0FB7B012B0AD041
S1130B00FB7B022B07D0FB7B032B04D0FB7B042B4A
S1130B1001D0FB7B052B7B68002B0DD03B68002BA1
S1130B2005D0FB7BB9681846FFF748FF04E0FB7B60
S1130B30B9681846FFF718FFBB68072B18D8FA7B6B
S1130B401346DB0013449B00043303F1804303F595
S1130B50C043BA6892000F2101FA02F0BA68920009
S1130B60796801FA02F201461846FFF7D1FE19E04E
S1130B70FA7B1346DB0013449B00083303F18043E4
S1130B8003F5C043BA68083A92000F2101FA02F053
S1130B90BA68083A9200796801FA02F201461846E6
S1130BA0FFF7B6FE7B68002B0DD13B68002B05D008
S1130BB0FB7BB9681846FFF701FF04E0FB7BB968CB
S1130BC01846FFF7D1FE00BF1037BD4680BD0000B8
S1130BD080B485B000AF78601A4B5B69DBB29B00D0
S1130BE0DBB203F03C03FB73164B1B699B09DBB2BE
S1130BF003F00303DAB2FB7B1343FB737B68FA7BDA
S1130C009A70104B1B69DBB203F03F03DAB27B68C6
S1130C105A700C4B9B691B09DBB21B01FB73094B1C
S1130C20DB691B09DBB203F00F03DAB2FB7B13436E
S1130C30FB737B68FA7B1A7000BF1437BD4680BC17
S1130C40704700BFD0FF0FE080B400AF034BDB6CF4
S1130C501B0EDBB21846BD4680BC7047B081E00F66
S1130C6080B400AF034BDB6C1B0CDBB21846BD46F3
S1130C7080BC7047B081E00F80B483B000AF78606F
S1130C807B680D4A93420BD07B680C4A934207D091
S1130C907B680B4A934203D07B680A4A934201D192
S1130CA0012300E0002303F00103DBB218460C37F4
S1130CB0BD4680BC704700BF0000014000040140F5
S1130CC000080140000C014080B584B000AF78609A
S1130CD039607868FFF7D0FF0023FB603B681B781E
S1130CE083F00103DBB2002B02D07B6802225A603E
S1130CF07B6800225A623B689B781A063B68DB7863
S1130D001B041A433B68DB799B021A433B681B7A3A
S1130D101B0213433A68527A13433A685278002A02
S1130D2001D0402200E0002213433A68927A002A5C
S1130D3001D0802200E0002213433A68D27A002ACC
S1130D4001D0202200E0002213433A68127B002ADB
S1130D5001D0102200E0002213433A68527B002A9B
S1130D6001D0082200E000221343FB603B681B799A
S1130D70002B02D04FF4005200E000223B685B7964
S1130D80002B02D04FF0805300E0002313433A6855
S1130D909279002A02D04FF0005200E0002213435F
S1130DA0FA681343FB607B68FA681A603B681B7837
S1130DB0002B02D07B6801225A6000BF1037BD4669
S1130DC080BD80B584B000AFF860B9607A60F8681F
S1130DD0FFF752FF7B681B789A067B685B781B06DB
S1130DE01A437B689B781B041A437B68DB781B03DC
S1130DF01A437B681B799B021A437B685B791B024D
S1130E0013437A68927913437A68D279002A02D01C
S1130E104FF4001200E0002213437A68127A002A89
S1130E2002D04FF4801200E0002213437A68527A11
S1130E30002A01D0102200E0002213437A68927A3B
S1130E40002A01D0042200E000221A43F968BB689A
S1130E5003331B010B441A6000BF1037BD4680BD2D
S1130E6080B483B000AF0346FB7197F90730002BC1
S1130E700BDBFB7903F01F02064997F907305B0986
S1130E80012000FA02F241F8232000BF0C37BD46CE
S1130E9080BC704700E100E080B483B000AF7860AC
S1130EA0044A7B68C2F81C3100BF0C37BD4680BCC5
S1130EB0704700BF0060004080B483B000AF0346B9
S1130EC03960FB71FB79002B0DD0FB79012B0AD023
S1130ED0FB79022B07D0FB79032B04D0FB79042B7D
S1130EE001D0FB79052B0848FA7901213B68994028
S1130EF01346DB0013449B0003441833196000BFFE
S1130F000C37BD4680BC70470060004080B582B09D
S1130F1000AF114B01221A64FFF796FE0346FB71E2
S1130F203B1D1846FFF754FEFB790F2B10D93B7974
S1130F30022B0DD97B79022B02D13B79042B07D0EC
S1130F40064B1B6823F05003044A43F0100313605C
S1130F5000BF0837BD4680BD00000C40C0800C4077
S1130F6080B483B000AF78604FF6FF7318460C3737
S1130F70BD4680BC704780B584B000AFF860B960EE
S1130F807A60F868FFF7ECFFFA68BB681B0113444A
S1130F903C337A681A6000BF1037BD4680BD80B507
S1130FA084B000AFF860B9607A60F868FFF7D8FFE2
S1130FB0FA68BB6803331B01134404337A681A606C
S1130FC000BF1037BD4680BD80B483B000AF7860E9
S1130FD039607B683A689A6100BF0C37BD4680BCB3
S1130FE0704780B483B000AF78607B681B69184693
S1130FF00C37BD4680BC704780B483B000AF7860C6
S11310007B68DB6918460C37BD4680BC704780B5E9
S113101082B000AF786039607868FFF7A1FF7B6821
S11310203A68DA6100BF0837BD4680BD80B500AFBD
S11310304AF6AA20FFF730FF0F4B1B680A3B0E4A03
S113104013600D4B1B68002B02DA0B4B0A221A604B
S11310500A48FFF7D1FF0346074A126802FB03F36D
S1131060074AA2FB03235B091A4602210348FFF740
S113107082FF00BF80BD00BF0C000020000C0140B7
S11310801F85EB5180B500AF45F25550FFF704FFC3
S11310900F4B1B680A330E4A13600D4B1B68642BFD
S11310A002DD0B4B64221A600A48FFF7A5FF0346D2
S11310B0074A126802FB03F3074AA2FB03235B09F6
S11310C01A4602210348FFF756FF00BF80BD00BF48
S11310D00C000020000C01401F85EB5180B582B04C
S11310E002AF01211B48FFF779FB012304220221EF
S11310F00420FFF7F7FC0123042203210420FFF757
S1131100F1FC0123032209210120FFF7EBFC012359
S113111003220A210120FFF7E5FC0120FFF7A0FECE
S11311200B20FFF79DFE012301930123009300236D
S1131130092209210120FFF76BFC012301930123FC
S1131140009300230A220A210120FFF761FC00BF5B
S1131150BD4680BD00D2040080B588B000AF012137
S11311602048FFF73BFB07F1140300221A605A6082
S11311709A600323BB7607F114031A4602211A4826
S1131180FFF71FFE184B9B6A174A43F4803343F062
S1131190040393624B211448FFF739FF1248FFF709
S11311A02BFF0346114A126802FB03F3104AA2FB09
S11311B003235B091A4602210B48FFF7F0FE3B1D8F
S11311C000221A605A609A609A8101233B710323BA
S11311D0BB713B1D19460448FFF776FD00BF20375D
S11311E0BD4680BD00820400000C01400C000020BC
S11311F01F85EB5180B582B000AF0A48FFF7F1FEBE
S1131200786079680748FFF7DFFE03210420FFF7C1
S113121053FE054B1B680133034A136000BF0837B4
S1131220BD4680BD000801403400002080B588B070
S113123000AFFFF76BFEFFF751FFFFF78DFF0023B1
S113124004220D210020FFF74DFC01211548FFF772
S1131250C5FA07F1140300221A605A609A60022347
S1131260BB7601237B7607F114031A4601210E484D
S1131270FFF7A7FD0C4B0D4A9A623B1D00221A6032
S11312805A609A609A8101233B710423BB717C21CB
S11312900548FFF7BCFE3B1D19460348FFF714FD44
S11312A000BFFDE7007204000008014002000100D5
S11312B080B483B000AF786000BFFDE703685A00D4
S11312C04CBF43F0004323F000431844704700BF71
S11312D02DE9F84341B301F1FF3805461646474668
S11312E00024E11901EBD171491005EBC10948460D
S11312F0FFF7E4FF884503464FEAC1020ED002F12E
S11313000800B34228440BD8FFF7D8FF0138B04295
S113131001F10104E5D34846BDE8F883B042FAD9A7
S11313208C4201D04F1EDCE74FF000094846BDE86F
S1131330F88300BF012807D0022807D0044B0028F7
S11313400CBF184600207047024870470248704797
S1131350F9190000011A0000091A000030B5214BE8
S1131360044683B08D1E13B3284601A9AFF3008051
S113137088B301992A46FFF7ABFF014658B3FFF73C
S11313809DFF4B68A064012B28D0002B20DB081D97
S1131390FFF794FF002323650368E064002B0DDB53
S11313A0FFF78CFF03460020236103B030BD0E4BD2
S11313B00E491846C91AC9100191DBE7C3F303604B
S11313C0FFF7B8FF034630B10020236103B030BDFE
S11313D00123081DDFE700230920E5E7002305209A
S11313E0E2E700BF000000001C220000B42200005D
S11313F0036810B5DA07044606D49B0700F14800D9
S113140009D500F069FC2368590709D51A070ED5D8
S1131410DB0613D510BD00F057FC23685907F5D43B
S113142004F1D00000F060FC23681A07F0D404F53E
S1131430A87000F061FC2368DB06EBD404F5E870C7
S1131440BDE8104000F09CBC0346006800B118449D
S1131450704700BF704700BF70B504460E46204673
S1131460316CFFF77BFF054698B9D6F840C0324689
S1131470214601202369C4F814C098470828EED0F7
S1131480072806D12846316CFFF7E4FF301D00F031
S11314900FFCFFDE2DE9F0474FF0000AADF5727D39
S11314A00DF10C0E01F1040CC768D0F81880064643
S11314B01446BCE80F00AEE80F00BCE80F00AEE82D
S11314C00F00BCE80F00AEE80F009CE80F0002AD6F
S11314D08EE80F00C5F800A021E02B6C4FF4F072E9
S11314E0294673617AA800F07DFE3146504633697F
S11314F07AAA9847889C82466C64334632464946A9
S11315000120CDE90058B847044630BB4FF4F072CF
S113151028467AA900F066FEBAF1080F1AD13046BF
S1131520296CFFF71BFF04F109095FFA89FA0446E5
S11315300028D2D0A96B3346696432460120CDE934
S113154000584AF01001B84738B920460DF5727DAD
S1131550BDE8F087BAF1070F05D0092420460DF540
S1131560727DBDE8F0872046296CFFF773FF03A85E
S113157000F09EFBF0B54FF0FF37CB6BF9B00B6476
S113158001AC01F1040C0E460546BCE80F000FC483
S1131590BCE80F000FC4BCE80F000FC49CE80F00A8
S11315A084E80F00009706E06A4629462B699847AD
S11315B00828044608D128461099FFF7CFFE0028D2
S11315C0F2D0092079B0F0BD6846FFF711FF062C70
S11315D0F7D131462846FFF73FFF00BF10B4144649
S11315E08461DC6BC16000221C64194610BCFFF7E7
S11315F051BF00BF70B54369C6680B64AEB90A46F3
S1131600036904460D46014602209847072805D081
S113161008280ED129462046FFF71EFF3046296CC4
S1131620FFF718FF281D00F043FB0122FFF732FFEC
S1131630FFDEFFDEC26832B1D1F83CC00022C1F83F
S113164040C0FFF727BFFFF795BF00BF012910D0A7
S113165009D883B90F2A0ED800EB820252681846C3
S1131660009B1A607047033901298CBF02200120B6
S11316707047084670470220704700BF002300B53A
S113168085B00A4603A900911946FFF7DFFF0398C6
S113169005B05DF804FB00BF012910D009D883B957
S11316A00F2A0ED8009900EB82020968184651608F
S11316B07047033901298CBF022001207047084676
S11316C070470220704700BF002310B584B003ACFC
S11316D0039200940A461946FFF7DEFF04B010BDDA
S11316E070B54FF0FF36D36BADF50E7D13640DF17D
S11316F05C0E02F1040C05460C46BCE80F00AEE893
S11317000F00BCE80F00AEE80F00BCE80F00AEE825
S11317100F009CE80F008EE80F00169612E00C21D3
S113172016A86A46FFF7D0FF214616A8A84778B93D
S113173069460820049B16AA98470528064608D03F
S1131740092805D068462699FFF708FE0028E6D048
S1131750092616A8FFF74CFE30460DF50E7D70BD28
S11317602DE9F04F9346CA6C0D4652F8041B89B01C
S113177000F0030C0692002B79D002240E0C8DF895
S11317801D600904F6B2059102EB86022F6DBCF1CF
S1131790020F08BFAA6B17F001078DF81C400CD08C
S11317A0584605A900F076FB18B9082009B0BDE831
S11317B0F08F092009B0BDE8F08F1668002EEFD035
S11317C0B14664469A4600F0080101910297BAF1C5
S11317D0020F48D0B2F80090568802F10408AB6CAE
S11317E026F001020F215846D718FFF747FF87421A
S11317F037D829F001023A44824294BF00220122E0
S1131800760006F0020309F0010943EA0903012BFB
S113181047D0022B31D0002BCBD114B1002A40F099
S1131820CA8008F10402D2F80090B9F1000FCED1B9
S1131830584605A9029F00F02DFB0028B9D1002FBE
S1131840B3D00F215846FFF719FF0E210246584620
S1131850FFF73AFF0F215846664AFFF735FF072086
S1131860A8E70022CCE7566802F10808B7E70902A6
S1131870032405918DF81D3088E7D8F8006026F020
S11318800043002C44D122B1019A002A5AD0002BE3
S113189058D0002E01DA08F10408013308EB830262
S11318A0C1E7ECB9CAB1D8F80430D8F80020991CC3
S11318B04FEAD2723FF47DAF05F158010133049130
S11318C000F08C8008F10400FFF7BEFD04AB014674
S11318D02846AFF30080002857D108F10802A2E798
S11318E00D215846FFF7CAFE2B6A8342F5D1AB6A35
S11318F09845F2D14046FFF7E1FC0F2102465846D5
S1131900FFF7E2FE2A4600215846FFF7DDFEA6E770
S11319100D2158460393FFF7B1FE2A6A039B8242C6
S1131920B7D1AA6A9045B4D100270422C5E90B7245
S11319304244AB626A63D8F80020BA4256DB012203
S11319400292AAE7039400261C4608F1040905F153
S113195058070DE048460497FFF776FD002201463C
S113196004AB2846013609F10409AFF30080E8B955
S1131970A642EFD10D215846FFF780FE0346049A94
S11319800620C5E909282B6214E704460D215846B0
S1131990FFF774FE022CDDF81090286224D12B4648
S11319A043F82C9F0620C5E9093803E72346D8F8F5
S11319B00060039C6DE74046FFF780FC08F10402D9
S11319C00446AA632846AFF3008000283FF4F1AE32
S11319D022460F215846FFF777FE40E789465846CE
S11319E00D21FFF74BFE28624B46DBE7581C08EB42
S11319F0800080E7000000000023FFF7B1BE00BFB5
S1131A000123FFF7ADBE00BF0223FFF7A9BE00BF4D
S1131A102DE9F043064615461C46C3B0042900F2DE
S1131A20CD80DFE801F0AC51CB2A0300002C40F05C
S1131A30C580102A00F2C2800368DC0600F1E3804E
S1131A4020AF384600F0A6F9012438460023B16BD4
S1131A5004FA03F22A4203F1010305D00A4652F8BC
S1131A6004CB1146C0F800C0042B00F10400EFD1F0
S1131A703846B16300F084F995E0032C40F09E8071
S1131A8094B204EB1243102B4FEA124500F29680F5
S1131A9003681F0700F1BF8020AF384600F04EF9FD
S1131AA0B26B07EBC50154B10B4601EBC401D01A6C
S1131AB0E4001D5843F8045B8B42FAD122443846B3
S1131AC0B26300F019F96EE0012C4FEA124895B2A6
S1131AD06DD0052C72D108EB0509B9F1200F6DD832
S1131AE0B8F10F0F6ED8B9F1100F036800F29B80A4
S1131AF0D90708D5304623F0010343F0020340F828
S1131B00483B00F0EDF820AF384600F0E9F8B36B3D
S1131B10002D00F0B5806D006A1E002507EBC8019A
S1131B200132043903EB820253F8040B934241F867
S1131B30040FF9D1002D00F09D804146102938BFD3
S1131B4010216F466B001039013B07EBC1010133D3
S1131B50043902EB830352F8040B9A4241F8040F50
S1131B60F9D1012C00F08480B8F10F0FB26302D8D0
S1131B7020A800F0B1F8384600F0B6F813E0ECB94C
S1131B8023460124816B371D90B204FA03F202420A
S1131B901CBF51F8042B47F823200133102BF4D138
S1131BA0A80400D4B163002043B0BDE8F08308EB7F
S1131BB00503102B02D8B8F1100F14D1022043B042
S1131BC0BDE8F083002DEED003685A075CD46F465D
S1131BD0384600F08DF8B26B6B00A8F11001013BA0
S1131BE007EBC101B3E70368DA0759D420AF3846DD
S1131BF000F06EF8B36B002D8DD104333846B36317
S1131C0000F062F8CFE723F01003036000F5E870FA
S1131C1000F0C0F814E723F00803036000F5A8708F
S1131C2000F08CF838E7D90708D523F0010343F016
S1131C30020340F8483B00F053F83368580706D5D0
S1131C40304623F0040340F8D03B00F051F820AFB5
S1131C50384600F045F8684600F04AF8C8F110022A
S1131C605200B36BA9F11005013A07EBC80157E71D
S1131C7020AFC2E7012CC0D0B8F10F0FB36392D8E4
S1131C80384600F029F88EE76F4623F0040340F845
S1131C90D03B00F02DF8384600F02AF8B26B9BE7F1
S1131CA0304623F0030340F8483B00F011F89DE769
S1131CB000F1340191E838009C46A6464CF8045DD6
S1131CC090E8FF0FE54600BD90EC210B704700BF84
S1131CD080EC210B704700BF90EC200B704700BFD5
S1131CE080EC200B704700BFD0EC200B704700BF86
S1131CF0C0EC200B704700BFF0EC0201F0EC0211C5
S1131D00F0EC0221F0EC0231F0EC0241F0EC025173
S1131D10F0EC0261F0EC0271F0EC0281F0EC029163
S1131D20F0EC02A1F0EC02B1F0EC02C1F0EC02D153
S1131D30F0EC02E1F0EC02F1704700BFE0EC0201CC
S1131D40E0EC0211E0EC0221E0EC0231E0EC0241B3
S1131D50E0EC0251E0EC0261E0EC0271E0EC0281A3
S1131D60E0EC0291E0EC02A1E0EC02B1E0EC02C193
S1131D70E0EC02D1E0EC02E1E0EC02F1704700BFDC
S1131D80B0FC0181B0FC0191B0FC01A1B0FC01B137
S1131D90704700BFA0FC0181A0FC0191A0FC01A13F
S1131DA0A0FC01B1704700BFEC4600B52DE900501E
S1131DB02DE9FF1F4FF000032DE90C0001A9FFF7E7
S1131DC0D9FBDDF840E012B0704700BFEC4600B527
S1131DD02DE900502DE9FF1F4FF000032DE90C0001
S1131DE001A9FFF707FCDDF840E012B0704700BF1F
S1131DF0EC4600B52DE900502DE9FF1F4FF000031C
S1131E002DE90C0001A9FFF715FCDDF840E012B044
S1131E10704700BFEC4600B52DE900502DE9FF1FC7
S1131E204FF000032DE90C0001ABFFF7D7FBDDF801
S1131E3040E012B0704700BFEC4600B52DE90050F9
S1131E402DE9FF1F4FF000032DE90C0001AAFFF755
S1131E5047FCDDF840E012B0704700BF027A034649
S1131E607AB9427AA2B14FF0030C4168013A427246
S1131E7008680A1D5A60020283F808C0000E1A603E
S1131E8070470068013A1A7202021A60000E704725
S1131E90B02070472DE9F0434FF0000806460D4688
S1131EA085B02846FFF7DAFFB028044600F0DC804E
S1131EB0070647D500F0F003802B5FD0B02B74D019
S1131EC01BD8902B00F09C80A02B12D1C3434FF45D
S1131ED07F6203F007031A41010702F47F6201D510
S1131EE042F48042002330461946FFF791FD002852
S1131EF0D7D0092005B0BDE8F083C02B6ED1C62829
S1131F0000F09480C72800F0B48000F0F803C02BE0
S1131F1000F0C980C82800F0D480C928E9D1284637
S1131F20FFF79CFF0523044601213046220304F0F9
S1131F300F0402F470220C442243FFF769FD0028C9
S1131F40AFD0D6E78300DBB21F1D00230DF10C09CF
S1131F5019460D223046CDF80090FFF777FB039B1E
S1131F6060064CBFDF1BFF1800230D2230461946C4
S1131F70CDF800900397FFF78FFB92E72846FFF711
S1131F806DFF24022043B0F5004FB2D000230401BA
S1131F9019463046A2B2FFF73BFD0028A9D114F43C
S1131FA0004F18BF4FF001087BE7B12852D0B22888
S1131FB000F0AC80B3286ED000F0FC03B42B98D0B2
S1131FC0012300F007021A443046194642F4002265
S1131FD0FFF71EFD00283FF464AF8AE700F0F80322
S1131FE0D02B86D100F007020132052301213046AF
S1131FF042F40022FFF70CFD00283FF452AF78E7CB
S113200000F00D030D2B3FF474AF002303AF19460A
S113201000F00F0200973046FFF718FB00230D2253
S1132020304619460097FFF737FB3AE72846FFF793
S113203015FF04460323220304F00F0402F4702264
S11320400134304619462243FFF7E2FC00283FF4EE
S113205028AF4EE72846FFF701FF431EDBB20E2BE5
S113206002467FF63FAF44E7B8F1000F3ED00020B0
S113207040E72846FFF7F2FE431EDBB20E2B024672
S11320803FF637AF002304213046FFF7C1FC002898
S11320903FF407AF2DE72846FFF7E0FE012304468F
S11320A01946304642E7032300F00F02013230465E
S11320B0194642F42022FFF7ABFC00283FF4F1AEAE
S11320C017E72846FFF7CAFE0246012102F0F00492
S11320D002F00F0210340A440523304642EA043267
S11320E0FFF796FC00283FF4DCAE02E703AC43465E
S11320F041460E2230460094FFF7A8FA43460F22C9
S1132100414630460094FFF7C7FAB0E700230DF1CB
S11321100C090D2219463046CDF80090FFF796FAC7
S11321202846FFF79BFE02064FF00207039C0BD5DF
S113213000F07F00B840044428460394FFF78EFE65
S1132140030607F10707F3D4002300FA07F204F5A6
S113215001742244039230460D221946CDF80090B2
S1132160FFF79AFA9DE600BF08B5064B044613B183
S11321700021AFF30080044B1B6803B1984720464D
S1132180FFF796F8000000003800002003460244E0
S1132190934200D1704703F8011BF9E770B500269C
S11321A00C4D0D4C641BA410A64209D100F028F874
S11321B000260A4D0A4C641BA410A64205D170BD2A
S11321C055F8043B98470136EEE755F8043B984729
S11321D00136F2E71000002010000020100000205B
S11321E0140000200A44914200F1FF3300D17047EB
S11321F010B511F8014B914203F8014FF9D110BD0C
S1132200F8B500BFF8BC08BC9E467047F8B500BFDF
S10F2210F8BC08BC9E46704700000000AB
S113221C30E2FF7F01000000A4E2FF7FB0B0B08089
S113222CF0E2FF7F0100000028F1FF7FB0A90280DB
S113223CB4F1FF7FB0B0A88004F2FF7F010000006E
S113224C0CF2FF7FB0B0AA8040F2FF7FAE71B28077
S113225C18F3FF7FAB3F388078F3FF7F0100000059
S113226C88F3FF7FB0B0AA80C0F3FF7F01000000A9
S113227C64F4FF7FAA0DB280DCF4FF7FB0AF08805A
S113228C6CF7FF7F010000007CF7FF7FAD3F0280FD
S113229C14FAFF7F01000000F0FBFF7FB0AD048057
S10B22ACBCFEFF7F01000000ED
S10F22B4C0220000000000200600000012
S11322C0006CDC0200800000809FD5000A00000042
S10B22D02904000001040000D0
S90304C92F
