S01000005254435F414C41524D2E7333372F
S113000000000220E50100001102000011020000BE
S11300101102000011020000110200001102000090
S11300201102000011020000110200001102000080
S11300301102000010020000110200001102000071
S113004011020000991000001102000011020000CA
S11300501102000011020000110200001102000050
S1130060110200001102000011020000C51000007E
S11300701102000011020000110200001102000030
S11300801102000011020000110200001102000020
S11300901102000011020000110200001102000010
S11300A01102000011020000110200001102000000
S11300B0110200001102000059100000110200009A
S11300C011020000110200001102000011020000E0
S11300D01102000011020000110200000348044B49
S11300E0834202D0034B03B1184770471400002029
S11300F014000020000000000548064B1B1AD90F0D
S113010001EBA301491002D0034B03B11847704718
S113011014000020140000200000000010B5064C5C
S1130120237843B9FFF7DAFF044B13B10448AFF364
S113013000800123237010BD140000200000000083
S11301407814000008B5054B1BB105490548AFF309
S11301500080BDE80840FFF7CFBF00BF00000000EB
S11301601800002078140000A3F5803A704700BFFF
S1130170174B002B08BF134B9D46FFF7F5FF0021DB
S11301808B460F461348144A121A01F003F80E4B1B
S1130190002B00D098470D4B002B00D0984700202F
S11301A0002104000D000D48002802D00C48AFF3D4
S11301B0008000F0F7FF2000290000F0A5FF00F008
S11301C0D7FF00BF0000080000000000000000008E
S11301D000000220140000203C0000200000000069
S11301E000000000064880470649074A074B9A4228
S11301F0BEBF51F8040B42F8040BF8E7FFF7B8FF51
S113020011030000841400000000002014000020EA
S1130210FEE700BF00487047006CDC02254AD36A41
S113022003F47053B3F5805F3AD0B3F5005F04D0A4
S1130230B3F5006F0BD1204B00E0204B1B681D4A27
S11302401068C0F382300130B3FBF0F07047D3681C
S113025003F4E063B3F5407F25D008D8B3F5807F7D
S11302600ED0B3F5007F20D0A3B10023E7E7B3F5A8
S1130270806F1CD0B3F5A06F114B18BF0023DEE7CD
S1130280104B114AD3F8FC10104BB1F1985F28BF02
S11302901346D4E70B4B0E4AD3F8FC100D4BF4E78E
S11302A04FF40043CBE70C4BC9E70C4BC7E70C4BAF
S11302B0C5E700BF00800C400800002004000020B7
S11302C0003FAB010081E00F40B56400C0CF6A007D
S11302D0804F120040420F00809FD500C0D8A70075
S11302E0406F400108B5FFF799FF044B5B6803F0CA
S11302F00F03D840024B186008BD00BF00800C40BB
S113030000000020014B1868704700BF080000205F
S1130310014A024B9A6070470000000000ED00E0C3
S1130320024A536E0342FCD1704700BF00A008404C
S1130330002210B5284C1046214600F01BFD214632
S11303400022012000F016FD21460022022000F0C8
S113035011FD21460022032000F00CFD214600225D
S1130360042000F007FD21460022052000F002FDD4
S113037021460022062000F0FDFC21460022072031
S113038000F0F8FC0022FF21104600F03DFD0022A1
S1130390FF21012000F038FD0022FF21022000F09F
S11303A033FD0022FF21032000F02EFD0022FF2157
S11303B0042000F029FD0022FF21052000F024FD87
S11303C00022FF21062000F01FFDBDE8104000229E
S11303D0FF21072000F018BD00F00FF010B5012137
S11303E00446224800F058FA0321214800F0C8FAD4
S11303F04021204800F08AF9012000F091FA0121FF
S11304001D4800F049FA1D4B1D489A6A00229A6261
S113041000F0E6FB0121082000F04EFC0121102031
S113042000F04AFC0121802000F046FC01214FF439
S1130430807000F041FC01214FF4007000F03CFC9E
S113044064B14FF4402000F029FD4FF4803000F0F7
S1130450E7FB0C4AD36F43F00803D367FFF768FF49
S1130460BDE810404FF0FF30FFF75ABFD0433E00C5
S113047002001E0080002A0000362C0000A0084064
S11304802812000000800C4008B5002278210120C9
S113049000F0BAFC00227821022000F0B5FC002212
S11304A07821032000F0B0FC00227821042000F021
S11304B0ABFC00227821052000F0A6FC0022782164
S11304C0062000F0A1FCBDE80840002278210720A6
S11304D000F09ABC2DE9F84F42F20E73984204469C
S11304E048DC284B984204DB002803DB4FF0000A69
S11304F003E01C464FF0010A644201254FF0FF302F
S1130500FFF70EFF204B00271D66FFF7BDFF4FF0DE
S11305100A09BAF1000F01D0032F30D0B4FBF5F370
S1130520B3FBF9F209FB12339BB20E264FF000081D
S1130530164A32F813B0164B06FB07364BFA08F28C
S1130540D30706D5012296F8CB1096F8C40000F024
S1130550BFFB08F10108B8F1070F06F10106EDD160
S11305600137042F09FB05F5D3D10022064B1A6687
S1130570BDE8F88F4FF0000A42F20F74BDE7102374
S1130580D3E700BF19FCFFFF00A008403C120000A5
S11305905E1200000E280A4603468BBF002105495F
S11305A0084608569CBF0449C95602B1012200F00E
S11305B08FBB00BF1712000008120000124BD3F8C3
S11305C0FC30C3F307434A2B06D0792B04D0482BC5
S11305D00E4818BF002070470D4B0C48D3F8E0209C
S11305E0D3F8E810D3F8EC30120202F47C52C3F3CF
S11305F00313134301F0F0021343064AB3F5017FDA
S113060028BF1046704700BF0081E00F0048E80192
S113061000FF0FE000366E0110B50446FFF7CEFF71
S1130620A04207D2FFF7CAFFB4EB400F0ED8012255
S1130630012301E00022134605498B6705494B68F5
S113064023F4807343EA02234B6010BD0222EFE7D8
S11306500000904300800C40034B5A6DD20702D433
S11306601A6D1042FCD1704700800C40144B5A683C
S11306706FF0130302F00702134113F0010F114B43
S113068009D1984217D8104B104A034493422CBF07
S11306900023012308E098420FD80B4B0B4A034474
S11306A0934234BF0323022305494A6822F0070218
S11306B013434B6070470423F6E70523F4E700BFB8
S11306C000000C400048E801FFDB0BFF0024F400AD
S11306D038B541F67133054CE56BE363FFF79AFDDA
S11306E0FFF7C4FF0DB10023E36338BD00000C40E5
S11306F038B541F67133044CE56BE363FFF7B6FF9D
S11307000DB10023E36338BD00000C40C0F30313B4
S1130710013B10B50C460C2B23D8DFE803F007226D
S1130720221822222F4A902222222300FFF7D0FFF0
S1130730544A013C136823F4E03343EA84341460DC
S1130740FFF7D0FDBDE810400021FFF7D1BFB1FA9B
S113075081F44C4AC4F11F04936823F00F0323432C
S1130760936010BDB1FA81F4464AC4F11E04536883
S113077023F4807343EA04235360F2E7FFF7A8FFEE
S1130780FFF7B0FDB0FBF4F0B4FA84F4FFF744FFD4
S11307903C4AC4F11F04536823F00F0323435360FE
S11307A0FFF7A0FD0021FFF7A3FFBDE81040FFF70E
S11307B033BF354B984234D014D8344B984221D0AF
S11307C003F582239842CCD1B1FA81F40420FFF7D7
S11307D043FF2C4AC4F11F04936E23F4706343EA6D
S11307E004231CE02A4B9842BBD1B1FA81F40420C3
S11307F0FFF732FF234AC4F11F04936E23F003036F
S113080023430CE0B1FA81F40420FFF725FF1D4ACD
S1130810C4F11F04936E23F0F00343EA04139366B8
S11308209FE7B1FA81F40420FFF716FF154AC4F1DB
S11308301B04936E23F4405343EA0433EFE7154B50
S1130840984211D003F5043398428AD1B1FA81F465
S11308504020FFF701FF0B4AC4F11F04136F23F07C
S1130860300343EA04130BE0B1FA81F44020FFF7AC
S1130870F3FE044AC4F11F04136F23F0030323435C
S113088013676EE700800C4080002A008016120077
S113089080062E0090071A00C0F30323013B70B5B5
S11308A004460E46092B15D8DFE803F02925051464
S11308B0142019141415FFF715FDFFF7ADFE124DA2
S11308C0C4F3043405F1424505F5801504EBC50471
S11308D0A400266070BD0D4DC0F30434F2E7C0F3EC
S11308E0043410200A4DFFF7B7FEEBE7C0F30434DD
S11308F0084D0120F7E7084DC0F30434E2E7074D43
S1130900C0F30434DEE700BF40800C4078800C4024
S113091060800C4058800C4044800C4008800C409F
S1130920054A936D1B0706D4D36F00F0070023F02C
S113093007030343D367704700800C40042830B595
S113094011D80A4B1C5C0A4B33F81050094B33F88E
S11309501000094B41B11D622AB1084B23449B008E
S11309601A68002AFCD030BD1862FCE7701400003D
S1130970661400005C14000000800C406001E41068
S113098010B500F00F04631E062B62D8DFE803F0F5
S11309900441416161808F000239032959D8DFE89D
S11309A001F00235172E0020042401221146FFF71E
S11309B0C5FFFFF78DFE504B5C62FFF793FC0446C6
S11309C0FFF72AFE2046BDE810400021FFF790BE45
S11309D0FFF7F4FD0130FFF71FFEFFF793FC474BD1
S11309E0454A9842136805D943F060030220136016
S11309F00446DAE723F0600343F02003F6E7FFF749
S1130A00DDFD0130FFF708FE0320CEE701200324BB
S1130A10CBE7013909291CD8DFE801F005081C1BC4
S1130A201B231B1B1B2E0023002106E00122002098
S1130A301146FFF783FF002302212F48022C826A0C
S1130A401CD122F4803222F003020A4342EA034218
S1130A50826210BD012211461046FFF76FFF00238A
S1130A60EBE7FFF73FFCFFF7D7FD0122244B0321FF
S1130A70C3F810280023E0E70123D5E71B0522F47F
S1130A80801243EA810322F00C0213438362E0E7FD
S1130A90072906D00929DCD1174A136843F080538B
S1130AA003E0154A136823F080531360D1E7032948
S1130AB00FD0092919D00229CBD1012200201146D7
S1130AC0FFF73CFF40220C4B5A62DA6AD003FCD594
S1130AD0BFE7012211461046FFF730FF6022064BA4
S1130AE05A62DA6A9103FCD5B3E72022024B5A62B8
S1130AF0DA6A1204FCD5ACE700800C400048E80137
S1130B0000009043072A70B5164C1DD80726D4F868
S1130B1000119500AE4021EA060100FA05F52943CB
S1130B20C4F800111049114489000B609DF810307D
S1130B30C1F88030012393400A4AC2F81C319DF861
S1130B401430C1F8003170BD0726A2F10805D4F8AD
S1130B500411AD00AE4021EA0601A8400843C4F8E0
S1130B600401DFE70060004040088310F0B53AB1AB
S1130B7001252426194C8D4006FB0044EBB1256168
S1130B8024244443072904F1804404F5C04416D8BE
S1130B900F2765688E00B74025EA070502FA06F6B6
S1130BA03543656042B90122242402FA01F10B4A5B
S1130BB004FB002283B11161F0BD6561E0E70F27FA
S1130BC0A1F10805A668AD00AF4026EA070602FABF
S1130BD005F53543A560E5E75161EDE700600040A8
S1130BE00E4A10B551681368C46823F001031360FA
S1130BF0436821F4830121F01F0123430B43017A4D
S1130C000B43417A1943038A0B43536003781BB1A6
S1130C10136843F00103136010BD00BF00A0084037
S1130C20054AB0F5803F536823F4803308BF43F48A
S1130C3080335360704700BF00A008400A4A8168AF
S1130C40D36823F47F030B43416843EA8143D360B1
S1130C50037823B1D36843F48073D3607047D368B7
S1130C6023F48073F9E700BF00A00840114A4368E9
S1130C70D1685361C36821F0F8019361437C0B434D
S1130C80017A43EAC103017C43EA4113416923F039
S1130C908053082908BF43F08053D360037823B1FD
S1130CA0D36843F00403D3607047D36823F004038C
S1130CB0F9E700BF00A00840044B9A6811B1024351
S1130CC09A60704722EA0002FAE700BF00A00840D9
S1130CD007280BD8DFE800F0040B10151B20252A89
S1130CE01F2910DC144B0B449B001A6070471F290A
S1130CF0D4BF124B124BF6E71F29D4BF114B124B32
S1130D00F1E71F2901DC114BEDE7114BEBE71F293C
S1130D10D4BF104B104BE6E71F29D4BF0F4B104B29
S1130D20E1E71F29D4BF0F4B0F4BDCE71F29D4BFCA
S1130D300E4B0F4BD7E700BF0002C5102002C510B1
S1130D408002C5104002C510A002C5106002C51083
S1130D50C002C5106006C5108005C5108006C51008
S1130D60A005C510A006C510C005C510C006C51055
S1130D70E005C510072844D8DFE800F0040B121979
S1130D802029323B1F4B186C42400A4042401A64EF
S1130D9070471C4B586C42400A4042405A647047AA
S1130DA0184B986C42400A4042409A647047154B75
S1130DB0D86C42400A404240DA647047114BD3F881
S1130DC0CC0042400A404240C3F8CC2070470D4B4F
S1130DD0D3F8D00042400A404240C3F8D0207047C4
S1130DE0084BD3F8D40042400A404240C3F8D42010
S1130DF07047044BD3F8D80042400A404240C3F83D
S1130E00D820704700A00840072844D8DFE800F045
S1130E10040B12192029323B1F4B186D42400A4023
S1130E2042401A6570471C4B586D42400A4042408C
S1130E305A657047184B986D42400A4042409A6583
S1130E407047154BD86D42400A404240DA657047FE
S1130E50114BD3F8B40042400A404240C3F8B420D6
S1130E6070470D4BD3F8B80042400A404240C3F8E3
S1130E70B8207047084BD3F8BC0042400A404240B7
S1130E80C3F8BC207047044BD3F8C00042400A406A
S1130E904240C3F8C020704700A00840034A53688A
S1130EA023F4E01303435360704700BF00A00840DD
S1130EB020B1012801D1024B19607047014BFBE7B7
S1130EC00C000840080008404FF086431860704743
S1130ED0427803780AB143F0020382780AB143F0FE
S1130EE00403014A13607047000008400D4AD2F819
S1130EF0E430D2F8E0109B0003F03C03C1F381110D
S1130F000B438370D2F8E03003F03F034370D2F810
S1130F10E830D2F8EC2003F0F003C2F303121343D9
S1130F200370704700FF0FE037B501211D48FFF73C
S1130F30B3FC0123032218460921FFF717FE0123FE
S1130F40032218460A21FFF711FE01230322072179
S1130F500220FFF70BFE0221002308460422FFF7BC
S1130F6005FE02254FF400620F4B01241D601A6038
S1130F700922204611460023CDE90044FFF7C2FDB3
S1130F800A22204611460023CDE90044FFF7BAFDAA
S1130F900722002311462846CDE90044FFF7B2FD9D
S1130FA003B030BD00D2040000E100E070B50124BC
S1130FB00F2500268AB00020FFF710FA012108202F
S1130FC0FFF7E8FA01A8CDE902568DF80440FFF7CF
S1130FD035FE48F20103ADF82030082304A88DF84B
S1130FE0104005968DF8184007950993FFF73EFECB
S1130FF00AB070BD13B5154B154C1A889B78204662
S11310002021ADF804208DF80630FFF77FFB012185
S11310102046FFF741FC0024012301A88DF8063087
S1131020ADF80440FFF754FF40F2FF312046FFF7CC
S11310303FFF4FF08042074B1A6002F50022D3694C
S113104043F00203D36102B010BD00BF7514000069
S11310508016120000E100E002220B4B9A610B4A59
S113106013683BB90A4B186848B90422094B9A65BE
S1131070FFF72ABF013B1360002BF3D070473B21DD
S113108001381160186070470000084030000020EB
S11310903400002000600040084B82B0D3F81421D3
S11310A00192019AC3F81C21054A136801333C2BB1
S11310B028BF0023136002B0704700BF00600040E7
S11310C03000002007B50E4BD3F814310193019B77
S11310D0B3F5007F06D10B4A136801333B2B88BF5D
S11310E000231360019B802B02D10120FFF7ECFE4B
S11310F0019A034BC3F81C2103B05DF804FB00BF45
S1131100006000403400002007B50122134B01A801
S11311101A64134BD3F8FC40FFF7E8FEB4F1805F88
S11311200CD39DF80430022B08D90E4AD2F8C030F3
S113113023F0500343F01003C2F8C030FFF7F4FE6D
S11311406424FFF757FFFFF731FF074E074D306860
S11311502B6804FB0030FFF7BDF9F8E700000C40F2
S11311600081E00F00800C4034000020300000209B
S113117008B5064B044613B10021AFF30080044BBD
S11311801B6803B19847204600F030F800000000C7
S11311903800002003460244934200D1704703F80C
S11311A0011BF9E770B500260C4D0D4C641BA4100F
S11311B0A64209D100F01CF800260A4D0A4C641B13
S11311C0A410A64205D170BD55F8043B98470136DA
S11311D0EEE755F8043B98470136F2E70C0000208F
S11311E00C0000200C00002010000020FEE700BFCF
S11311F0F8B500BFF8BC08BC9E467047F8B500BF00
S1131200F8BC08BC9E4670470C20270C1C0C0C1E16
S11312102722230C0C0C1D0100030200030400050B
S1131220000007050607000001000000030040005D
S11312300C00000000000000000000003F00060059
S11312405B004F0066006D007D0007007F006F00AB
S113125077007C0039005E007900710040000101D4
S11312600507070304020302040605060D0E0E0E0D
S11312700D0D0D0D0E0E0E0E0D0D010105070703CC
S113128004020302040605060F1010100F0F0F0FBF
S1131290101010100F0F01010507070304020302C9
S11312A00406050611121212111111111212121252
S11312B011110101050707030402030204060506D0
S11312C0131C1C1C131313131C1C1C1C13130001D0
S11312D00507060203010302040604051D1E1E1E63
S11312E01D1D1D1D1E1E1E1E1D1D000105070602BF
S11312F003010302040604051F2020201F1F1F1FD3
S1131300202020201F1F01010507070304020302F8
S11313100406050621222222212121212222222221
S11313202121070502010306042323232323232366
S11313300705020103060424242424242424070585
S11313400201030604252525252525250705020177
S1131350030604262626262626260001070206273B
S11313602727272700000000000000001312111097
S11313700F0E0D0C0000000021252426010103049A
S1131380040203020D0E0D0D0E0D0E0E01010304D9
S1131390040203020F100F0F100F101001010304B9
S11313A00402030211121111121112120101030499
S11313B004020302131C13131C131C1C000102035C
S11313C0040103021D1E1D1D1E1D1E1E000102031D
S11313D0040103021F201F1F201F202001010304FA
S11313E004020302212221212221222205070704CB
S11313F0040605060E0E0D0D0E0E0D0D0507070451
S11314000406050610100F0F10100F0F0507070430
S11314100406050612121111121211110507070410
S1131420040605061C1C13131C1C131305070603D2
S1131430040604051E1E1D1D1E1E1D1D0507060394
S11314400406040520201F1F20201F1F0507070472
S113145004060506222221212222212100028000E5
S113146008000200200000014000040001001000F8
S10F147009070301050100010000000051
S10B147CECECFF7F010000000D
S1131484809FD50000800000006CDC024501000050
S10714941D01000032
S90301E516
