:1000000000000220E50100001102000011020000C2
:100010001102000011020000110200001102000094
:100020001102000011020000110200001102000084
:100030001102000010020000110200001102000075
:100040001102000009180000110200001102000056
:100050001102000011020000110200001102000054
:10006000110200001102000011020000311800000E
:100070001102000011020000110200001102000034
:100080001102000011020000110200001102000024
:100090001102000011020000110200001102000014
:1000A0001102000011020000110200001102000004
:1000B00011020000110200001102000011020000F4
:1000C00011020000110200001102000011020000E4
:1000D0001102000011020000110200000348044B4D
:1000E000834202D0034B03B118477047140000202D
:1000F00014000020000000000548064B1B1AD90F11
:1001000001EBA301491002D0034B03B1184770471C
:1001100014000020140000200000000010B5064C60
:10012000237843B9FFF7DAFF044B13B10448AFF368
:1001300000800123237010BD140000200000000087
:100140002819000008B5054B1BB105490548AFF358
:100150000080BDE80840FFF7CFBF00BF00000000EF
:100160001800002028190000A3F5803A704700BF4E
:10017000174B002B08BF134B9D46FFF7F5FF0021DF
:100180008B460F461348144A121A01F093FB0E4B8C
:10019000002B00D098470D4B002B00D09847002033
:1001A000002104000D000D48002802D00C48AFF3D8
:1001B000008001F087FB2000290001F057FB01F0CF
:1001C00067FB00BF00000800000000000000000006
:1001D00000000220140000203C000020000000006D
:1001E00000000000064880470649074A074B9A422C
:1001F000BEBF51F8040B42F8040BF8E7FFF7B8FF55
:1002000079030000341900000000002014000020D1
:10021000FEE700BF80B400AF034BDB6C1B0EDBB20C
:100220001846BD4680BC7047B081E00F80B582B0F3
:1002300000AF00F015F87860074B5B6803F00F0320
:100240007A6822FA03F37B60044A7B6813607B6858
:1002500018460837BD4680BD00800C4008000020CD
:1002600080B582B000AF394BDB6A03F47053B3F54D
:10027000005F09D0B3F5005F12D8B3F5006F0BD063
:10028000B3F5805F04D00BE0314B1B687B604FE01F
:100290004FF400437B604BE02E4B1B687B6047E0D4
:1002A0002A4BDB6803F4E063B3F5A06F1AD0B3F513
:1002B000A06F39D8B3F5806F17D0B3F5806F33D8FE
:1002C000B3F5407F14D0B3F5407F2DD8B3F5007F50
:1002D00011D0B3F5007F27D8002B1AD0B3F5807F5B
:1002E0000CD021E01C4B7B6021E01C4B7B601EE0AE
:1002F0001B4B7B601BE01B4B7B6018E0FFF78AFF0A
:100300000346122B02D9184B7B6010E0174B7B6021
:100310000DE0FFF77FFF0346122B02D9144B7B60E1
:1003200005E0144B7B6002E000237B6000BF00BF50
:10033000064B1B689B0B03F0070301337A68B2FB83
:10034000F3F318460837BD4680BD00BF00800C405F
:100350000400002000000020003FAB01406F40017E
:10036000809FD500C0D8A70040B56400C0CF6A0008
:10037000804F120040420F0080B400AF034B044A8C
:100380009A6000BFBD4680BC704700BF00ED00E032
:100390000000000080B400AF4FF400431846BD4693
:1003A00080BC704780B400AF4FF47A731846BD46E6
:1003B00080BC704780B400AF024B1B681846BD4636
:1003C00080BC70470400002080B487B000AFF860A4
:1003D000B9607A60FB6803F1424303F58013DA00E9
:1003E000BB6813449B007B617B697A681A6000BF1D
:1003F0001C37BD4680BC704780B485B000AFF86044
:10040000B9607A60FB681A68BB68DB431A407B6896
:100410001A43FB681A6000BF1437BD4680BC7047A2
:1004200080B483B000AF7860044A7B68C2F81C31A6
:1004300000BF0C37BD4680BC704700BF0060004065
:1004400080B483B000AF03463960FB71FB79002BA9
:100450000DD0FB79012B0AD0FB79022B07D0FB7959
:10046000032B04D0FB79042B01D0FB79052B01224F
:100470003B6802FA03F30749FA7918461346DB0092
:1004800013449B000B441433186000BF0C37BD4667
:1004900080BC70470060004080B483B000AF03466A
:1004A0003960FB71FB79002B0DD0FB79012B0AD051
:1004B000FB79022B07D0FB79032B04D0FB79042BAB
:1004C00001D0FB79052B01223B6802FA03F30749AF
:1004D000FA7918461346DB0013449B000B44103393
:1004E000186000BF0C37BD4680BC704700600040FC
:1004F00080B586B000AFB9607A601A460346FB73D8
:100500001346BB7300237B61FB7B002B0DD0FB7B71
:10051000012B0AD0FB7B022B07D0FB7B032B04D0E3
:10052000FB7B042B01D0FB7B052B7B68072B0ED8B4
:100530007B689B00072202FA03F1FA7B7B689B0031
:1005400002FA03F31A461A48FFF756FF10E07B68D9
:10055000083B7B617B699B00072202FA03F1FA7B6F
:100560007B699B0002FA03F31A461248FFF744FF27
:10057000BB7B1A4679681048FFF726FF97F82030B2
:100580001A4679680D48FFF71FFF01227B6802FABF
:1005900003F31846FFF744FF97F824301A467968AA
:1005A0000748FFF711FF00BF1837BD4680BD00BFE9
:1005B0000061004004610040086100400C6100409F
:1005C0001061004080B584B000AFB9607B60034625
:1005D000FB731346BB73FB7B002B0DD0FB7B012B06
:1005E0000AD0FB7B022B07D0FB7B032B04D0FB7BC9
:1005F000042B01D0FB7B052BBB7B002B0DD07B6834
:10060000002B05D0FB7BB9681846FFF745FF04E0D7
:10061000FB7BB9681846FFF713FFBB68072B20D890
:100620002B49FA7B1346DB0013449B000B44043335
:100630001A68BB689B000F2101FA03F3DB431340E8
:10064000B97BBA68920001FA02F211462048FA7B9F
:1006500019431346DB0013449B0003440433196021
:1006600021E01B49FA7B1346DB0013449B000B443B
:1006700008331A68BB68083B9B000F2101FA03F39B
:10068000DB431340B97BBA68083A920001FA02F2E0
:1006900011460F48FA7B19431346DB0013449B00B5
:1006A000034408331960BB7B002B0DD17B68002B02
:1006B00005D0FB7BB9681846FFF7EEFE04E0FB7B34
:1006C000B9681846FFF7BCFE00BF1037BD4680BDB5
:1006D0000060004080B487B000AFF860B9607A6015
:1006E000FB6803F1424303F58013DA00BB6813444F
:1006F0009B007B617B697A681A6000BF1C37BD462E
:1007000080BC704780B485B000AF786039607B688A
:1007100003F1424303F58013DA003B6813449B0066
:10072000FB60FB681B6818461437BD4680BC7047E9
:1007300080B483B000AF786001227B6802FA03F3D3
:1007400018460C37BD4680BC704780B485B000AFFA
:1007500078607B68002B02D07B68B3F5004F7B6824
:10076000B3FA83F3DBB2C3F11F03FB60FB681846E7
:100770001437BD4680BC704780B400AF034BDB6CC0
:100780001B0EDBB21846BD4680BC7047B081E00F3F
:1007900080B400AF034BDB6C1B0CDBB21846BD46CC
:1007A00080BC7047B081E00F80B582B000AFFFF72A
:1007B000EFFF0346792B05D0792B26DC482B22D07E
:1007C0004A2B22D1134B1B699BB21B029BB203F431
:1007D0007C53FB800F4B9B6903F0F0039AB2FB88BC
:1007E0001343FB800B4BDB691B0903F00F039AB229
:1007F000FB881343FB80FB88B3F5017F01D3064BD5
:1008000004E0064B02E0054B00E0002318460837E1
:10081000BD4680BDD0FF0FE000366E010048E80104
:1008200080B584B000AF78600123FB60FFF7BCFFA8
:1008300002467B68934204D80023FB600023BB6020
:100840000BE0FFF7B1FF03465B007A689A4202D8DB
:100850000123BB6001E00223BB60FA681E21084847
:10086000FFF738FF064B5B6823F48072BB681B02FE
:10087000034913434B6000BF1037BD4680BD00BF26
:1008800000800C4080B582B000AF1E210448FFF705
:1008900039FF78607B6818460837BD4680BD00BFC9
:1008A00000800C4080B582B000AF264B5B6903F43A
:1008B000E063B3F5E06F36D0B3F5E06F39D8B3F548
:1008C000C06F33D0B3F5C06F33D8B3F5407F0ED0CF
:1008D000B3F5407F2DD8B3F5007F13D0B3F5007F7B
:1008E00027D8002B1CD0B3F5807F16D021E0FFF76E
:1008F00043FF0346122B02D9134B7B601CE0134BC2
:100900007B6019E0FFF738FF0346122B02D9104B2A
:100910007B6011E00F4B7B600EE00F4B7B600BE0C8
:100920000E4B7B6008E00E4B7B6005E00D4B7B605F
:1009300002E000237B6000BF7B6818460837BD4695
:1009400080BD00BF00800C40804F120040420F006D
:1009500040B56400C0CF6A00C0D8A700809FD50012
:10096000406F4001003FAB0180B582B000AF0D4841
:1009700000F03AFB0346FB70FB78072B05D0092BF0
:1009800007D1FFF76DFC786006E0FFF78BFF78601A
:1009900002E000237B6000BF7B6818460837BD4635
:1009A00080BD00BF06000E0090B585B000AF786036
:1009B0000023BB607B68344A934203D07B68334A90
:1009C000934200E000BF786800F00EFB0346FB6036
:1009D0007B682D4A934204D07B682C4A934206D010
:1009E0000CE02B4B9B6A03F00303FB6006E0284BF3
:1009F0009B6A9B0803F00303FB6000BFFB68032BAB
:100A000038D801A252F823F03F0A0000190A00006A
:100A1000210A0000290A0000FFF7BCFCB8602DE0A5
:100A2000FFF7C8FCB86029E0FFF700FC0446FFF7B9
:100A300029FF0346013324FA03F3BB601EE00023C1
:100A4000BB607B68104A934203D07B680F4A934295
:100A500013D10F4B9A6A7B680B498B4201D110234B
:100A600000E0142322FA03F3002B06D0FFF79AFCD0
:100A7000B86002E00023BB6000E000BFBB6818461E
:100A80001437BD4690BD00BF02001E0003002000C9
:100A900000800C4080B483B000AF7860094B5B6D80
:100AA00003F00103002B07D100BF064B1A6D7B68D2
:100AB0001340002BF9D100E000BF0C37BD4680BCCD
:100AC000704700BF00800C4080B582B000AF114875
:100AD00000F08AFA0346FB70FB78092B0ED0092B35
:100AE00010DC022B02D0032B04D00BE0FFF762FCDA
:100AF00078600AE0FFF74EFC786006E0FFF7B0FB95
:100B0000786002E000237B6000BF7B6818460837EE
:100B1000BD4680BD0723260090B585B000AF786044
:100B20007B681B0903F00F03BB60BB68013B0C2B08
:100B300000F2B68001A252F823F000BF710B000052
:100B4000A10C0000A10C0000810B0000A10C000012
:100B5000A10C0000950B0000C30B00005D0C000011
:100B6000A10C0000A10C0000A10C0000A90B0000CA
:100B70004F4B1B689B0B03F007030133FB6092E0B4
:100B80004B4B9B6803F00F03FB60F868FFF7D0FD49
:100B9000F86088E0464B5B6803F00F03FB60F86881
:100BA000FFF7C6FDF8607EE0414B5B681B0A03F06F
:100BB0000103FB60FB6801331846FFF7B9FDF860DD
:100BC00071E07B683B4A93423AD07B68394A934252
:100BD00040D87B68384A934222D07B68364A934299
:100BE00038D87B68354A934204D07B68344A9342B4
:100BF0000BD02FE02E4B9B6E1B0903F00F03FB6005
:100C0000F868FFF795FDF86027E0294B9B6E1B0AFB
:100C100003F00F03FB60F868FFF78AFDF8601CE043
:100C2000234B9B6E1B0B03F003041020FFF78DFD7D
:100C300003462344FB60F868FFF77AFDF8600CE098
:100C40001B4B9B6E03F00303FB60F868FFF770FD1E
:100C5000F86002E00123FB6000BF24E07B68194AD2
:100C6000934204D07B68184A93420AD014E0104B98
:100C70001B6F03F00303FB60F868FFF759FDF86092
:100C80000DE00B4B1B6F1B0903F00303FB60F868BF
:100C9000FFF74EFDF86002E00123FB6000BF02E0B9
:100CA0000123FB6000BFFB6818461437BD4690BDAA
:100CB00000800C4080062E0080002A008016120062
:100CC0008026160090071A0090171C0080B586B089
:100CD00000AF78600B46FB7000233B617B681B0A0A
:100CE00003F00F03013B092B44D801A252F823F073
:100CF0002B0D0000310D0000190D0000750D0000D6
:100D0000750D0000370D0000410D0000750D00004D
:100D1000750D00004B0D0000184B7B61FFF786FA44
:100D200003461846FFF77CFD12E0154B7B610FE090
:100D3000144B7B610CE0144B7B6101233B6107E0AA
:100D4000124B7B6110233B6102E0114B7B6100BFC2
:100D50007B681B0B03F01F03FB603B69002B02D079
:100D60003869FFF797FEFB781A46F9687869FFF74C
:100D7000B1FC00E000BF1837BD4680BD40800C408C
:100D800008800C4044800C4058800C4060800C402F
:100D900078800C4090B585B000AF78607B6803F434
:100DA0007813B3F5781F00F00681B3F5781F00F2D1
:100DB0000D81B3F5381F00F0C580B3F5381F00F280
:100DC0000581B3F5301F00F0A680B3F5301F00F2A7
:100DD000FD80B3F5281F00F08B80B3F5281F00F2CB
:100DE000F580B3F5181F00F0E280B3F5181F00F28C
:100DF000ED80B3F5001F00F0B280B3F5001F00F2E4
:100E0000E580B3F5F01F52D0B3F5F01F00F2DE809D
:100E1000B3F5E01F00F0B580B3F5E01F00F2D68017
:100E2000B3F5D01F00F0A080B3F5D01F00F2CE8044
:100E3000B3F5B01F4ED0B3F5B01F00F2C780B3F5C5
:100E4000901F39D0B3F5901F00F2C080B3F5801F1A
:100E500000F0A980B3F5801F00F2B880B3F5602FD1
:100E600000F09D80B3F5602F00F2B080B3F5802FC5
:100E70000DD0B3F5802F00F2A980002B03D0B3F57D
:100E8000003F10D0A2E0FFF7EBF9F860A1E0FFF718
:100E9000E7F9F860514B9B6803F00F03FA6822FAF8
:100EA00003F3FB6095E0FFF7C1F9F86091E04C486F
:100EB000FFF77AFDF8608CE04948FFF775FDF860B0
:100EC000464B9B6E1B0903F00F03FA6822FA03F3EB
:100ED000FB607EE04248FFF767FDF8603F4B9B6E8A
:100EE0001B0A03F00F03FA6822FA03F3FB6070E0B9
:100EF0003B48FFF759FDF860384B9B6E1B0B03F026
:100F000003041020FFF721FC03462344FA6822FA69
:100F100003F3FB605DE03248FFF746FDF8602F4BBE
:100F20009B6E1B0B03F00303FA6822FA03F3FB60CA
:100F30002A4BDB6F03F007030133FA68B2FBF3F3CC
:100F4000FB6046E02648FFF72FFDF860234B9B6EC1
:100F500003F00303FA6822FA03F3FB6039E0214847
:100F6000FFF722FDF86034E01E48FFF71DFDF86032
:100F70001A4B1B6F03F00303FA6822FA03F3FB60BA
:100F800027E01848FFF710FDF860144B1B6F1B0992
:100F900003F00303FA6822FA03F3FB6019E0FFF79A
:100FA000E3FCF86015E0FFF77DFCF86011E0FFF767
:100FB0008BFDF8600DE0FFF739F904467868FFF71C
:100FC000ABFD0346B4FBF3F3FB6002E00023FB60E0
:100FD00000BFFB6818461437BD4690BD00800C402A
:100FE00002001E000300200080B485B000AF7860CE
:100FF0000123FB737B6803F00F03BB60BB68013BFD
:10100000062B00F2A08001A252F823F02910000064
:1010100065100000A71000004711000047110000F4
:10102000E91000000B1100004B4BDB6A03F4705316
:10103000B3F5005F09D0B3F5005F0FD8B3F5006FCB
:1010400009D0B3F5805F03D008E00223FB7308E00A
:101050000323FB7305E00423FB7302E00523FB730A
:1010600000BF73E03C4B9B6A03F00303032B0CD0DF
:10107000032B0DD8012B02D0022B03D008E0032351
:10108000FB730FE00223FB730CE00623FB7309E004
:10109000314B9B6A03F48033002B02D00A23FB738D
:1010A00000E000BF52E02C4B9B6A03F00C030C2BBA
:1010B0000CD00C2B0DD8042B02D0082B03D008E049
:1010C0000323FB730FE00223FB730CE00623FB7387
:1010D00009E0214B9B6A03F48013002B02D00A2302
:1010E000FB7300E000BF31E01B4B1B6803F0805333
:1010F000002B03D0B3F1805F03D027E00723FB73FD
:1011000002E00923FB7300BF20E0134BDB6A03F40A
:101110006033B3F5003F0FD0B3F5003F0FD8B3F500
:10112000004F03D0B3F5803F03D008E00923FB73E1
:1011300008E00223FB7305E00323FB7302E00123B5
:10114000FB7300BF02E00023FB7300BFFB7B18466C
:101150001437BD4680BC704700800C4080B582B01B
:1011600000AF294B41F67132DA63274B9B68264A60
:1011700023F0010393604FF48010FFF70BFE7860BB
:101180007B68224A93421CD97A6813469B00134419
:101190005B0013441E4AA2FB0323DB087B607B68D1
:1011A0001C4AA2FB03239B0C01333B60164B1B6DB7
:1011B00023F4803323F03F0313493A6813430B654C
:1011C0001DE07A681346DB009B1ADB009B1A104A6D
:1011D000A2FB0323DB087B607B680E4AA2FB032390
:1011E0009B0C01333B60084B1B6D23F4803323F0D1
:1011F0003F033A681343044A43F48033136500BF46
:101200000837BD4680BD00BF00000C40804F120073
:10121000CDCCCCCC83DE1B4380B400AF064B9B68A7
:10122000054A23F001039360034B0022DA6300BFF9
:10123000BD4680BC704700BF00000C4080B485B044
:1012400000AF7860144BFB6002E0FB68013BFB6081
:10125000124BDB6903F00103002B02D0FB68002B6B
:10126000F3D1FB68002B02D16FF002030FE00B4AB1
:101270007B681361094B0122DA60084BDB6903F0DC
:101280000403002B02D04FF0FF3300E00023184688
:101290001437BD4680BC70478096980000000C4013
:1012A00080B487B000AF786039600023FB730023FF
:1012B000BB735D4B9B6803F00803002B53D13B6865
:1012C00003F00103002B46D0584B7B6102E07B69A1
:1012D000013B7B61544BDB6903F00803002B02D117
:1012E0007B69002BF3D17B69002B02D16FF00203E5
:1012F00095E04D4B9B684C4A23F0040393607B6858
:101300001A1D7A60484A1B689361474B0822DA60CD
:10131000464B7B6102E07B69013B7B61424BDB69B1
:1013200003F00103002B02D07B69002BF3D17B6912
:10133000002B02D16FF0020371E03B4BDB6903F03D
:101340000203002B02D06FF0010368E03B68013B11
:101350003B600023BB73344B9B68334A43F0040368
:1013600093600123FB733B68002B50D000233B614B
:1013700049E0FB7B83F00103DBB2002B0CD07B68E0
:101380001A1D7A60284A1B6893613B6901333B61EF
:10139000254B0822DA6018E07B681A1D7A60224A21
:1013A0001B68936100BF204BDB6903F00803002B2F
:1013B000F9D07B681A1D7A601B4A1B6893613B69F0
:1013C00002333B61184B0822DA60184B7B6102E064
:1013D0007B69013B7B61144BDB6903F00103002B4C
:1013E00002D07B69002BF3D17B69002B02D1FD2356
:1013F000BB730CE00C4BDB6903F00203002B02D043
:10140000FE23BB7303E03A693B689A42B1D3064BB3
:101410009B68054A23F00403936097F90E30184641
:101420001C37BD4680BC704700000C408096980079
:1014300080B58AB000AFF860B9607A600023FB76AF
:101440003D4BDB6B9BB2002B14BF01230023BB760B
:10145000394B41F67132DA63374B9B68364A43F0B9
:10146000010393607B689B087B6100237B62BB6800
:10147000FB6142E07B6A9B00FA6813441846FFF761
:10148000DDFE0346FB7697F91B30002B0ED02A4B6E
:101490009B68294A23F001039360BB7E002B02D096
:1014A000254B0022DA6397F91B3040E07B6A9B00F2
:1014B000FA681344C3F30B03C3F580539B083B62E4
:1014C0007A697B6AD31A3A6A9A4203D97A697B6A43
:1014D000D31A3B62396AF869FFF7E2FE0346FB76EE
:1014E00097F91B30002B0DD17A6A3B6A13447B625B
:1014F0003B6A9B00FA691344FB617A6A7B699A42F2
:10150000B8D300E000BF0C4B9B680B4A23F00103EB
:101510009360094B9B68084A23F004039360BB7EE9
:10152000002B02D0044B0022DA6397F91B301846D7
:101530002837BD4680BD00BF00000C4080B485B098
:1015400000AF78603B4BFB603B4BDB6B9BB2002BEF
:1015500014BF01230023FB72374B41F67132DA636B
:10156000354B9B68344A43F001039360324A7B68F1
:101570001361314B0122DA602F4BDB6903F0040366
:10158000002B0ED02C4B9B682B4A23F00103936059
:10159000FB7A002B02D0284B0022DA634FF0FF3396
:1015A00043E0254B0222DA6002E0FB68013BFB606E
:1015B000214BDB6903F00103002B02D0FB68002BF9
:1015C000F3D11D4BDB6903F00203002B0ED01A4B45
:1015D0009B68194A23F001039360FB7A002B02D029
:1015E000154B0022DA636FF001031EE0FB68002B4D
:1015F0000ED1114B9B68104A23F001039360FB7AD4
:10160000002B02D00C4B0022DA636FF002030CE0D7
:10161000094B9B68084A23F001039360FB7A002B77
:1016200002D0054B0022DA63002318461437BD466A
:1016300080BC70478096980000000C4080B584B054
:1016400000AFF860B9607A607A68B968F868FFF747
:10165000EFFE034618461037BD4680BD80B485B006
:1016600000AF78601A4B5B69DBB29B00DBB203F022
:101670003C03FB73164B1B699B09DBB203F00303AE
:10168000DAB2FB7B1343FB737B68FA7B9A70104BD7
:101690001B69DBB203F03F03DAB27B685A700C4B74
:1016A0009B691B09DBB21B01FB73094BDB691B093F
:1016B000DBB203F00F03DAB2FB7B1343FB737B68EF
:1016C000FA7B1A7000BF1437BD4680BC704700BF5C
:1016D000D0FF0FE080B483B000AF0346FB7197F9F1
:1016E0000730002B0BDBFB7903F01F02064997F94B
:1016F00007305B09012000FA02F241F8232000BF05
:101700000C37BD4680BC704700E100E080B400AFFC
:10171000034BDB6C1B0EDBB21846BD4680BC70472A
:10172000B081E00F80B483B000AF7860044A7B687A
:10173000C2F81C3100BF0C37BD4680BC704700BFEB
:101740000060004080B400AF034BD3F8143118465A
:10175000BD4680BC704700BF0060004080B582B0CD
:1017600000AF0E4B01221A64FFF7D0FF0346FB7156
:101770003B1D1846FFF772FFFB790F2B0AD93B7907
:10178000022B07D9064B1B6823F05003044A43F091
:101790001003136000BF0837BD4680BD00000C4039
:1017A000C0800C4080B582B002AF01211548FFF720
:1017B0008DFA012303220A210120FEF703FF0123F2
:1017C000032209210120FEF7FDFE0120FFF782FF21
:1017D0000B20FFF77FFF01230193012300930023D8
:1017E0000A220A210120FEF783FE0123019301232F
:1017F00000930023092209210120FEF779FE00BF92
:10180000BD4680BD00D2040080B582B000AFFFF7B6
:1018100099FF78607868FFF785FF044B1B680133F8
:10182000024A136000BF0837BD4680BD300000206B
:1018300080B582B000AFFFF785FF78607868FFF76A
:1018400071FF4FF07E60FFF779FEFFF787FC0422FF
:1018500005494FF07E60FFF7F1FEFFF7DDFC00BFAA
:101860000837BD4680BD00BF3000002080B500AF06
:10187000FFF774FFFFF796FFFFF770FC4FF07E63F2
:101880001B68024A136000BFFDE700BF3400002060
:1018900008B5064B044613B10021AFF30080044B9A
:1018A0001B6803B19847204600F030F800000000A4
:1018B0003800002003460244934200D1704703F8E9
:1018C000011BF9E770B500260C4D0D4C641BA410EC
:1018D000A64209D100F01CF800260A4D0A4C641BF0
:1018E000A410A64205D170BD55F8043B98470136B7
:1018F000EEE755F8043B98470136F2E70C0000206C
:101900000C0000200C00002010000020FEE700BFAB
:10191000F8B500BFF8BC08BC9E467047F8B500BFDC
:0C192000F8BC08BC9E46704700000000A8
:08192C003CE8FF7F0100000010
:10193400006CDC0200800000809FD500450100009F
:041944001D01000081
:04000003000001E513
:00000001FF
