:1000000000000220E50100001102000011020000C2
:100010001102000011020000110200001102000094
:100020001102000011020000110200001102000084
:100030001102000010020000110200001102000075
:10004000110200001920000011020000110200003E
:100050001102000011020000110200001102000054
:1000600011020000110200001102000055200000E2
:100070001102000011020000110200001102000034
:100080001102000011020000110200001102000024
:100090001102000011020000110200001102000014
:1000A0001102000011020000110200001102000004
:1000B0001102000011020000391F000011020000AF
:1000C00011020000110200001102000011020000E4
:1000D0001102000011020000110200000348044B4D
:1000E000834202D0034B03B1184770471C00002025
:1000F0001C000020000000000548064B1B1AD90F09
:1001000001EBA301491002D0034B03B1184770471C
:100110001C0000201C0000200000000010B5064C50
:10012000237843B9FFF7DAFF044B13B10448AFF368
:1001300000800123237010BD1C000020000000007F
:100140007424000008B5054B1BB105490548AFF301
:100150000080BDE80840FFF7CFBF00BF00000000EF
:100160002000002074240000A3F5803A704700BFEF
:10017000174B002B08BF134B9D46FFF7F5FF0021DF
:100180008B460F461348144A121A02F01BF80E4B06
:10019000002B00D098470D4B002B00D09847002033
:1001A000002104000D000D48002802D00C48AFF3D8
:1001B000008002F00FF82000290001F0CBFF01F0D1
:1001C000EFFF00BF0000080000000000000000007A
:1001D000000002201C000020400000200000000061
:1001E00000000000064880470649074A074B9A422C
:1001F000BEBF51F8040B42F8040BF8E7FFF7B8FF55
:10020000A103000080240000000000201C0000204A
:10021000FEE700BF80B400AF034BDB6C1B0EDBB20C
:100220001846BD4680BC7047B081E00F80B582B0F3
:1002300000AF00F01FF87860074B5B6803F00F0316
:100240007A6822FA03F37B60044A7B6813607B6858
:1002500018460837BD4680BD00800C4008000020CD
:1002600080B400AF024B1846BD4680BC704700BF4B
:10027000006CDC0280B582B000AF394BDB6A03F45E
:100280007053B3F5005F09D0B3F5005F12D8B3F532
:10029000006F0BD0B3F5805F04D00BE0314B1B68CF
:1002A0007B604FE04FF400437B604BE02E4B1B68BC
:1002B0007B6047E02A4BDB6803F4E063B3F5A06F93
:1002C0001AD0B3F5A06F39D8B3F5806F17D0B3F556
:1002D000806F33D8B3F5407F14D0B3F5407F2DD86D
:1002E000B3F5007F11D0B3F5007F27D8002B1AD0CB
:1002F000B3F5807F0CD021E01C4B7B6021E01C4BD0
:100300007B601EE01B4B7B601BE01B4B7B6018E09F
:10031000FFF780FF0346122B02D9184B7B6010E0D9
:10032000174B7B600DE0FFF775FF0346122B02D9D8
:10033000144B7B6005E0144B7B6002E000237B6084
:1003400000BF00BF064B1B689B0B03F00703013384
:100350007A68B2FBF3F318460837BD4680BD00BF8C
:1003600000800C400400002000000020003FAB0192
:10037000406F4001809FD500C0D8A70040B5640001
:10038000C0CF6A00804F120040420F0080B400AF1F
:10039000024B1B681846BD4680BC70470000002019
:1003A00080B400AF034B044A9A6000BFBD4680BCD6
:1003B000704700BF00ED00E00000000080B483B093
:1003C00000AF0346FB71FB79002B03D0054B0122E4
:1003D0001A6602E0034B00221A6600BF0C37BD46C6
:1003E00080BC704700A0084080B483B000AF786044
:1003F00000BF064B5A6E7B681340002BF9D100BF3B
:1004000000BF0C37BD4680BC704700BF00A008404D
:1004100080B483B000AF7860054B9A6A7B68DB4399
:10042000034913408B6200BF0C37BD4680BC704748
:1004300000A0084080B500AF00222849002001F04C
:100440008BFA00222549012001F086FA0022234977
:10045000022001F081FA00222049032001F07CFAF9
:1004600000221E49042001F077FA00221B490520D2
:1004700001F072FA00221949062001F06DFA0022FB
:100480001649072001F068FA0022FF21002001F040
:1004900021FB0022FF21012001F01CFB0022FF2193
:1004A000022001F017FB0022FF21032001F012FBC4
:1004B0000022FF21042001F00DFB0022FF21052076
:1004C00001F008FB0022FF21062001F003FB0022BF
:1004D000FF21072001F0FEFA00BF80BD00F00FF001
:1004E00080B582B000AF0346FB710121244800F0C3
:1004F00045FC0321234800F0A5FC4021224800F0E0
:1005000007FB012000F0EEFD0121204800F036FC41
:100510004FF0FF30FFF77CFF1D4801F051F801213B
:10052000082001F015F90121102001F011F9012135
:10053000802001F00DF901214FF4807001F008F9DD
:1005400001214FF4007001F003F9FB79002B0DD06D
:100550004FF4402001F07CFB4FF4803001F06CF848
:100560000C4BDB6F0B4A43F00803D367FFF762FFC6
:100570004FF0FF30FFF738FF00BF0837BD4680BDA2
:10058000D0433E0002001E0080002A0000362C00EE
:100590005C24000000800C4080B58AB000AF786019
:1005A0007B6842F20E72934202DD42F20F737B606F
:1005B0007B6813F57A7F01DC3D4B7B607B68002B09
:1005C00006DA786801F0E8FD78600123BB6101E09C
:1005D0000023BB614FF0FF30FFF706FF0120FFF75C
:1005E000EDFE00F06DF80123FB6100233B6254E057
:1005F0007A68FB6992FBF3F22E4B83FB021399108E
:10060000D317C91A0B469B000B445B00D11A0B464B
:10061000FB82BB69012B04D13B6A032B01D1102360
:10062000FB82FB8A244A32F81330BB8200237B62B0
:1006300027E022493A6A1346DB009B1A5B00CA187E
:100640007B6A1344CB331B783B611C493A6A1346DF
:10065000DB009B1A5B00CA187B6A1344C4331B7807
:10066000FB60BA8A7B6A42FA03F303F00103002BB2
:1006700004D001223969F86801F08AF87B6A0133F5
:100680007B627B6A062BD4DDFA6913469B00134418
:100690005B00FB613B6A01333B623B6A032BA7DDD6
:1006A0000020FFF78BFE00BF2837BD4680BD00BF8E
:1006B00019FCFFFF676666663824000038220000D8
:1006C00080B500AF00227821012001F003FA00225A
:1006D0007821022001F0FEF900227821032001F0A8
:1006E000F9F900227821042001F0F4F900227821A0
:1006F000052001F0EFF900227821062001F0EAF947
:1007000000227821072001F0E5F900BF80BD00003C
:1007100080B584B000AF03463960FB710023FB60F5
:100720000023BB60FB790E2B6BD801A252F823F09B
:100730006D07000077070000810700008B070000AD
:10074000950700009F070000A9070000B3070000FD
:10075000BD070000C7070000D1070000DB0700004D
:10076000E5070000EF070000F90700000123FB6028
:100770000C23BB6046E00023FB602023BB6041E00C
:100780000323FB602723BB603CE00223FB600C23B8
:10079000BB6037E00023FB601C23BB6032E0032317
:1007A000FB600C23BB602DE00423FB600C23BB60CB
:1007B00028E00023FB601E23BB6023E00523FB60D1
:1007C0002723BB601EE00023FB602223BB6019E0EF
:1007D0000023FB602323BB6014E00723FB600C2392
:1007E000BB600FE00523FB600C23BB600AE006231F
:1007F000FB600C23BB6005E00723FB601D23BB608F
:1008000000E000BF3B68002B05D00122B968F86802
:1008100000F0BEFF04E00022B968F86800F0B8FFFD
:1008200000BF1037BD4680BD80B487B000AFF86010
:10083000B9607A60FB6803F1424303F58013DA0084
:10084000BB6813449B007B617B697A681A6000BFB8
:100850001C37BD4680BC704780B485B000AF78605F
:1008600039607B6803F1424303F58013DA003B688B
:1008700013449B00FB60FB681B6818461437BD4699
:1008800080BC704780B485B000AF78607B68002B77
:1008900002D07B68B3F5004F7B68B3FA83F3DBB219
:1008A000C3F11F03FB60FB6818461437BD4680BCCC
:1008B0007047000080B400AF034BDB6C1B0CDBB255
:1008C0001846BD4680BC7047B081E00F80B582B04D
:1008D00000AFFFF7EFFF0346792B05D0792B26DC1D
:1008E000482B22D04A2B22D1134B1B699BB21B02EF
:1008F0009BB203F47C53FB800F4B9B6903F0F00326
:100900009AB2FB881343FB800B4BDB691B0903F096
:100910000F039AB2FB881343FB80FB88B3F5017F7A
:1009200001D3064B04E0064B02E0054B00E0002338
:1009300018460837BD4680BDD0FF0FE000366E0177
:100940000048E80180B584B000AF78600123FB6007
:10095000FFF7BCFF02467B68934204D80023FB608C
:100960000023BB600BE0FFF7B1FF03465B007A6832
:100970009A4202D80123BB6001E00223BB60FA68FF
:100980001E210848FFF750FF064B5B6823F4807276
:10099000BB681B02034913434B6000BF1037BD46C1
:1009A00080BD00BF00800C4080B485B000AF78608F
:1009B0003960204B5B6803F00703FB60FB68012B89
:1009C00002D9FB68042B02D10023FB7202E0012351
:1009D000FB7200BF7B68184A934207D9FB7A002B51
:1009E00001D0052300E00423FB6016E07B68124A77
:1009F00093420BD87B68114A934207D9FB7A002BAC
:100A000001D0032300E00123FB6006E0FB7A002B0A
:100A100001D0022300E00023FB60064B5B6823F05B
:100A200007020449FB6813434B6000BF1437BD46FF
:100A300080BC704700000C400048E8010024F4002E
:100A400080B582B000AF0E4BDB6B002B14BF0123CF
:100A50000023FB710A4B41F67132DA63FFF700FCA9
:100A6000034600211846FFF79FFFFB79002B02D0B9
:100A7000034B0022DA6300BF0837BD4680BD00BFCC
:100A800000000C4080B584B000AF786039600C4B3A
:100A9000DB6B002B14BF01230023FB73084B41F6D3
:100AA0007132DA6339687868FFF77EFFFB7B002BD1
:100AB00002D0034B0022DA6300BF1037BD4680BD71
:100AC00000000C4080B483B000AF7860094B5B6DD0
:100AD00003F00103002B07D100BF064B1A6D7B68A2
:100AE0001340002BF9D100E000BF0C37BD4680BC9D
:100AF000704700BF00800C4080B400AF00BFBD460F
:100B000080BC704780B400AF00BFBD4680BC70475A
:100B100090B585B000AF786039607B681B0903F041
:100B20000F03FB60FB68013B0C2B00F2148101A258
:100B300052F823F0690B0000570D0000570D00001C
:100B40009B0B0000570D0000570D0000E10B00004B
:100B5000310C0000010D0000570D0000570D000082
:100B6000570D0000C10B00003B68002B01D03B6813
:100B7000082BFFF765FF7A4B1B6823F4E0323B68D4
:100B8000013B9B03764913430B60FFF74FFBB860B3
:100B90000021B868FFF776FFDEE03B68002B02D04B
:100BA0003B68B3F5007F3868FFF76CFE38606C4B2C
:100BB0009B6823F00F026A493B6813438B60CBE0CC
:100BC0003868FFF75FFE0346013B3B60644B5B68A0
:100BD00023F480723B681B02614913434B60BBE006
:100BE0003B68002B02D03B68B3F5007FFFF728FF7E
:100BF000FFF71CFB02463B68B2FBF3F31846FFF716
:100C0000A1FE3868FFF73EFE3860554B5B6823F065
:100C10000F0253493B6813434B60FFF707FBB86073
:100C20000021B868FFF72EFFB868FFF78BFE93E04E
:100C30007B684C4A934251D07B684A4A93425DD8C4
:100C40007B68494A93422ED07B68474A934255D8E5
:100C50007B68464A934204D07B68454A934211D050
:100C60004CE00420FFF72EFF3868FFF70BFE3860DA
:100C70003B4B9B6E23F0F0023B681B01384913434A
:100C80008B663CE00420FFF71DFF3868FFF7FAFD94
:100C90003860334B9B6E23F470623B681B02304913
:100CA00013438B662BE03B680F2B01D93B68802BED
:100CB0000420FFF707FF3868FFF7E4FD3860284B92
:100CC0009B6E23F440541020FFF7DCFD02463B6886
:100CD0009B1A1B03224A2343936610E00420FFF76C
:100CE000F1FE3868FFF7CEFD38601D4B9B6E23F098
:100CF00003021B493B6813438B6600E000BF2BE0F7
:100D00007B681C4A934204D07B681B4A934210D0F4
:100D100020E04020FFF7D6FE3868FFF7B3FD3860CB
:100D20000F4B1B6F23F003020D493B6813430B6706
:100D300010E04020FFF7C6FE3868FFF7A3FD3860DB
:100D4000074B1B6F23F030023B681B010449134320
:100D50000B6700BF00E000BF00BF1437BD4690BD69
:100D600000800C4080062E0080002A0080161200B1
:100D70008026160090071A0090171C0080B586B0D8
:100D800000AF78600B46FB7000233B617B681B0A59
:100D900003F00F03013B092B44D801A252F823F0C2
:100DA000DB0D0000E10D0000C90D0000250E000064
:100DB000250E0000E70D0000F10D0000250E0000DB
:100DC000250E0000FB0D0000184B7B61FFF72EFA8B
:100DD00003461846FFF7B6FD12E0154B7B610FE0A6
:100DE000144B7B610CE0144B7B6101233B6107E0FA
:100DF000124B7B6110233B6102E0114B7B6100BF12
:100E00007B681B0B03F01F03FB603B69002B02D0C8
:100E10003869FFF757FEFB781A46F9687869FFF7DB
:100E200003FD00E000BF1837BD4680BD40800C4088
:100E300008800C4044800C4058800C4060800C407E
:100E400078800C4080B588B000AF78600B46FB70AE
:100E50000323FB610323FB7600233B617B6803F0E4
:100E60000F03FB60FB68013B062B00F22A8101A205
:100E700052F823F0910E0000670F0000670F00008A
:100E8000C3100000C31000002D1000005710000018
:100E9000FB78023B082B00F2168101A252F823F0E6
:100EA000C50E0000CF0E0000D90E00001B0F000081
:100EB000C7100000C7100000C7100000C7100000D6
:100EC000C71000000423FB610023FB7631E00323FD
:100ED000FB610123FB762CE00223FB610223FB76FE
:100EE000FFF7F4FC034601331846FFF72BFDFFF72D
:100EF0004DFA0346784A934206D9784B1B68774AE5
:100F000043F06003136014E0744B1B6823F060032C
:100F1000724A43F0200313600BE00123FB610323BB
:100F2000FB76FFF7D3FC034601331846FFF70AFDB3
:100F300000BFFB7E01220121184600F0F1F8FFF707
:100F40007FFDFFF7D9FD654AFB695362FFF76EF934
:100F5000B860B868FFF7F6FC0021B868FFF792FDAB
:100F6000FFF7D0FDB4E0FB78013B092B00F2AD8028
:100F700001A252F823F000BFA10F0000A70F00004C
:100F8000B70F0000CB100000CB100000C70F00000F
:100F9000CB100000CB100000CB100000E30F0000CE
:100FA00000237B6122E001220121002000F0B8F83B
:100FB00002237B611AE001220121012000F0B0F838
:100FC00001237B6112E0FFF731F9B860B868FFF7E1
:100FD000B9FC012204214248FFF726FC03237B6170
:100FE00004E000237B6101233B6100BFFB68022B0F
:100FF0000DD13A4B9B6A23F4803323F003037A69C3
:101000001A433B691B04354913438B6260E0334B41
:101010009B6A23F4801323F00C037A6992001A432D
:101020003B691B052D4913438B6251E0FB78072B6D
:1010300002D0092B07D04BE0284B1B68274A23F02E
:101040008053136006E0254B1B68244A43F080530D
:10105000136000BF3CE0FB78092B26D0092B36DC5F
:10106000022B02D0032B10D031E0012201210020FD
:1010700000F056F8194B40225A6200BF174BDB6A4A
:1010800003F48033002BF9D01AE001220121012062
:1010900000F046F8114B60225A6200BF0F4BDB6A2A
:1010A00003F40033002BF9D00AE00C4B20225A62E3
:1010B00000BF0A4BDB6A03F40043002BF9D000BFEA
:1010C00006E000BF04E000BF02E000BF00E000BF98
:1010D0002037BD4680BD00BF0048E80100800C40BD
:1010E00040800C4080B483B000AF78600B4B9B6DA8
:1010F00003F00803002B0CD17B6803F007037B602F
:10110000064BDB6F23F0070204497B681343CB6770
:1011100000E000BF0C37BD4680BC704700800C402B
:1011200080B586B000AF0346FB710B46BB7113461A
:101130007B71FB79042B48D801A252F823F000BF41
:101140008D1100007F110000631100005511000097
:101150007111000001233B610223FB6001237B61CD
:101160001DE004233B610823FB6003237B6116E041
:1011700010233B612023FB6005237B610FE04023AC
:101180003B618023FB6007237B6108E04FF48073A1
:101190003B614FF40073FB6009237B6100BFBB79A7
:1011A000002B0ED00B4A3B6913627B79002B0DD0CC
:1011B00000BF79690848FFF74FFB0346002BF8D0C2
:1011C00004E0044AFB68136200E000BF1837BD4624
:1011D00080BD00BF00800C402C800C4080B487B0E4
:1011E00000AFF860B9607A60FB6803F1424303F531
:1011F0008013DA00BB6813449B007B617B697A68CB
:101200001A6000BF1C37BD4680BC704780B485B0F3
:1012100000AFF860B9607A60FB681A68BB68DB43AE
:101220001A407B681A43FB681A6000BF1437BD463A
:1012300080BC704780B483B000AF7860044A7B689C
:10124000C2F81C3100BF0C37BD4680BC704700BFE0
:101250000060004080B483B000AF03463960FB718A
:10126000FB79002B0DD0FB79012B0AD0FB79022BE7
:1012700007D0FB79032B04D0FB79042B01D0FB7939
:10128000052B01223B6802FA03F30749FA79184655
:101290001346DB0013449B000B441433186000BF5B
:1012A0000C37BD4680BC70470060004080B483B0FE
:1012B00000AF03463960FB71FB79002B0DD0FB7941
:1012C000012B0AD0FB79022B07D0FB79032B04D02A
:1012D000FB79042B01D0FB79052B01223B6802FA34
:1012E00003F30749FA7918461346DB0013449B00C1
:1012F0000B441033186000BF0C37BD4680BC7047EC
:101300000060004080B586B000AFB9607A601A46D0
:101310000346FB731346BB7300237B61FB7B002BEF
:101320000DD0FB7B012B0AD0FB7B022B07D0FB7B74
:10133000032B04D0FB7B042B01D0FB7B052B7B68AC
:10134000072B0ED87B689B00072202FA03F1FA7B79
:101350007B689B0002FA03F31A461A48FFF756FF10
:1013600010E07B68083B7B617B699B00072202FAE7
:1013700003F1FA7B7B699B0002FA03F31A461248D9
:10138000FFF744FFBB7B1A4679681048FFF726FF3A
:1013900097F820301A4679680D48FFF71FFF0122A1
:1013A0007B6802FA03F31846FFF744FF97F82430EE
:1013B0001A4679680748FFF711FF00BF1837BD4686
:1013C00080BD00BF00610040046100400861004032
:1013D0000C6100401061004080B584B000AFB9607E
:1013E0007B600346FB731346BB73FB7B002B0DD066
:1013F000FB7B012B0AD0FB7B022B07D0FB7B032B53
:1014000004D0FB7B042B01D0FB7B052BBB7B002B8B
:101410000DD07B68002B05D0FB7BB9681846FFF721
:1014200045FF04E0FB7BB9681846FFF713FFBB6874
:10143000072B20D82B49FA7B1346DB0013449B0073
:101440000B4404331A68BB689B000F2101FA03F3B5
:10145000DB431340B97BBA68920001FA02F21146ED
:101460002048FA7B19431346DB0013449B000344D6
:101470000433196021E01B49FA7B1346DB00134457
:101480009B000B4408331A68BB68083B9B000F2184
:1014900001FA03F3DB431340B97BBA68083A9200C0
:1014A00001FA02F211460F48FA7B19431346DB009A
:1014B00013449B00034408331960BB7B002B0DD100
:1014C0007B68002B05D0FB7BB9681846FFF7EEFE62
:1014D00004E0FB7BB9681846FFF7BCFE00BF10377D
:1014E000BD4680BD0060004080B483B000AF0346BD
:1014F000FB71FB79002B06D0084B1B68074A43F0B1
:101500000103136005E0054B1B68044A23F0010347
:10151000136000BF0C37BD4680BC704700A0084078
:1015200080B483B000AF0346FB71FB79002B06D07B
:10153000084BDB68074A43F00403D36005E0054B22
:10154000DB68044A23F00403D36000BF0C37BD46B8
:1015500080BC704700A0084080B483B000AF034651
:10156000FB71FB79002B06D0084BDB68074A43F47C
:101570008073D36005E0054BDB68044A23F4807375
:10158000D36000BF0C37BD4680BC704700A0084048
:1015900080B487B000AFF860B9607A60FB6803F18F
:1015A000424303F58013DA00BB6813449B007B6160
:1015B0007B697A681A6000BF1C37BD4680BC7047E3
:1015C00080B584B000AF78601A4B5B68FB60002088
:1015D000FFF78AFFFB6823F4830323F01F03FB60FC
:1015E0007B685B68FA681343FB607B681B7A1A466A
:1015F000FB681343FB607B685B7A1A46FB68134306
:10160000FB607B68DB68FA681343FB607B681B8ABE
:101610001A46FB681343FB60064AFB6853607B680D
:101620001B78002B02D00120FFF75EFF00BF1037B0
:10163000BD4680BD00A0084080B485B000AF786092
:101640000E4B5B68FB60FB6823F48033FB607B68B8
:10165000002B08D07B68B3F5803F06D1FB6843F4CC
:101660008033FB6002E000BF00E000BF034AFB687C
:10167000536000BF1437BD4680BC704700A00840CF
:1016800080B584B000AF78600E4BDB68FB60FB6810
:1016900023F47F03FB607B685B689B04FA68134359
:1016A000FB607B689B68FA681343FB60054AFB6834
:1016B000D3607B681B781846FFF74EFF00BF1037DA
:1016C000BD4680BD00A0084080B584B000AF786002
:1016D0001E4BDB68FB601D4A7B685B6853611B4ADD
:1016E0007B68DB689361FB6823F0F803FB607B6831
:1016F0001B7ADB00FA681343FB607B681B7C5B0191
:10170000FA681343FB607B685B7C1A46FB681343F3
:10171000FB60FB6823F08053FB607B685B69002BF8
:1017200007D07B685B69082B03D1FB6843F08053CB
:10173000FB60064AFB68D3607B681B781846FFF79E
:10174000EFFE00BF1037BD4680BD00BF00A00840BF
:1017500080B483B000AF03460A46FB8013467B711A
:101760007B79002B06D0094B9A68FB880749134305
:101770008B6006E0054B9A68FB88DB430349134006
:101780008B6000BF0C37BD4680BC704700A008408E
:1017900080B584B000AFF860B9601346FB71FB6898
:1017A000072B00F2B38001A252F823F0CD170000FE
:1017B000F51700001D180000451800006D18000006
:1017C00095180000BD180000E5180000BB681F2B2D
:1017D00006DCBB68FA7919464F48FFF7D9FE96E058
:1017E000BB68203BBB60BB68FA7919464B48FFF7E2
:1017F000CFFE8CE0BB681F2B06DCBB68FA7919466C
:101800004748FFF7C5FE82E0BB68203BBB60BB6872
:10181000FA7919464348FFF7BBFE78E0BB681F2BF7
:1018200006DCBB68FA7919463F48FFF7B1FE6EE067
:10183000BB68203BBB60BB68FA7919463B48FFF7A1
:10184000A7FE64E0BB681F2B06DCBB68FA7919466B
:101850003748FFF79DFE5AE0BB68203BBB60BB6882
:10186000FA7919463348FFF793FE50E0BB681F2B07
:1018700006DCBB68FA7919462F48FFF789FE46E077
:10188000BB68203BBB60BB68FA7919462B48FFF761
:101890007FFE3CE0BB681F2B06DCBB68FA7919466B
:1018A0002748FFF775FE32E0BB68203BBB60BB6892
:1018B000FA7919462348FFF76BFE28E0BB681F2B17
:1018C00006DCBB68FA7919461F48FFF761FE1EE087
:1018D000BB68203BBB60BB68FA7919461B48FFF721
:1018E00057FE14E0BB681F2B06DCBB68FA7919466B
:1018F0001748FFF74DFE0AE0BB68203BBB60BB68A2
:10190000FA7919461348FFF743FE00E000BF00BF15
:101910001037BD4680BD00BF40A0084050A0084021
:1019200044A0084054A0084048A0084058A00840DF
:101930004CA008405CA00840CCA00840B4A00840DF
:10194000D0A00840B8A00840D4A00840BCA00840DF
:10195000D8A00840C0A0084080B487B000AFF860AD
:10196000B9607A60FB68072B00F2AC8001A252F8E4
:1019700023F000BF95190000B9190000DD1900001F
:10198000011A0000251A00004D1A0000751A000007
:101990009D1A00004E4B1B6C7B61BB68DB437A6970
:1019A00013407B61BA687B6813407A6913437B619B
:1019B000474A7B69136486E0454B5B6C7B61BB687F
:1019C000DB437A6913407B61BA687B6813407A69AC
:1019D00013437B613E4A7B69536474E03C4B9B6CD0
:1019E0007B61BB68DB437A6913407B61BA687B68C3
:1019F00013407A6913437B61354A7B69936462E0E3
:101A0000334BDB6C7B61BB68DB437A6913407B61E2
:101A1000BA687B6813407A6913437B612C4A7B69FF
:101A2000D36450E02A4BD3F8CC307B61BB68DB43F6
:101A30007A6913407B61BA687B6813407A69134303
:101A40007B61234A7B69C2F8CC303CE0204BD3F861
:101A5000D0307B61BB68DB437A6913407B61BA6835
:101A60007B6813407A6913437B61194A7B69C2F82A
:101A7000D03028E0164BD3F8D4307B61BB68DB4311
:101A80007A6913407B61BA687B6813407A691343B3
:101A90007B610F4A7B69C2F8D43014E00C4BD3F859
:101AA000D8307B61BB68DB437A6913407B61BA68DD
:101AB0007B6813407A6913437B61054A7B69C2F8EE
:101AC000D83000E000BF00BF1C37BD4680BC704767
:101AD00000A0084080B487B000AFF860B9607A60B9
:101AE000FB68072B00F2AC8001A252F823F000BF84
:101AF000111B0000351B0000591B00007D1B00005E
:101B0000A11B0000C91B0000F11B0000191C0000F4
:101B10004E4B1B6D7B61BB68DB437A6913407B6175
:101B2000BA687B6813407A6913437B61474A7B69D3
:101B3000136586E0454B5B6D7B61BB68DB437A696F
:101B400013407B61BA687B6813407A6913437B61F9
:101B50003E4A7B69536574E03C4B9B6D7B61BB687F
:101B6000DB437A6913407B61BA687B6813407A690A
:101B700013437B61354A7B69936562E0334BDB6DD0
:101B80007B61BB68DB437A6913407B61BA687B6821
:101B900013407A6913437B612C4A7B69D36550E01B
:101BA0002A4BD3F8B4307B61BB68DB437A691340BE
:101BB0007B61BA687B6813407A6913437B61234A6F
:101BC0007B69C2F8B4303CE0204BD3F8B8307B617D
:101BD000BB68DB437A6913407B61BA687B6813405A
:101BE0007A6913437B61194A7B69C2F8B83028E0EF
:101BF000164BD3F8BC307B61BB68DB437A6913407A
:101C00007B61BA687B6813407A6913437B610F4A32
:101C10007B69C2F8BC3014E00C4BD3F8C0307B6158
:101C2000BB68DB437A6913407B61BA687B68134009
:101C30007A6913437B61054A7B69C2F8C03000E0D2
:101C400000BF00BF1C37BD4680BC704700A00840E5
:101C500080B483B000AF7860064B5B6823F4E01279
:101C600004497B6813434B6000BF0C37BD4680BC02
:101C7000704700BF00A0084080B487B000AFF86094
:101C8000B9607A60FB6803F1424303F58013DA0020
:101C9000BB6813449B007B617B697A681A6000BF54
:101CA0001C37BD4680BC704780B485B000AF7860FB
:101CB00039607B68002B03D07B68012B03D008E0E0
:101CC000064BFB6002E0064BFB6000BFFB683A6816
:101CD0001A601437BD4680BC704700BF080008403A
:101CE0000C00084080B582B000AF0346FB71FB7961
:101CF0001A4600210348FFF7BFFF00BF0837BD4663
:101D000080BD00BF0000084080B485B000AF78609F
:101D10007B681B78002B02D00123FB6001E00023CD
:101D2000FB607B685B78002B03D0FB6843F0020309
:101D3000FB607B689B78002B03D0FB6843F00403B7
:101D4000FB60044AFB68136000BF1437BD4680BCCB
:101D5000704700BF0000084080B485B000AF7860D5
:101D60001A4B5B69DBB29B00DBB203F03C03FB73F5
:101D7000164B1B699B09DBB203F00303DAB2FB7B52
:101D80001343FB737B68FA7B9A70104B1B69DBB2C1
:101D900003F03F03DAB27B685A700C4B9B691B0956
:101DA000DBB21B01FB73094BDB691B09DBB203F0E0
:101DB0000F03DAB2FB7B1343FB737B68FA7B1A7069
:101DC00000BF1437BD4680BC704700BFD0FF0FE096
:101DD00080B483B000AF0346FB7197F90730002B46
:101DE0000BDBFB7903F01F02064997F907305B090B
:101DF000012000FA02F241F8232000BF0C37BD4653
:101E000080BC704700E100E080B400AF034BDB6CA6
:101E10001B0EDBB21846BD4680BC7047B081E00F98
:101E200080B483B000AF7860044A7B68C2F81C318C
:101E300000BF0C37BD4680BC704700BF006000404B
:101E400080B400AF034BD3F814311846BD4680BCB4
:101E5000704700BF0060004080B483B000AF03460D
:101E60003960FB71FB79002B0DD0FB79012B0AD077
:101E7000FB79022B07D0FB79032B04D0FB79042BD1
:101E800001D0FB79052B01223B6802FA03F30749D5
:101E9000FA7918461346DB0013449B000B441033B9
:101EA000186000BF0C37BD4680BC70470060004022
:101EB00080B582B000AF0E4B01221A64FFF7A4FF79
:101EC0000346FB713B1D1846FFF746FFFB790F2BBE
:101ED0000AD93B79022B07D9064B1B6823F0500324
:101EE000044A43F01003136000BF0837BD4680BDAD
:101EF00000000C40C0800C4080B483B000AF78601C
:101F0000034A7B68936100BF0C37BD4680BC7047B5
:101F10000000084080B483B000AF7860054BDA69F8
:101F200004497B681343CB6100BF0C37BD4680BCBE
:101F3000704700BF0000084080B500AF0220FFF7E7
:101F4000DBFF0F4B1B68013B0D4A13600C4B1B68FA
:101F5000002B12D10A4B3B221A600A4B1B68013B33
:101F6000084A1360074B1B68002B06D10020FFF7BF
:101F7000B9FE02210220FFF76FFF00BF80BD00BF46
:101F8000100000200C00002080B582B002AF0121BB
:101F90002048FEF7F3FE0123032209210120FFF769
:101FA0001BFA012303220A210120FFF715FA01235E
:101FB000032207210220FFF70FFA00230422022147
:101FC0000220FFF709FA0120FFF702FF0B20FFF7BD
:101FD000FFFE01230193012300930023092209211D
:101FE0000120FFF78FF901230193012300930023C0
:101FF0000A220A210120FFF785F901230193012319
:1020000000930023072207210220FFF77BF900BF7E
:10201000BD4680BD00D2040080B582B000AFFFF79E
:102020000FFF03467B607B681846FFF7F9FE084BFD
:102030001B680133064A1360054B1B683B2B02D912
:10204000034B00221A6000BF0837BD4680BD00BFA9
:102050001000002080B582B000AFFFF7F1FE03460C
:102060007B607B68B3F5007F0BD10D4B1B680133A0
:102070000B4A13600A4B1B683B2B02D9084B00220A
:102080001A607B68802B02D10120FFF72BFE7B6852
:102090001846FFF7C5FE00BF0837BD4680BD00BF2C
:1020A0000C00002080B582B000AF144A3B1D1268BE
:1020B000114619800233120C1A7020211048FEF7C5
:1020C00027FD01210E48FEF759FE00233B71002336
:1020D0007B710123BB713B1D1846FFF715FE40F2D3
:1020E000FF310020FFF7E0FD1E20FFF771FE022008
:1020F000FFF710FF00BF0837BD4680BD7024000009
:102100008016120080B58AB000AF01210820FEF7CA
:10211000FFFA01233B770F233B6200237B6207F129
:102120001C031846FFF7ACFA01233B710023BB6088
:102130000F233B6101233B7301233B7580237B7598
:102140000823BB613B1D1846FFF7BEFA00BF2837C6
:10215000BD4680BD80B500AFFFF7AAFE0B4B1B78D4
:102160001846FEF7BDF9FFF70FFFFFF79BFFFFF7DC
:10217000C9FF074B1B68642203FB02F2054B1B6877
:1021800013441846FEF708FAF3E700BF38000020B2
:102190000C000020100000200028B8BF404270470B
:1021A00008B5064B044613B10021AFF30080044B81
:1021B0001B6803B19847204600F030F8000000008B
:1021C0003C00002003460244934200D1704703F8CC
:1021D000011BF9E770B500260C4D0D4C641BA410D3
:1021E000A64209D100F01CF800260A4D0A4C641BD7
:1021F000A410A64205D170BD55F8043B984701369E
:10220000EEE755F8043B98470136F2E7140000204A
:10221000140000201400002018000020FEE700BF7A
:10222000F8B500BFF8BC08BC9E467047F8B500BFC3
:10223000F8BC08BC9E46704701010507070304026D
:102240000302040605060D0E0E0E0D0D0D0D0E0EED
:102250000E0E0D0D0101050707030402030204061B
:1022600005060F1010100F0F0F0F101010100F0F8A
:102270000101050707030402030204060506111203
:10228000121211111111121212121111010105076E
:1022900007030402030204060506131C1C1C131387
:1022A00013131C1C1C1C1313000105070602030159
:1022B0000302040604051D1E1E1E1D1D1D1D1E1EDF
:1022C0001E1E1D1D00010507060203010302040670
:1022D00004051F2020201F1F1F1F202020201F1F3C
:1022E0000101050707030402030204060506212273
:1022F000222221212121222222222121070502013D
:1023000003060423232323232323070502010306B3
:10231000042424242424242407050201030604257C
:102320002525252525250705020103060426262641
:102330002626262600010702062727272727000032
:10234000000000000000131211100F0E0D0C000011
:1023500000002125242601010304040203020D0EBE
:102360000D0D0E0D0E0E01010304040203020F10E9
:102370000F0F100F101001010304040203021112C9
:102380001111121112120101030404020302131CA1
:1023900013131C131C1C00010203040103021D1E65
:1023A0001D1D1E1D1E1E00010203040103021F202D
:1023B0001F1F201F20200101030404020302212209
:1023C00021212221222205070704040605060E0EFC
:1023D0000D0D0E0E0D0D0507070404060506101061
:1023E0000F0F10100F0F0507070404060506121241
:1023F00011111212111105070704040605061C1C11
:1024000013131C1C131305070603040604051E1EE4
:102410001D1D1E1E1D1D05070603040604052020A4
:102420001F1F20201F1F0507070404060506222280
:1024300021212222212100003F0006005B004F00E5
:1024400066006D007D0007007F006F0077007C0054
:1024500039005E00790071004000000001000000BA
:10246000030040000C00000000000000000000001D
:08247000010001000000000062
:08247800F0DCFF7F0100000011
:10248000006CDC0200800000809FD5001E00000070
:0C24900037000000450100001D010000A5
:04000003000001E513
:00000001FF
