:1000000000000220E50100001102000011020000C2
:100010001102000011020000110200001102000094
:100020001102000011020000110200001102000084
:100030001102000010020000110200001102000075
:1000400011020000DD0A0000110200001102000090
:100050001102000011020000110200001102000054
:10006000110200001102000011020000030B000049
:100070001102000011020000110200001102000034
:100080001102000011020000110200001102000024
:100090001102000011020000110200001102000014
:1000A0001102000011020000110200001102000004
:1000B00011020000110200001102000011020000F4
:1000C00011020000110200001102000011020000E4
:1000D0001102000011020000110200000348044B4D
:1000E000834202D0034B03B118477047140000202D
:1000F00014000020000000000548064B1B1AD90F11
:1001000001EBA301491002D0034B03B1184770471C
:1001100014000020140000200000000010B5064C60
:10012000237843B9FFF7DAFF044B13B10448AFF368
:1001300000800123237010BD140000200000000087
:10014000D00B000008B5054B1BB105490548AFF3BE
:100150000080BDE80840FFF7CFBF00BF00000000EF
:1001600018000020D00B0000A3F5803A704700BFB4
:10017000174B002B08BF134B9D46FFF7F5FF0021DF
:100180008B460F461348144A121A00F0E7FC0E4B38
:10019000002B00D098470D4B002B00D09847002033
:1001A000002104000D000D48002802D00C48AFF3D8
:1001B000008000F0DBFC2000290000F0B5FC00F01E
:1001C000BBFC00BF000008000000000000000000B1
:1001D0000000022014000020340000200000000075
:1001E00000000000064880470649074A074B9A422C
:1001F000BEBF51F8040B42F8040BF8E7FFF7B8FF55
:1002000079030000DC0B0000000000201400002037
:10021000FEE700BF80B400AF034BDB6C1B0EDBB20C
:100220001846BD4680BC7047B081E00F80B582B0F3
:1002300000AF00F015F87860074B5B6803F00F0320
:100240007A6822FA03F37B60044A7B6813607B6858
:1002500018460837BD4680BD00800C4008000020CD
:1002600080B582B000AF394BDB6A03F47053B3F54D
:10027000005F09D0B3F5005F12D8B3F5006F0BD063
:10028000B3F5805F04D00BE0314B1B687B604FE01F
:100290004FF400437B604BE02E4B1B687B6047E0D4
:1002A0002A4BDB6803F4E063B3F5A06F1AD0B3F513
:1002B000A06F39D8B3F5806F17D0B3F5806F33D8FE
:1002C000B3F5407F14D0B3F5407F2DD8B3F5007F50
:1002D00011D0B3F5007F27D8002B1AD0B3F5807F5B
:1002E0000CD021E01C4B7B6021E01C4B7B601EE0AE
:1002F0001B4B7B601BE01B4B7B6018E0FFF78AFF0A
:100300000346122B02D9184B7B6010E0174B7B6021
:100310000DE0FFF77FFF0346122B02D9144B7B60E1
:1003200005E0144B7B6002E000237B6000BF00BF50
:10033000064B1B689B0B03F0070301337A68B2FB83
:10034000F3F318460837BD4680BD00BF00800C405F
:100350000400002000000020003FAB01406F40017E
:10036000809FD500C0D8A70040B56400C0CF6A0008
:10037000804F120040420F0080B400AF034B044A8C
:100380009A6000BFBD4680BC704700BF00ED00E032
:100390000000000080B487B000AFF860B9607A60F8
:1003A000FB6803F1424303F58013DA00BB68134492
:1003B0009B007B617B697A681A6000BF1C37BD4671
:1003C00080BC704780B400AF034BDB6C1B0CDBB20E
:1003D0001846BD4680BC7047B081E00F80B582B042
:1003E00000AFFFF7EFFF0346792B05D0792B26DC12
:1003F000482B22D04A2B22D1134B1B699BB21B02E4
:100400009BB203F47C53FB800F4B9B6903F0F0031A
:100410009AB2FB881343FB800B4BDB691B0903F08B
:100420000F039AB2FB881343FB80FB88B3F5017F6F
:1004300001D3064B04E0064B02E0054B00E000232D
:1004400018460837BD4680BDD0FF0FE000366E016C
:100450000048E80180B584B000AF78600123FB60FC
:10046000FFF7BCFF02467B68934204D80023FB6081
:100470000023BB600BE0FFF7B1FF03465B007A6827
:100480009A4202D80123BB6001E00223BB60FA68F4
:100490001E210848FFF77EFF064B5B6823F480723D
:1004A000BB681B02034913434B6000BF1037BD46B6
:1004B00080BD00BF00800C4080B483B000AF786086
:1004C000094B5B6D03F00103002B07D100BF064B06
:1004D0001A6D7B681340002BF9D100E000BF0C3788
:1004E000BD4680BC704700BF00800C4080B586B020
:1004F00000AF78600B46FB7000233B617B681B0AF2
:1005000003F00F03013B092B44D801A252F823F05A
:100510004B0500005105000039050000950500005D
:1005200095050000570500006105000095050000D5
:10053000950500006B050000184B7B61FFF776FE08
:1005400003461846FFF786FF12E0154B7B610FE06C
:10055000144B7B610CE0144B7B6101233B6107E092
:10056000124B7B6110233B6102E0114B7B6100BFAA
:100570007B681B0B03F01F03FB603B69002B02D061
:100580003869FFF799FFFB781A46F9687869FFF731
:1005900001FF00E000BF1837BD4680BD40800C4021
:1005A00008800C4044800C4058800C4060800C4017
:1005B00078800C4080B487B000AFF860B9607A6092
:1005C000FB6803F1424303F58013DA00BB68134470
:1005D0009B007B617B697A681A6000BF1C37BD464F
:1005E00080BC704780B485B000AFF860B9607A60B5
:1005F000FB681A68BB68DB431A407B681A43FB68D8
:100600001A6000BF1437BD4680BC704780B483B009
:1006100000AF7860044A7B68C2F81C3100BF0C3719
:10062000BD4680BC704700BF0060004080B483B00E
:1006300000AF03463960FB71FB79002B0DD0FB79CD
:10064000012B0AD0FB79022B07D0FB79032B04D0B6
:10065000FB79042B01D0FB79052B01223B6802FAC0
:1006600003F30749FA7918461346DB0013449B004D
:100670000B441433186000BF0C37BD4680BC704774
:100680000060004080B483B000AF03463960FB7166
:10069000FB79002B0DD0FB79012B0AD0FB79022BC3
:1006A00007D0FB79032B04D0FB79042B01D0FB7915
:1006B000052B01223B6802FA03F30749FA79184631
:1006C0001346DB0013449B000B441033186000BF3B
:1006D0000C37BD4680BC70470060004080B586B0D6
:1006E00000AFB9607A601A460346FB731346BB73CA
:1006F00000237B61FB7B002B0DD0FB7B012B0AD001
:10070000FB7B022B07D0FB7B032B04D0FB7B042B52
:1007100001D0FB7B052B7B68072B0ED87B689B00E9
:10072000072202FA03F1FA7B7B689B0002FA03F3CB
:100730001A461A48FFF756FF10E07B68083B7B61BA
:100740007B699B00072202FA03F1FA7B7B699B001D
:1007500002FA03F31A461248FFF744FFBB7B1A461E
:1007600079681048FFF726FF97F820301A46796815
:100770000D48FFF71FFF01227B6802FA03F31846BA
:10078000FFF744FF97F824301A4679680748FFF7C7
:1007900011FF00BF1837BD4680BD00BF006100409B
:1007A00004610040086100400C610040106100409D
:1007B00080B584B000AFB9607B600346FB7313461D
:1007C000BB73FB7B002B0DD0FB7B012B0AD0FB7B8B
:1007D000022B07D0FB7B032B04D0FB7B042B01D027
:1007E000FB7B052BBB7B002B0DD07B68002B05D042
:1007F000FB7BB9681846FFF745FF04E0FB7BB9684F
:100800001846FFF713FFBB68072B20D82B49FA7B4C
:100810001346DB0013449B000B4404331A68BB6887
:100820009B000F2101FA03F3DB431340B97BBA6845
:10083000920001FA02F211462048FA7B194313464E
:10084000DB0013449B0003440433196021E01B497F
:10085000FA7B1346DB0013449B000B4408331A68F1
:10086000BB68083B9B000F2101FA03F3DB431340F5
:10087000B97BBA68083A920001FA02F211460F48B1
:10088000FA7B19431346DB0013449B0003440833EF
:100890001960BB7B002B0DD17B68002B05D0FB7B47
:1008A000B9681846FFF7EEFE04E0FB7BB96818460E
:1008B000FFF7BCFE00BF1037BD4680BD00600040A2
:1008C00080B485B000AF78601A4B5B69DBB29B00E7
:1008D000DBB203F03C03FB73164B1B699B09DBB2D5
:1008E00003F00303DAB2FB7B1343FB737B68FA7BF1
:1008F0009A70104B1B69DBB203F03F03DAB27B68DE
:100900005A700C4B9B691B09DBB21B01FB73094B33
:10091000DB691B09DBB203F00F03DAB2FB7B134385
:10092000FB737B68FA7B1A7000BF1437BD4680BC2E
:10093000704700BFD0FF0FE080B483B000AF034624
:10094000FB7197F90730002B0BDBFB7903F01F02DB
:10095000064997F907305B09012000FA02F241F8D5
:10096000232000BF0C37BD4680BC704700E100E08B
:1009700080B483B000AF7860044A7B68C2F81C3151
:1009800000BF0C37BD4680BC704700BF0060004010
:1009900080B400AF034BD3F814311846BD4680BC79
:1009A000704700BF0060004080B483B000AF0346D2
:1009B0003960FB71FB79002B0DD0FB79012B0AD03C
:1009C000FB79022B07D0FB79032B04D0FB79042B96
:1009D00001D0FB79052B01223B6802FA03F307499A
:1009E000FA7918461346DB0013449B000B44183376
:1009F000186000BF0C37BD4680BC704700600040E7
:100A000080B400AF034BDB6C1B0EDBB21846BD4657
:100A100080BC7047B081E00F80B582B000AF0E4B54
:100A200001221A64FFF7ECFF0346FB713B1D1846D9
:100A3000FFF746FFFB790F2B0AD93B79022B07D929
:100A4000064B1B6823F05003044A43F01003136065
:100A500000BF0837BD4680BD00000C40C0800C4080
:100A600080B582B002AF01211B48FFF73FFD002394
:100A7000042202210420FFF79BFE0023042203210D
:100A80000420FFF795FE0123032209210120FFF72F
:100A90008FFE012303220A210120FFF789FE012096
:100AA000FFF74AFF0B20FFF747FF012301930123C4
:100AB00000930023092209210120FFF70FFE0123E3
:100AC00001930123009300230A220A210120FFF74A
:100AD00005FE00BFBD4680BD00D2040080B582B0D7
:100AE00000AFFFF755FF03467B607B681846FFF7B2
:100AF0003FFF02210420FFF757FF00BF0837BD4624
:100B000080BD80B582B000AFFFF742FF03467B6037
:100B10007B681846FFF72CFF03210420FFF744FFF2
:100B200000BF0837BD4680BD80B500AFFFF774FF3A
:100B3000FFF796FF00BFFDE708B5064B044613B16B
:100B40000021AFF30080044B1B6803B19847204697
:100B500000F030F80000000030000020034602449E
:100B6000934200D1704703F8011BF9E770B50026E6
:100B70000C4D0D4C641BA410A64209D100F01CF8CA
:100B800000260A4D0A4C641BA410A64205D170BD74
:100B900055F8043B98470136EEE755F8043B984773
:100BA0000136F2E70C0000200C0000200C000020B1
:100BB00010000020FEE700BFF8B500BFF8BC08BC7D
:100BC0009E467047F8B500BFF8BC08BC9E4670470B
:040BD0000000000021
:080BD40094F5FF7F0100000011
:100BDC00006CDC0200800000809FD5004501000005
:040BEC001D010000E7
:04000003000001E513
:00000001FF
