:1000000000000220C90400000B05000009050000E3
:100010000B0500000B0500000B0500000B050000A0
:100020000B0500000B0500000B0500000B05000090
:100030000B0500000A0500000B0500000B05000081
:100040000B0500000B0500000B0500000B05000070
:100050000B0500000B0500000B0500000B05000060
:100060000B0500000B0500000B050000F12B000044
:100070000B0500000B0500000B0500000B05000040
:100080000B0500000B0500000B0500000B05000030
:100090000B0500000B0500000B0500000B05000020
:1000A0000B0500000B0500000B0500000B05000010
:1000B0000B0500000B0500000B0500000B05000000
:1000C0000B0500000B0500000B0500000B050000F0
:1000D0000B0500000B0500000B05000000000000F0
:1000E0000000000000000000000000000000000010
:1000F0000000000000000000000000000000000000
:1001000000000000000000000000000000000000EF
:1001100000000000000000000000000000000000DF
:1003C0000348044B834202D0034B03B118477047E4
:1003D0001400002014000020000000000548064B17
:1003E0001B1AD90F01EBA301491002D0034B03B133
:1003F000184770471400002014000020000000007F
:1004000010B5064C237843B9FFF7DAFF044B13B15C
:100410000448AFF300800123237010BD14000020B6
:1004200000000000F840000008B5054B1BB105496D
:100430000548AFF30080BDE80840FFF7CFBF00BF1D
:100440000000000018000020F8400000A3F5803AEA
:10045000704700BF174B002B08BF134B9D46FFF79B
:10046000F5FF00218B460F461348144A121A03F079
:1004700059FC0E4B002B00D098470D4B002B00D0A1
:1004800098470020002104000D000D48002802D0EC
:100490000C48AFF3008003F04DFC2000290002F06F
:1004A000AFFC03F02DFC00BF0000080000000000BE
:1004B0000000000000000220140000203C0000208A
:1004C000000000000000000000F0EEF80F4C104D9E
:1004D000AC420ADA21686268A3689B00043BA2BFB1
:1004E000C858D050FAE70C34F2E70A4B0A4CA34242
:1004F00008DA19685A680020043AA4BF8850FBE75C
:100500000833F4E7FFF7A6FFFEE7FEE7944100009B
:10051000A0410000A0410000A041000080B400AF55
:10052000034BDB6C1B0EDBB21846BD4680BC70472C
:10053000B081E00F80B582B000AF00F01FF87860A6
:10054000074B5B6803F00F037A6822FA03F37B60C2
:10055000044A7B6813607B6818460837BD4680BD37
:1005600000800C400800002080B400AF024B184609
:10057000BD4680BC704700BF006CDC0280B582B015
:1005800000AF394BDB6A03F47053B3F5005F09D059
:10059000B3F5005F12D8B3F5006F0BD0B3F5805FF1
:1005A00004D00BE0314B1B687B604FE04FF40043FD
:1005B0007B604BE02E4B1B687B6047E02A4BDB687F
:1005C00003F4E063B3F5A06F1AD0B3F5A06F39D888
:1005D000B3F5806F17D0B3F5806F33D8B3F5407F94
:1005E00014D0B3F5407F2DD8B3F5007F11D0B3F50B
:1005F000007F27D8002B1AD0B3F5807F0CD021E0E4
:100600001C4B7B6021E01C4B7B601EE01B4B7B6026
:100610001BE01B4B7B6018E0FFF780FF0346122BAB
:1006200002D9184B7B6010E0174B7B600DE0FFF7A1
:1006300075FF0346122B02D9144B7B6005E0144B67
:100640007B6002E000237B6000BF00BF064B1B689D
:100650009B0B03F0070301337A68B2FBF3F31846F0
:100660000837BD4680BD00BF00800C40040000205C
:1006700000000020003FAB01406F4001809FD5008B
:10068000C0D8A70040B56400C0CF6A00804F1200F8
:1006900040420F0080B400AF024B1B681846BD46B5
:1006A00080BC70470000002080B400AF034B044AB8
:1006B0009A6000BFBD4680BC704700BF00ED00E0FF
:1006C0000000000080B400AF4FF400431846BD4660
:1006D00080BC704780B400AF4FF47A731846BD46B3
:1006E00080BC704780B400AF024B1B681846BD4603
:1006F00080BC70470400002080B483B000AF034684
:10070000FB71FB79002B06D0084B1B68074A43F0AE
:100710000103136005E0054B1B68044A23F0010345
:10072000136000BF0C37BD4680BC704700A0084076
:1007300080B487B000AFF860B9607A60FB6803F1FD
:10074000424303F58013DA00BB6813449B007B61CE
:100750007B697A681A6000BF1C37BD4680BC704751
:1007600080B584B000AF78601A4B5B68FB600020F6
:10077000FFF7C2FFFB6823F4830323F01F03FB6032
:100780007B685B68FA681343FB607B681B7A1A46D8
:10079000FB681343FB607B685B7A1A46FB68134374
:1007A000FB607B68DB68FA681343FB607B681B8A2D
:1007B0001A46FB681343FB60064AFB6853607B687C
:1007C0001B78002B02D00120FFF796FF00BF1037E7
:1007D000BD4680BD00A0084080B485B000AF786001
:1007E0000E4B5B68FB60FB6823F48033FB607B6827
:1007F000002B08D07B68B3F5803F06D1FB6843F43B
:100800008033FB6002E000BF00E000BF034AFB68EA
:10081000536000BF1437BD4680BC704700A008403D
:1008200080B483B000AF03460A46FB8013467B7159
:100830007B79002B06D0094B9A68FB880749134344
:100840008B6006E0054B9A68FB88DB430349134045
:100850008B6000BF0C37BD4680BC704700A00840CD
:1008600080B584B000AFF860B9601346FB71FB68D7
:10087000072B00F2B38001A252F823F09D0800007C
:10088000C5080000ED080000150900003D09000042
:10089000650900008D090000B5090000BB681F2B29
:1008A00006DCBB68FA7919464F48FFF741FF96E02E
:1008B000BB68203BBB60BB68FA7919464B48FFF721
:1008C00037FF8CE0BB681F2B06DCBB68FA79194642
:1008D0004748FFF72DFF82E0BB68203BBB60BB6849
:1008E000FA7919464348FFF723FF78E0BB681F2BCE
:1008F00006DCBB68FA7919463F48FFF719FF6EE03E
:10090000BB68203BBB60BB68FA7919463B48FFF7E0
:100910000FFF64E0BB681F2B06DCBB68FA79194641
:100920003748FFF705FF5AE0BB68203BBB60BB6858
:10093000FA7919463348FFF7FBFE50E0BB681F2BDE
:1009400006DCBB68FA7919462F48FFF7F1FE46E04E
:10095000BB68203BBB60BB68FA7919462B48FFF7A0
:10096000E7FE3CE0BB681F2B06DCBB68FA79194642
:100970002748FFF7DDFE32E0BB68203BBB60BB6869
:10098000FA7919462348FFF7D3FE28E0BB681F2BEE
:1009900006DCBB68FA7919461F48FFF7C9FE1EE05E
:1009A000BB68203BBB60BB68FA7919461B48FFF760
:1009B000BFFE14E0BB681F2B06DCBB68FA79194642
:1009C0001748FFF7B5FE0AE0BB68203BBB60BB6879
:1009D000FA7919461348FFF7ABFE00E000BF00BFED
:1009E0001037BD4680BD00BF40A0084050A0084061
:1009F00044A0084054A0084048A0084058A008401F
:100A00004CA008405CA00840CCA00840B4A008401E
:100A1000D0A00840B8A00840D4A00840BCA008401E
:100A2000D8A00840C0A0084080B487B000AFF860EC
:100A3000B9607A60FB68072B00F2AC8001A252F823
:100A400023F000BF650A0000890A0000AD0A00001B
:100A5000D10A0000F50A00001D0B0000450B000044
:100A60006D0B00004E4B1B6C7B61BB68DB437A69EE
:100A700013407B61BA687B6813407A6913437B61DA
:100A8000474A7B69136486E0454B5B6C7B61BB68BE
:100A9000DB437A6913407B61BA687B6813407A69EB
:100AA00013437B613E4A7B69536474E03C4B9B6C0F
:100AB0007B61BB68DB437A6913407B61BA687B6802
:100AC00013407A6913437B61354A7B69936462E022
:100AD000334BDB6C7B61BB68DB437A6913407B6122
:100AE000BA687B6813407A6913437B612C4A7B693F
:100AF000D36450E02A4BD3F8CC307B61BB68DB4336
:100B00007A6913407B61BA687B6813407A69134342
:100B10007B61234A7B69C2F8CC303CE0204BD3F8A0
:100B2000D0307B61BB68DB437A6913407B61BA6874
:100B30007B6813407A6913437B61194A7B69C2F869
:100B4000D03028E0164BD3F8D4307B61BB68DB4350
:100B50007A6913407B61BA687B6813407A691343F2
:100B60007B610F4A7B69C2F8D43014E00C4BD3F898
:100B7000D8307B61BB68DB437A6913407B61BA681C
:100B80007B6813407A6913437B61054A7B69C2F82D
:100B9000D83000E000BF00BF1C37BD4680BC7047A6
:100BA00000A0084080B487B000AFF860B9607A60F8
:100BB000FB68072B00F2AC8001A252F823F000BFC3
:100BC000E10B0000050C0000290C00004D0C00009A
:100BD000710C0000990C0000C10C0000E90C000031
:100BE0004E4B1B6D7B61BB68DB437A6913407B61B5
:100BF000BA687B6813407A6913437B61474A7B6913
:100C0000136586E0454B5B6D7B61BB68DB437A69AE
:100C100013407B61BA687B6813407A6913437B6138
:100C20003E4A7B69536574E03C4B9B6D7B61BB68BE
:100C3000DB437A6913407B61BA687B6813407A6949
:100C400013437B61354A7B69936562E0334BDB6D0F
:100C50007B61BB68DB437A6913407B61BA687B6860
:100C600013407A6913437B612C4A7B69D36550E05A
:100C70002A4BD3F8B4307B61BB68DB437A691340FD
:100C80007B61BA687B6813407A6913437B61234AAE
:100C90007B69C2F8B4303CE0204BD3F8B8307B61BC
:100CA000BB68DB437A6913407B61BA687B68134099
:100CB0007A6913437B61194A7B69C2F8B83028E02E
:100CC000164BD3F8BC307B61BB68DB437A691340B9
:100CD0007B61BA687B6813407A6913437B610F4A72
:100CE0007B69C2F8BC3014E00C4BD3F8C0307B6198
:100CF000BB68DB437A6913407B61BA687B68134049
:100D00007A6913437B61054A7B69C2F8C03000E011
:100D100000BF00BF1C37BD4680BC704700A0084024
:100D200080B483B000AF7860064B5B6823F4E012B8
:100D300004497B6813434B6000BF0C37BD4680BC41
:100D4000704700BF00A0084080B483B000AF0346E6
:100D5000FB71FB79002B03D0054B01221A6602E0E0
:100D6000034B00221A6600BF0C37BD4680BC70479B
:100D700000A0084080B483B000AF786000BF064B8D
:100D80005A6E7B681340002BF9D100BF00BF0C37AF
:100D9000BD4680BC704700BF00A0084080B483B04F
:100DA00000AF7860054B9A6A7B68DB4303491340C8
:100DB0008B6200BF0C37BD4680BC704700A0084066
:100DC00080B500AF002228490020FFF72DFE002249
:100DD00025490120FFF728FE002223490220FFF7C2
:100DE00023FE002220490320FFF71EFE00221E4999
:100DF0000420FFF719FE00221B490520FFF714FE0F
:100E0000002219490620FFF70FFE0022164907208D
:100E1000FFF70AFE0022FF210020FFF7C3FE002299
:100E2000FF210120FFF7BEFE0022FF210220FFF775
:100E3000B9FE0022FF210320FFF7B4FE0022FF21AC
:100E40000420FFF7AFFE0022FF210520FFF7AAFED6
:100E50000022FF210620FFF7A5FE0022FF21072028
:100E6000FFF7A0FE00BF80BD00F00FF080B500AF1F
:100E7000002226490720FFF7D7FD0022244906203B
:100E8000FFF7D2FD002222490520FFF7CDFD002209
:100E90001F490420FFF7C8FD00221D490320FFF76A
:100EA000C3FD00221A490220FFF7BEFD00221849A7
:100EB0000120FFF7B9FD00224FF020410020FFF78D
:100EC000B3FD002207210720FFF76CFE0022072157
:100ED0000620FFF767FE002207210520FFF762FECC
:100EE000002207210420FFF75DFE002207210320D6
:100EF000FFF758FE002207210220FFF753FE0022D1
:100F000007210120FFF74EFE00BF80BD00E00F501B
:100F100000E00FF080B582B000AF0346FB71012105
:100F2000244800F071FF0321234801F0B5F9402166
:100F3000224800F033FE012001F066FB0121204829
:100F400000F062FF4FF0FF30FFF728FF1D48FFF76A
:100F500007FC01210820FFF763FC01211020FFF7A7
:100F60005FFC01218020FFF75BFC01214FF48070C2
:100F7000FFF756FC01214FF40070FFF751FCFB799D
:100F8000002B0DD04FF44020FFF7CAFE4FF4803005
:100F9000FFF722FC0C4BDB6F0B4A43F00803D367CF
:100FA000FFF70EFF4FF0FF30FFF7E4FE00BF0837FA
:100FB000BD4680BDD0433E0002001E0080002A00D6
:100FC00000362C009C40000000800C4080B586B0AC
:100FD00000AF78600023FB740123BB7407F10803A2
:100FE00008220021184602F09DFE0021052000F095
:100FF00025F97B682F4A934203DA7B682E4A934295
:1010000003DA2E4800F0A6F951E07B68002B04DAE1
:101010007B685B427B600123FB7406237B6137E0C6
:10102000BB7C002B15D07A68254B83FB02139910EB
:10103000D317C91A0B469B000B445B00D11ACBB2E5
:101040003033D9B207F108027B6913440A461A709B
:101050000DE0FB7C002B01D02D2100E0202107F1C9
:1010600008027B6913440A461A700023FB747B68EC
:10107000134A82FB03129210DB17D31A7B607B6842
:10108000002B14BF01230023BB747B69013B7B61F0
:101090007B69002BC4DAFB7C002B03D001210520E7
:1010A00000F0CCF807F10803184600F053F91837A0
:1010B000BD4680BD80969800816967FFB040000002
:1010C0006766666680B58AB000AF78607B6842F27A
:1010D0000E72934202DD42F20F737B607B6813F560
:1010E0007A7F01DC3D4B7B607B68002B06DA7868F9
:1010F00002F002FE78600123BB6101E00023BB61C6
:101100004FF0FF30FFF736FE0120FFF71DFE00F025
:101110006DF80123FB6100233B6254E07A68FB69B0
:1011200092FBF3F22E4B83FB02139910D317C91ACB
:101130000B469B000B445B00D11A0B46FB82BB693C
:10114000012B04D13B6A032B01D11023FB82FB8AC4
:10115000244A32F81330BB8200237B6227E0224905
:101160003A6A1346DB009B1A5B00CA187B6A134479
:10117000CB331B783B611C493A6A1346DB009B1A50
:101180005B00CA187B6A1344C4331B78FB60BA8ABD
:101190007B6A42FA03F303F00103002B04D001221F
:1011A0003969F868FFF75CFB7B6A01337B627B6A15
:1011B000062BD4DDFA6913469B0013445B00FB61E8
:1011C0003B6A01333B623B6A032BA7DD0020FFF73C
:1011D000BBFD00BF2837BD4680BD00BF19FCFFFF27
:1011E0006766666678400000C03D000080B500AFCD
:1011F000002278210120FFF7D5FC0022782102206F
:10120000FFF7D0FC002278210320FFF7CBFC00225F
:1012100078210420FFF7C6FC002278210520FFF783
:10122000C1FC002278210620FFF7BCFC00227821B7
:101230000720FFF7B7FC00BF80BD000080B584B079
:1012400000AF03463960FB710023FB600023BB60E5
:10125000FB790E2B6BD801A252F823F099120000F3
:10126000A3120000AD120000B7120000C11200006E
:10127000CB120000D5120000DF120000E9120000BE
:10128000F3120000FD12000007130000111300000C
:101290001B130000251300000123FB600C23BB601F
:1012A00046E00023FB602023BB6041E00323FB609A
:1012B0002723BB603CE00223FB600C23BB6037E0CC
:1012C0000023FB601C23BB6032E00323FB600C2384
:1012D000BB602DE00423FB600C23BB6028E00023EF
:1012E000FB601E23BB6023E00523FB602723BB605C
:1012F0001EE00023FB602223BB6019E00023FB609B
:101300002323BB6014E00723FB600C23BB600FE0CA
:101310000523FB600C23BB600AE00623FB600C2363
:10132000BB6005E00723FB601D23BB6000E000BF3E
:101330003B68002B05D00122B968F868FFF790FAE6
:1013400004E00022B968F868FFF78AFA00BF103796
:10135000BD4680BD80B58AB000AF7860786802F085
:101360001BFD0346BB6100233B624FF0FF30FFF7DC
:1013700001FD0120FFF7E8FCFFF778FD00233B6249
:1013800045E03A6ABB699A4203DA7B681B787B6264
:1013900001E020237B627B6A203B7B62214A7B6ADF
:1013A00032F81330FB820023FB6127E01E493A6AC2
:1013B0001346DB009B1A9B00CA18FB6913440E33CB
:1013C0001B783B6118493A6A1346DB009B1A9B0065
:1013D000CA18FB6913441B78FB60FA8AFB6942FA5E
:1013E00003F303F00103002B05D0FB6839690122E8
:1013F0001846FFF735FAFB690133FB61FB690D2BDA
:10140000D4DD7B6801337B603B6A01333B623B6A1E
:10141000062BB6DD0020FFF797FC00BF2837BD463E
:1014200080BD00BFC03F0000C03D000080B483B05D
:1014300000AF786001227B6802FA03F318460C378C
:10144000BD4680BC704780B487B000AFF860B9601B
:101450007A60FB6803F1424303F58013DA00BB684E
:1014600013449B007B617B697A681A6000BF1C375C
:10147000BD4680BC704780B485B000AF78603960ED
:101480007B6803F1424303F58013DA003B681344A1
:101490009B00FB60FB681B6818461437BD4680BC88
:1014A000704780B485B000AF78607B68002B02D0B5
:1014B0007B68B3F5004F7B68BB60BB68002B01D134
:1014C000202303E0BB68B3FA83F3DBB2C3F11F034D
:1014D000FB60FB6818461437BD4680BC70470000AF
:1014E00080B400AF054BDB6B9BB2002B14BF012314
:1014F0000023DBB21846BD4680BC704700000C409C
:1015000080B400AF034B0022DA6300BFBD4680BC4D
:10151000704700BF00000C4080B400AF034B41F6A1
:101520007132DA6300BFBD4680BC704700000C40DA
:1015300080B400AF024B5B681846BD4680BC704764
:1015400000000C4080B483B000AF7860034A7B6831
:10155000536000BF0C37BD4680BC704700000C4094
:1015600080B582B000AF01F0A9FA0346792B05D00F
:10157000792B26DC482B22D04A2B22D1134B1B6916
:101580009BB21B029BB203F47C53FB800F4B9B6905
:1015900003F0F0039AB2FB881343FB800B4BDB692B
:1015A0001B0903F00F039AB2FB881343FB80FB88EF
:1015B000B3F5017F01D3064B04E0064B02E0054B77
:1015C00000E0002318460837BD4680BDD0FF0FE07D
:1015D00000366E010048E80180B584B000AF786045
:1015E0000123FB60FFF7BCFF02467B68934204D8EF
:1015F0000023FB600023BB600BE0FFF7B1FF034655
:101600005B007A689A4202D80123BB6001E00223A2
:10161000BB60FA681E210848FFF715FF064B5B68A0
:1016200023F48072BB681B02034913434B6000BF65
:101630001037BD4680BD00BF00800C4080B582B031
:1016400000AF1E210448FFF716FF78607B6818463C
:101650000837BD4680BD00BF00800C4080B582B019
:1016600000AF264B5B6903F4E063B3F5E06F36D05F
:10167000B3F5E06F39D8B3F5C06F33D0B3F5C06FB1
:1016800033D8B3F5407F0ED0B3F5407F2DD8B3F5F6
:10169000007F13D0B3F5007F27D8002B1CD0B3F503
:1016A000807F16D021E001F0FDF90346122B02D90C
:1016B000134B7B601CE0134B7B6019E001F0F2F9E7
:1016C0000346122B02D9104B7B6011E00F4B7B605D
:1016D0000EE00F4B7B600BE00E4B7B6008E00E4B87
:1016E0007B6005E00D4B7B6002E000237B6000BF68
:1016F0007B6818460837BD4680BD00BF00800C409F
:10170000804F120040420F0040B56400C0CF6A0015
:10171000C0D8A700809FD500406F4001003FAB01BB
:1017200080B582B000AF0D4800F0FCFC0346FB70B2
:10173000FB78072B05D0092B07D1FEF71FFF786038
:1017400006E0FFF78BFF786002E000237B6000BFBC
:101750007B6818460837BD4680BD00BF06000E00F6
:1017600080B584B000AF78603960FFF7E1FE0346D2
:1017700003F00703FB60FB68012B02D9FB68042B15
:1017800002D10023FB7202E00123FB7200BF7B68E1
:10179000184A934207D9FB7A002B01D0052300E0B9
:1017A0000423FB6016E07B68124A93420BD87B68E7
:1017B000114A934207D9FB7A002B01D0032300E0A2
:1017C0000123FB6006E0FB7A002B01D0022300E03E
:1017D0000023FB60FFF7ACFE034623F00703FA6823
:1017E0001343FB60F868FFF7ADFE00BF1037BD463E
:1017F00080BD00BF0048E8010024F40080B582B03D
:1018000000AFFFF76DFE0346FB71FFF785FEFEF7A5
:10181000ABFE034600211846FFF7A2FFFB79002B21
:1018200001D0FFF76DFE00BF0837BD4680BD80B513
:1018300084B000AF78603960FFF752FE0346FB7357
:10184000FFF76AFE39687868FFF78AFFFB7B002B99
:1018500001D0FFF755FE00BF1037BD4680BD000028
:1018600090B585B000AF78600023BB607B68344AD8
:10187000934203D07B68334A934200E000BF78680C
:1018800000F050FC0346FB607B682D4A934204D075
:101890007B682C4A934206D00CE02B4B9B6A03F0EA
:1018A0000303FB6006E0284B9B6A9B0803F00303DD
:1018B000FB6000BFFB68032B38D801A252F823F06D
:1018C000F7180000D1180000D9180000E118000036
:1018D000FEF7F8FEB8602DE0FEF704FFB86029E0DF
:1018E000FEF728FE0446FFF7A9FE0346013324FA5B
:1018F00003F3BB601EE00023BB607B68104A934289
:1019000003D07B680F4A934213D10F4B9A6A7B68CE
:101910000B498B4201D1102300E0142322FA03F378
:10192000002B06D0FEF7D6FEB86002E00023BB60B5
:1019300000E000BFBB6818461437BD4690BD00BF2D
:1019400002001E000300200000800C4080B483B021
:1019500000AF7860094B5B6D03F00103002B07D1EA
:1019600000BF064B1A6D7B681340002BF9D100E0D5
:1019700000BF0C37BD4680BC704700BF00800C40E4
:1019800080B582B000AF114800F0CCFB0346FB707D
:10199000FB78092B0ED0092B10DC022B02D0032B75
:1019A00004D00BE0FEF79EFE78600AE0FEF78AFEA8
:1019B000786006E0FEF7E2FD786002E000237B60DD
:1019C00000BF7B6818460837BD4680BD0723260048
:1019D00080B400AF00BFBD4680BC704780B400AF8C
:1019E00000BFBD4680BC704790B585B000AF786041
:1019F0007B681B0903F00F03BB60BB68013B0C2B2A
:101A000000F2B68001A252F823F000BF411A000094
:101A1000711B0000711B0000511A0000711B0000B7
:101A2000711B0000651A0000931A00002D1B0000B6
:101A3000711B0000711B0000711B0000791A00006F
:101A40004F4B1B689B0B03F007030133FB6092E0D5
:101A50004B4B9B6803F00F03FB60F868FFF7E6FC55
:101A6000F86088E0464B5B6803F00F03FB60F868A2
:101A7000FFF7DCFCF8607EE0414B5B681B0A03F07B
:101A80000103FB60FB6801331846FFF7CFFCF860E9
:101A900071E07B683B4A93423AD07B68394A934273
:101AA00040D87B68384A934222D07B68364A9342BA
:101AB00038D87B68354A934204D07B68344A9342D5
:101AC0000BD02FE02E4B9B6E1B0903F00F03FB6026
:101AD000F868FFF7ABFCF86027E0294B9B6E1B0A08
:101AE00003F00F03FB60F868FFF7A0FCF8601CE050
:101AF000234B9B6E1B0B03F003041020FFF7D1FC5C
:101B000003462344FB60F868FFF790FCF8600CE0A4
:101B10001B4B9B6E03F00303FB60F868FFF786FC2A
:101B2000F86002E00123FB6000BF24E07B68194AF3
:101B3000934204D07B68184A93420AD014E0104BB9
:101B40001B6F03F00303FB60F868FFF76FFCF8609E
:101B50000DE00B4B1B6F1B0903F00303FB60F868E0
:101B6000FFF764FCF86002E00123FB6000BF02E0C5
:101B70000123FB6000BFFB6818461437BD4690BDCB
:101B800000800C4080062E0080002A008016120083
:101B90008026160090071A0090171C0090B585B09B
:101BA00000AF786039607B681B0903F00F03FB60AE
:101BB000FB68013B0C2B00F2148101A252F823F0C8
:101BC000F51B0000E31D0000E31D0000271C0000C2
:101BD000E31D0000E31D00006D1C0000BD1C0000A3
:101BE0008D1D0000E31D0000E31D0000E31D00004B
:101BF0004D1C00003B68002B01D03B68082BFFF711
:101C0000FDFD7A4B1B6823F4E0323B68013B9B03EC
:101C1000764913430B60FEF78DFCB8600021B8686D
:101C2000FFF705FEDEE03B68002B02D03B68B3F512
:101C3000007F3868FFF735FC38606C4B9B6823F0F9
:101C40000F026A493B6813438B60CBE03868FFF7AB
:101C500028FC0346013B3B60644B5B6823F48072C5
:101C60003B681B02614913434B60BBE03B68002BA0
:101C700002D03B68B3F5007FFFF7C0FDFEF75AFCCA
:101C800002463B68B2FBF3F31846FFF7A5FC386841
:101C9000FFF707FC3860554B5B6823F00F02534990
:101CA0003B6813434B60FEF745FCB8600021B86801
:101CB000FFF7BDFDB868FFF78FFC93E07B684C4AE7
:101CC000934251D07B684A4A93425DD87B68494A27
:101CD00093422ED07B68474A934255D87B68464A48
:101CE000934204D07B68454A934211D04CE00420D3
:101CF000FFF72CFE3868FFF7D4FB38603B4B9B6E38
:101D000023F0F0023B681B01384913438B663CE02B
:101D10000420FFF71BFE3868FFF7C3FB3860334B26
:101D20009B6E23F470623B681B02304913438B6641
:101D30002BE03B680F2B01D93B68802B0420FFF779
:101D400005FE3868FFF7ADFB3860284B9B6E23F427
:101D500040541020FFF7A5FB02463B689B1A1B036B
:101D6000224A2343936610E00420FFF7EFFD386812
:101D7000FFF797FB38601D4B9B6E23F003021B4956
:101D80003B6813438B6600E000BF2BE07B681C4A76
:101D9000934204D07B681B4A934210D020E040203D
:101DA000FFF7D4FD3868FFF77CFB38600F4B1B6FE3
:101DB00023F003020D493B6813430B6710E04020FA
:101DC000FFF7C4FD3868FFF76CFB3860074B1B6FEB
:101DD00023F030023B681B01044913430B6700BF2B
:101DE00000E000BF00BF1437BD4690BD00800C402E
:101DF00080062E0080002A00801612008026160021
:101E000090071A0090171C0080B586B000AF78606C
:101E10000B46FB7000233B617B681B0A03F00F033A
:101E2000013B092B44D801A252F823F0671E0000A1
:101E30006D1E0000551E0000B11E0000B11E000006
:101E4000731E00007D1E0000B11E0000B11E0000C8
:101E5000871E0000184B7B61FEF76CFB034618469B
:101E6000FFF7BAFB12E0154B7B610FE0144B7B616F
:101E70000CE0144B7B6101233B6107E0124B7B615B
:101E800010233B6102E0114B7B6100BF7B681B0BA1
:101E900003F01F03FB603B69002B02D03869FFF79A
:101EA00055FDFB781A46F9687869FFF7CCFA00E02F
:101EB00000BF1837BD4680BD40800C4008800C40F4
:101EC00044800C4058800C4060800C4078800C406E
:101ED00090B585B000AF78607B6803F47813B3F5F4
:101EE000781F00F00681B3F5781F00F20D81B3F57D
:101EF000381F00F0C580B3F5381F00F20581B3F537
:101F0000301F00F0A680B3F5301F00F2FD80B3F55E
:101F1000281F00F08B80B3F5281F00F2F580B3F581
:101F2000181F00F0E280B3F5181F00F2ED80B3F542
:101F3000001F00F0B280B3F5001F00F2E580B3F59A
:101F4000F01F52D0B3F5F01F00F2DE80B3F5E01FB2
:101F500000F0B580B3F5E01F00F2D680B3F5D01FD6
:101F600000F0A080B3F5D01F00F2CE80B3F5B01F13
:101F70004ED0B3F5B01F00F2C780B3F5901F39D033
:101F8000B3F5901F00F2C080B3F5801F00F0A98068
:101F9000B3F5801F00F2B880B3F5602F00F09D808C
:101FA000B3F5602F00F2B080B3F5802F0DD0B3F5FC
:101FB000802F00F2A980002B03D0B3F5003F10D092
:101FC000A2E0FEF7DBFAF860A1E0FEF7D7FAF860CE
:101FD000514B9B6803F00F03FA6822FA03F3FB608E
:101FE00095E0FEF7A7FAF86091E04C48FFF738FC5F
:101FF000F8608CE04948FFF733FCF860464B9B6E75
:102000001B0903F00F03FA6822FA03F3FB607EE07A
:102010004248FFF725FCF8603F4B9B6E1B0A03F01C
:102020000F03FA6822FA03F3FB6070E03B48FFF706
:1020300017FCF860384B9B6E1B0B03F00304102059
:10204000FFF72FFA03462344FA6822FA03F3FB60F2
:102050005DE03248FFF704FCF8602F4B9B6E1B0BD2
:1020600003F00303FA6822FA03F3FB602A4BDB6FE9
:1020700003F007030133FA68B2FBF3F3FB6046E0B9
:102080002648FFF7EDFBF860234B9B6E03F003033C
:10209000FA6822FA03F3FB6039E02148FFF7E0FB1E
:1020A000F86034E01E48FFF7DBFBF8601A4B1B6F4B
:1020B00003F00303FA6822FA03F3FB6027E01848F1
:1020C000FFF7CEFBF860144B1B6F1B0903F00303F3
:1020D000FA6822FA03F3FB6019E0FFF721FBF860CE
:1020E00015E0FFF7BBFAF86011E0FFF749FCF86074
:1020F0000DE0FEF71FFA04467868FFF775FC03460B
:10210000B4FBF3F3FB6002E00023FB6000BFFB685D
:1021100018461437BD4690BD00800C4002001E00DA
:102120000300200080B485B000AF78600123FB730A
:102130007B6803F00F03BB60BB68013B062B00F21A
:10214000A08001A252F823F065210000A121000027
:10215000E3210000832200008322000025220000EA
:10216000472200004B4BDB6A03F47053B3F5005F6A
:1021700009D0B3F5005F0FD8B3F5006F09D0B3F500
:10218000805F03D008E00223FB7308E00323FB73A6
:1021900005E00423FB7302E00523FB7300BF73E03B
:1021A0003C4B9B6A03F00303032B0CD0032B0DD88D
:1021B000012B02D0022B03D008E00323FB730FE0B6
:1021C0000223FB730CE00623FB7309E0314B9B6A8F
:1021D00003F48033002B02D00A23FB7300E000BF1E
:1021E00052E02C4B9B6A03F00C030C2B0CD00C2BF5
:1021F0000DD8042B02D0082B03D008E00323FB7377
:102200000FE00223FB730CE00623FB7309E0214B74
:102210009B6A03F48013002B02D00A23FB7300E0B7
:1022200000BF31E01B4B1B6803F08053002B03D031
:10223000B3F1805F03D027E00723FB7302E009239B
:10224000FB7300BF20E0134BDB6A03F46033B3F58C
:10225000003F0FD0B3F5003F0FD8B3F5004F03D0C8
:10226000B3F5803F03D008E00923FB7308E00223A5
:10227000FB7305E00323FB7302E00123FB7300BF44
:1022800002E00023FB7300BFFB7B18461437BD46FA
:1022900080BC704700800C4080B588B000AF78608B
:1022A0000B46FB700323FB610323FB7600233B619A
:1022B0007B6803F00F03FB60FB68013B062B00F219
:1022C0002A8101A252F823F0E5220000BB2300007E
:1022D000BB23000017250000172500008124000003
:1022E000AB240000FB78023B082B00F2168101A210
:1022F00052F823F019230000232300002D230000AF
:102300006F2300001B2500001B2500001B2500007B
:102310001B2500001B2500000423FB610023FB7626
:1023200031E00323FB610123FB762CE00223FB61F8
:102330000223FB76FFF714F9034601331846FFF733
:102340004BF9FEF7A7F90346784A934206D9784B32
:102350001B68774A43F06003136014E0744B1B68FA
:1023600023F06003724A43F0200313600BE0012363
:10237000FB610323FB76FFF7F3F8034601331846AE
:10238000FFF72AF900BFFB7E01220121184600F069
:1023900059F9FFF733FAFFF71BFB654AFB695362F4
:1023A000FEF7C8F8B860B868FFF716F90021B868FA
:1023B000FFF73DFAFFF712FBB4E0FB78013B092B76
:1023C00000F2AD8001A252F823F000BFF523000017
:1023D000FB2300000B2400001F2500001F25000028
:1023E0001B2400001F2500001F2500001F250000E2
:1023F0003724000000237B6122E00122012100201C
:1024000000F020F902237B611AE001220121012062
:1024100000F018F901237B6112E0FEF78BF8B86039
:10242000B868FFF7D9F8012204214248FFF70BF8FA
:1024300003237B6104E000237B6101233B6100BF38
:10244000FB68022B0DD13A4B9B6A23F4803323F0B7
:1024500003037A691A433B691B04354913438B62B2
:1024600060E0334B9B6A23F4801323F00C037A69FA
:1024700092001A433B691B052D4913438B6251E0BF
:10248000FB78072B02D0092B07D04BE0284B1B68A9
:10249000274A23F08053136006E0254B1B68244A2B
:1024A00043F08053136000BF3CE0FB78092B26D03B
:1024B000092B36DC022B02D0032B10D031E0012295
:1024C0000121002000F0BEF8194B40225A6200BFE3
:1024D000174BDB6A03F48033002BF9D01AE001229A
:1024E0000121012000F0AEF8114B60225A6200BFBA
:1024F0000F4BDB6A03F40033002BF9D00AE00C4BDE
:1025000020225A6200BF0A4BDB6A03F40043002B0F
:10251000F9D000BF06E000BF04E000BF02E000BF4A
:1025200000E000BF2037BD4680BD00BF0048E80185
:1025300000800C4040800C4080B586B000AF7860D1
:102540007B68052B58D801A252F823F065250000BE
:102550006F2500007B2500008725000093250000E3
:102560009D250000264BDB6ADBB27B611CE0244B1F
:10257000DB6A1B0ADBB27B6116E0214BDB6A1B0CBA
:10258000DBB27B6110E01E4BDB6A1B0EDBB27B61B2
:102590000AE01B4B1B6BDBB27B6105E0184B1B6B2E
:1025A0001B0ADBB27B6100BF1120FFF7BBFD0346B6
:1025B000FB74FB7C052B01D1FFF720F9114BDB6885
:1025C00023F4FF6323F007037A6812021A430D49CC
:1025D0007B691343CB60FB7C052B06D1FDF7AAFF7B
:1025E000F8600021F868FFF722F9FDF7A3FF034622
:1025F0001846FEF7F1FF00E000BF1837BD4680BD6A
:10260000B081E00F00800C4080B483B000AF7860F0
:102610000B4B9B6D03F00803002B0CD17B6803F080
:1026200007037B60064BDB6F23F0070204497B68DE
:102630001343CB6700E000BF0C37BD4680BC70473A
:1026400000800C4080B586B000AF0346FB710B469E
:10265000BB7113467B71FB79042B48D801A252F859
:1026600023F000BFB1260000A3260000872600004B
:10267000792600009526000001233B610223FB60C0
:1026800001237B611DE004233B610823FB600323DE
:102690007B6116E010233B612023FB6005237B61F7
:1026A0000FE040233B618023FB6007237B6108E050
:1026B0004FF480733B614FF40073FB6009237B612F
:1026C00000BFBB79002B0ED00B4A3B6913627B79AC
:1026D000002B0DD000BF79690848FEF7CCFE0346F9
:1026E000002BF8D004E0044AFB68136200E000BF4E
:1026F0001837BD4680BD00BF00800C402C800C40C8
:1027000080B483B000AFEFF310833B603B687B6025
:1027100072B600BF7B6818460C37BD4680BC704758
:1027200080B483B000AF78607B68002B01D162B6C3
:1027300000BF00BF0C37BD4680BC704780B487B077
:1027400000AFF860B9607A60FB6803F1424303F5BB
:102750008013DA00BB6813449B007B617B697A6855
:102760001A6000BF1C37BD4680BC704780B586B07C
:1027700000AFF860B9607A60FFF7C2FF7861FB686C
:102780001A68BB68DB431A407968BB680B401A4380
:10279000FB681A607869FFF7C3FF00BF1837BD46B2
:1027A00080BD000080B483B000AF7860044A7B68CD
:1027B000C2F81C3100BF0C37BD4680BC704700BF5B
:1027C0000060004080B483B000AF03463960FB7105
:1027D000FB79002B0DD0FB79012B0AD0FB79022B62
:1027E00007D0FB79032B04D0FB79042B01D0FB79B4
:1027F000052B0848FA7901213B6899401346DB0014
:1028000013449B0003441433196000BF0C37BD46CA
:1028100080BC70470060004080B483B000AF0346C6
:102820003960FB71FB79002B0DD0FB79012B0AD0AD
:10283000FB79022B07D0FB79032B04D0FB79042B07
:1028400001D0FB79052B0848FA7901213B689940B2
:102850001346DB0013449B0003441033196000BF90
:102860000C37BD4680BC70470060004080B586B024
:1028700000AFB9607A601A460346FB731346BB7318
:1028800000237B61FB7B002B0DD0FB7B012B0AD04F
:10289000FB7B022B07D0FB7B032B04D0FB7B042BA1
:1028A00001D0FB7B052B7B68072B0ED87B689B0038
:1028B000072202FA03F1FA7B7B689B0002FA03F31A
:1028C0001A461A48FFF752FF10E07B68083B7B610D
:1028D0007B699B00072202FA03F1FA7B7B699B006C
:1028E00002FA03F31A461248FFF740FFBB7B1A4671
:1028F00079681048FFF722FF97F820301A46796868
:102900000D48FFF71BFF01227B6802FA03F318460C
:10291000FFF748FF97F824301A4679680748FFF711
:102920000DFF00BF1837BD4680BD00BF00610040ED
:1029300004610040086100400C61004010610040EB
:1029400080B584B000AFB9607A603B600346FB732A
:10295000FB7B002B0DD0FB7B012B0AD0FB7B022BDA
:1029600007D0FB7B032B04D0FB7B042B01D0FB7B2C
:10297000052B7B68002B0DD03B68002B05D0FB7B23
:10298000B9681846FFF748FF04E0FB7BB9681846B2
:10299000FFF718FFBB68072B18D8FA7B1346DB003C
:1029A00013449B00043303F1804303F5C043BA682A
:1029B00092000F2101FA02F0BA689200796801FAD8
:1029C00002F201461846FFF7D1FE19E0FA7B1346E2
:1029D000DB0013449B00083303F1804303F5C0433D
:1029E000BA68083A92000F2101FA02F0BA68083A70
:1029F0009200796801FA02F201461846FFF7B6FE26
:102A00007B68002B0DD13B68002B05D0FB7BB968A0
:102A10001846FFF701FF04E0FB7BB9681846FFF793
:102A2000D1FE00BF1037BD4680BD000080B485B028
:102A300000AF78601A4B5B69DBB29B00DBB203F03E
:102A40003C03FB73164B1B699B09DBB203F00303CA
:102A5000DAB2FB7B1343FB737B68FA7B9A70104BF3
:102A60001B69DBB203F03F03DAB27B685A700C4B90
:102A70009B691B09DBB21B01FB73094BDB691B095B
:102A8000DBB203F00F03DAB2FB7B1343FB737B680B
:102A9000FA7B1A7000BF1437BD4680BC704700BF78
:102AA000D0FF0FE080B400AF034BDB6C1B0EDBB23A
:102AB0001846BD4680BC7047B081E00F80B400AFBF
:102AC000034BDB6C1B0CDBB21846BD4680BC704769
:102AD000B081E00F80B483B000AF0346FB7197F97B
:102AE0000730002B0BDBFB7903F01F02064997F937
:102AF00007305B09012000FA02F241F8232000BFF1
:102B00000C37BD4680BC704700E100E080B483B064
:102B100000AF7860044A7B68C2F81C3100BF0C37F4
:102B2000BD4680BC704700BF0060004080B400AF6D
:102B3000034BD3F814311846BD4680BC704700BF24
:102B40000060004080B485B000AF00237B600123AB
:102B5000FB6022E00123BB6010E0FB68BA6893FBD6
:102B6000F2F2B96801FB02F29B1A002B03D17A68DA
:102B7000BB6813447B60BB680133BB60BA68FB6809
:102B80009A42EADB7B68FA689A4201D1FB680AE064
:102B900000237B60FB680133FB60FB6842F210722C
:102BA0009342D7DD002318461437BD4680BC7047DA
:102BB00080B582B002AF01210C48FFF725F901234F
:102BC000032209210120FFF7BBFE0B20FFF782FF44
:102BD00001230193012300930023092209210120ED
:102BE000FFF744FE00BFBD4680BD00BF00D2040019
:102BF00080B582B000AF00237B60FFF797FF38609D
:102C00003868FFF783FF334B1B680133314A136089
:102C1000304B1B68082B02DD2E4B00221A602D4B17
:102C20001B68052B1DDC2C4B1B6801332A4A1360E3
:102C3000294B1B68052B02D9274B00221A60264B13
:102C40001B68184600F04CF8224B1B68002B04D17F
:102C5000012200210020FFF7F5FC0120FEF732FAE7
:102C600027E01C4B1B68082B17D0082B20DC062BF9
:102C700002D0072B0BD01BE000F050F801220021FE
:102C80000320FFF7DFFC0220FEF71CFA11E000F042
:102C90005DF80320FEF716FA0BE000F06FF8012252
:102CA00000210220FFF7CEFC0420FEF70BFA00E023
:102CB00000BF1120FFF70CF90346084AA2FB0323CB
:102CC0009B097B607868FEF781F900BF0837BD4635
:102CD00080BD00BF3400002030000020D34D6210C2
:102CE00080B582B000AF78607868FFF725FC0122DC
:102CF00001210320FFF7A6FC05211120FFF7CCFAE4
:102D000001211120FEF74AFF01210348FEF746FF8B
:102D100000BF0837BD4680BD4081040080B500AFCC
:102D2000012201210120FFF78DFC03211120FFF773
:102D3000B3FA01211120FEF731FF01210248FEF70D
:102D40002DFF00BF80BD00BF4081040080B500AFF3
:102D5000012201210220FFF775FC04211120FFF759
:102D60009BFA01211120FEF719FF01210248FEF70D
:102D700015FF00BF80BD00BF4081040080B500AFDB
:102D8000012201210020FFF75DFC02211120FFF745
:102D900083FA01211120FEF701FF01210248FEF70D
:102DA000FDFE00BF80BD00BF4081040080B582B041
:102DB00000AF114B01221A64FFF774FE0346FB714A
:102DC0003B1D1846FFF732FEFB790F2B10D93B79DC
:102DD000022B0DD97B79022B02D13B79042B07D032
:102DE000064B1B6823F05003044A43F010031360A2
:102DF00000BF0837BD4680BD00000C40C0800C40BD
:102E000080B500AFFFF7D2FF0020FFF769FFFFF7A3
:102E1000CFFE0020FEF77EF81120FFF759F8034699
:102E2000064AA2FB03239B091846FEF7CFF80120B0
:102E3000FEF748F9FFF786FEFCE700BFD34D6210AE
:102E400080B483B000AF786000BFFDE703685A002C
:102E50004CBF43F0004323F000431844704700BFC9
:102E60002DE9F84341B301F1FF38054616464746C0
:102E70000024E11901EBD171491005EBC109484665
:102E8000FFF7E4FF884503464FEAC1020ED002F186
:102E90000800B34228440BD8FFF7D8FF0138B042EE
:102EA00001F10104E5D34846BDE8F883B042FAD900
:102EB0008C4201D04F1EDCE74FF000094846BDE8C8
:102EC000F88300BF012807D0022807D0044B002850
:102ED0000CBF1846002070470248704702487047F0
:102EE00089350000913500009935000030B5214B3F
:102EF000044683B08D1E13B3284601A9AFF30080AA
:102F000088B301992A46FFF7ABFF014658B3FFF794
:102F10009DFF4B68A064012B28D0002B20DB081DEF
:102F2000FFF794FF002323650368E064002B0DDBAB
:102F3000FFF78CFF03460020236103B030BD0E4B2A
:102F40000E491846C91AC9100191DBE7C3F30360A3
:102F5000FFF7B8FF034630B10020236103B030BD56
:102F60000123081DDFE700230920E5E700230520F2
:102F7000E2E700BF00000000FC40000094410000B8
:102F8000036810B5DA07044606D49B0700F1480031
:102F900009D500F069FC2368590709D51A070ED531
:102FA000DB0613D510BD00F057FC23685907F5D494
:102FB00004F1D00000F060FC23681A07F0D404F597
:102FC000A87000F061FC2368DB06EBD404F5E87020
:102FD000BDE8104000F09CBC0346006800B11844F6
:102FE000704700BF704700BF70B504460E462046CC
:102FF000316CFFF77BFF054698B9D6F840C03246E2
:10300000214601202369C4F814C098470828EED04F
:10301000072806D12846316CFFF7E4FF301D00F089
:103020000FFCFFDE2DE9F0474FF0000AADF5727D91
:103030000DF10C0E01F1040CC768D0F8188006469B
:103040001446BCE80F00AEE80F00BCE80F00AEE885
:103050000F00BCE80F00AEE80F009CE80F0002ADC7
:103060008EE80F00C5F800A021E02B6C4FF4F07241
:10307000294673617AA800F081FE314650463369D3
:103080007AAA9847889C82466C6433463246494601
:103090000120CDE90058B847044630BB4FF4F07228
:1030A00028467AA900F06AFEBAF1080F1AD1304614
:1030B000296CFFF71BFF04F109095FFA89FA04463E
:1030C0000028D2D0A96B3346696432460120CDE98D
:1030D00000584AF01001B84738B920460DF5727D06
:1030E000BDE8F087BAF1070F05D0092420460DF599
:1030F000727DBDE8F0872046296CFFF773FF03A8B7
:1031000000F09EFBF0B54FF0FF37CB6BF9B00B64CE
:1031100001AC01F1040C0E460546BCE80F000FC4DB
:10312000BCE80F000FC4BCE80F000FC49CE80F0000
:1031300084E80F00009706E06A4629462B69984705
:103140000828044608D128461099FFF7CFFE00282A
:10315000F2D0092079B0F0BD6846FFF711FF062CC8
:10316000F7D131462846FFF73FFF00BF10B41446A1
:103170008461DC6BC16000221C64194610BCFFF73F
:1031800051BF00BF70B54369C6680B64AEB90A464B
:10319000036904460D46014602209847072805D0DA
:1031A00008280ED129462046FFF71EFF3046296C1D
:1031B000FFF718FF281D00F043FB0122FFF732FF45
:1031C000FFDEFFDEC26832B1D1F83CC00022C1F898
:1031D00040C0FFF727BFFFF795BF00BF012910D000
:1031E00009D883B90F2A0ED800EB8202526818461C
:1031F000009B1A607047033901298CBF022001200F
:103200007047084670470220704700BF002300B592
:1032100085B00A4603A900911946FFF7DFFF03981E
:1032200005B05DF804FB00BF012910D009D883B9AF
:103230000F2A0ED8009900EB8202096818465160E7
:103240007047033901298CBF0220012070470846CE
:1032500070470220704700BF002310B584B003AC54
:10326000039200940A461946FFF7DEFF04B010BD32
:1032700070B54FF0FF36D36BADF50E7D13640DF1D5
:103280005C0E02F1040C05460C46BCE80F00AEE8EB
:103290000F00BCE80F00AEE80F00BCE80F00AEE87E
:1032A0000F009CE80F008EE80F00169612E00C212C
:1032B00016A86A46FFF7D0FF214616A8A84778B996
:1032C00069460820049B16AA98470528064608D098
:1032D000092805D068462699FFF708FE0028E6D0A1
:1032E000092616A8FFF74CFE30460DF50E7D70BD81
:1032F0002DE9F04F9346CA6C0D4652F8041B89B075
:1033000000F0030C0692002B79D002240E0C8DF8ED
:103310001D600904F6B2059102EB86022F6DBCF127
:10332000020F08BFAA6B17F001078DF81C400CD0E4
:10333000584605A900F076FB18B9082009B0BDE889
:10334000F08F092009B0BDE8F08F1668002EEFD08D
:10335000B14664469A4600F0080101910297BAF11D
:10336000020F48D0B2F80090568802F10408AB6C06
:1033700026F001020F215846D718FFF747FF874272
:1033800037D829F001023A44824294BF0022012238
:10339000760006F0020309F0010943EA0903012B54
:1033A00047D0022B31D0002BCBD114B1002A40F0F2
:1033B000CA8008F10402D2F80090B9F1000FCED112
:1033C000584605A9029F00F02DFB0028B9D1002F17
:1033D000B3D00F215846FFF719FF0E210246584679
:1033E000FFF73AFF0F215846664AFFF735FF0720DF
:1033F000A8E70022CCE7566802F10808B7E70902FF
:10340000032405918DF81D3088E7D8F8006026F078
:103410000043002C44D122B1019A002A5AD0002B3B
:1034200058D0002E01DA08F10408013308EB8302BA
:10343000C1E7ECB9CAB1D8F80430D8F80020991C1B
:103440004FEAD2723FF47DAF05F158010133049188
:1034500000F08C8008F10400FFF7BEFD04AB0146CC
:103460002846AFF30080002857D108F10802A2E7F0
:103470000D215846FFF7CAFE2B6A8342F5D1AB6A8D
:103480009845F2D14046FFF7E1FC0F21024658462D
:10349000FFF7E2FE2A4600215846FFF7DDFEA6E7C9
:1034A0000D2158460393FFF7B1FE2A6A039B82421F
:1034B000B7D1AA6A9045B4D100270422C5E90B729E
:1034C0004244AB626A63D8F80020BA4256DB01225C
:1034D0000292AAE7039400261C4608F1040905F1AC
:1034E00058070DE048460497FFF776FD0022014695
:1034F00004AB2846013609F10409AFF30080E8B9AE
:10350000A642EFD10D215846FFF780FE0346049AEC
:103510000620C5E909282B6214E704460D21584608
:10352000FFF774FE022CDDF81090286224D12B46A0
:1035300043F82C9F0620C5E9093803E72346D8F84D
:103540000060039C6DE74046FFF780FC08F1040231
:103550000446AA632846AFF3008000283FF4F1AE8A
:1035600022460F215846FFF777FE40E78946584626
:103570000D21FFF74BFE28624B46DBE7581C08EB9A
:10358000800080E7000000000023FFF7B1BE00BF0D
:103590000123FFF7ADBE00BF0223FFF7A9BE00BFA6
:1035A0002DE9F043064615461C46C3B0042900F237
:1035B000CD80DFE801F0AC51CB2A0300002C40F0B5
:1035C000C580102A00F2C2800368DC0600F1E380A7
:1035D00020AF384600F0A6F9012438460023B16B2D
:1035E00004FA03F22A4203F1010305D00A4652F815
:1035F00004CB1146C0F800C0042B00F10400EFD149
:103600003846B16300F084F995E0032C40F09E80C9
:1036100094B204EB1243102B4FEA124500F296804D
:1036200003681F0700F1BF8020AF384600F04EF955
:10363000B26B07EBC50154B10B4601EBC401D01AC4
:10364000E4001D5843F8045B8B42FAD1224438460B
:10365000B26300F019F96EE0012C4FEA124895B2FE
:103660006DD0052C72D108EB0509B9F1200F6DD88A
:10367000B8F10F0F6ED8B9F1100F036800F29B80FC
:10368000D90708D5304623F0010343F0020340F880
:10369000483B00F0EDF820AF384600F0E9F8B36B96
:1036A000002D00F0B5806D006A1E002507EBC801F3
:1036B0000132043903EB820253F8040B934241F8C0
:1036C000040FF9D1002D00F09D804146102938BF2C
:1036D00010216F466B001039013B07EBC10101332C
:1036E000043902EB830352F8040B9A4241F8040FA9
:1036F000F9D1012C00F08480B8F10F0FB26302D829
:1037000020A800F0B1F8384600F0B6F813E0ECB9A4
:1037100023460124816B371D90B204FA03F2024262
:103720001CBF51F8042B47F823200133102BF4D190
:10373000A80400D4B163002043B0BDE8F08308EBD7
:103740000503102B02D8B8F1100F14D1022043B09A
:10375000BDE8F083002DEED003685A075CD46F46B5
:10376000384600F08DF8B26B6B00A8F11001013BF8
:1037700007EBC101B3E70368DA0759D420AF384635
:1037800000F06EF8B36B002D8DD104333846B3636F
:1037900000F062F8CFE723F01003036000F5E87053
:1037A00000F0C0F814E723F00803036000F5A870E8
:1037B00000F08CF838E7D90708D523F0010343F06F
:1037C000020340F8483B00F053F83368580706D529
:1037D000304623F0040340F8D03B00F051F820AF0E
:1037E000384600F045F8684600F04AF8C8F1100283
:1037F0005200B36BA9F11005013A07EBC80157E776
:1038000020AFC2E7012CC0D0B8F10F0FB36392D83C
:10381000384600F029F88EE76F4623F0040340F89D
:10382000D03B00F02DF8384600F02AF8B26B9BE749
:10383000304623F0030340F8483B00F011F89DE7C1
:1038400000F1340191E838009C46A6464CF8045D2E
:1038500090E8FF0FE54600BD90EC210B704700BFDC
:1038600080EC210B704700BF90EC200B704700BF2D
:1038700080EC200B704700BFD0EC200B704700BFDE
:10388000C0EC200B704700BFF0EC0201F0EC02111D
:10389000F0EC0221F0EC0231F0EC0241F0EC0251CC
:1038A000F0EC0261F0EC0271F0EC0281F0EC0291BC
:1038B000F0EC02A1F0EC02B1F0EC02C1F0EC02D1AC
:1038C000F0EC02E1F0EC02F1704700BFE0EC020125
:1038D000E0EC0211E0EC0221E0EC0231E0EC02410C
:1038E000E0EC0251E0EC0261E0EC0271E0EC0281FC
:1038F000E0EC0291E0EC02A1E0EC02B1E0EC02C1EC
:10390000E0EC02D1E0EC02E1E0EC02F1704700BF34
:10391000B0FC0181B0FC0191B0FC01A1B0FC01B18F
:10392000704700BFA0FC0181A0FC0191A0FC01A197
:10393000A0FC01B1704700BFEC4600B52DE9005076
:103940002DE9FF1F4FF000032DE90C0001A9FFF73F
:10395000D9FBDDF840E012B0704700BFEC4600B57F
:103960002DE900502DE9FF1F4FF000032DE90C0059
:1039700001A9FFF707FCDDF840E012B0704700BF77
:10398000EC4600B52DE900502DE9FF1F4FF0000374
:103990002DE90C0001A9FFF715FCDDF840E012B09D
:1039A000704700BFEC4600B52DE900502DE9FF1F20
:1039B0004FF000032DE90C0001ABFFF7D7FBDDF85A
:1039C00040E012B0704700BFEC4600B52DE9005052
:1039D0002DE9FF1F4FF000032DE90C0001AAFFF7AE
:1039E00047FCDDF840E012B0704700BF027A0346A2
:1039F0007AB9427AA2B14FF0030C4168013A42729F
:103A000008680A1D5A60020283F808C0000E1A6096
:103A100070470068013A1A7202021A60000E70477D
:103A2000B02070472DE9F0434FF0000806460D46E0
:103A300085B02846FFF7DAFFB028044600F0DC80A6
:103A4000070647D500F0F003802B5FD0B02B74D071
:103A50001BD8902B00F09C80A02B12D1C3434FF4B5
:103A60007F6203F007031A41010702F47F6201D568
:103A700042F48042002330461946FFF791FD0028AA
:103A8000D7D0092005B0BDE8F083C02B6ED1C62881
:103A900000F09480C72800F0B48000F0F803C02B39
:103AA00000F0C980C82800F0D480C928E9D1284690
:103AB000FFF79CFF0523044601213046220304F052
:103AC0000F0402F470220C442243FFF769FD002822
:103AD000AFD0D6E78300DBB21F1D00230DF10C0928
:103AE00019460D223046CDF80090FFF777FB039B77
:103AF00060064CBFDF1BFF1800230D22304619461D
:103B0000CDF800900397FFF78FFB92E72846FFF769
:103B10006DFF24022043B0F5004FB2D00023040112
:103B200019463046A2B2FFF73BFD0028A9D114F494
:103B3000004F18BF4FF001087BE7B12852D0B228E0
:103B400000F0AC80B3286ED000F0FC03B42B98D00A
:103B5000012300F007021A443046194642F40022BD
:103B6000FFF71EFD00283FF464AF8AE700F0F8037A
:103B7000D02B86D100F00702013205230121304607
:103B800042F40022FFF70CFD00283FF452AF78E723
:103B900000F00D030D2B3FF474AF002303AF194663
:103BA00000F00F0200973046FFF718FB00230D22AC
:103BB000304619460097FFF737FB3AE72846FFF7EC
:103BC00015FF04460323220304F00F0402F47022BD
:103BD0000134304619462243FFF7E2FC00283FF447
:103BE00028AF4EE72846FFF701FF431EDBB20E2B3E
:103BF00002467FF63FAF44E7B8F1000F3ED0002009
:103C000040E72846FFF7F2FE431EDBB20E2B0246CA
:103C10003FF637AF002304213046FFF7C1FC0028F0
:103C20003FF407AF2DE72846FFF7E0FE01230446E7
:103C30001946304642E7032300F00F0201323046B6
:103C4000194642F42022FFF7ABFC00283FF4F1AE06
:103C500017E72846FFF7CAFE0246012102F0F004EA
:103C600002F00F0210340A440523304642EA0432BF
:103C7000FFF796FC00283FF4DCAE02E703AC4346B6
:103C800041460E2230460094FFF7A8FA43460F2221
:103C9000414630460094FFF7C7FAB0E700230DF124
:103CA0000C090D2219463046CDF80090FFF796FA20
:103CB0002846FFF79BFE02064FF00207039C0BD538
:103CC00000F07F00B840044428460394FFF78EFEBE
:103CD000030607F10707F3D4002300FA07F204F5FF
:103CE00001742244039230460D221946CDF800900B
:103CF000FFF79AFA9DE600BF0028B8BF4042704720
:103D000008B5064B044613B10021AFF30080044B05
:103D10001B6803B198472046FFF792F800000000A7
:103D20003800002003460244934200D1704703F854
:103D3000011BF9E770B500260C4D0D4C641BA41057
:103D4000A64209D100F030F800260A4D0A4C641B47
:103D5000A410A64205D170BD55F8043B9847013622
:103D6000EEE755F8043B98470136F2E70C000020D7
:103D70000C0000200C000020100000200A4491429A
:103D800000F1FF3300D1704710B511F8014B91429B
:103D900003F8014FF9D110BD034613F8012B002A97
:103DA000FBD1181A01387047F8B500BFF8BC08BC41
:103DB0009E467047F8B500BFF8BC08BC9E467047E9
:103DC00001010507070304020302040605060D0EA0
:103DD0000E0E0D0D0D0D0E0E0E0E0D0D0101050733
:103DE000070304020302040605060F1010100F0F4C
:103DF0000F0F101010100F0F010105070703040229
:103E000003020406050611121212111111111212E9
:103E1000121211110101050707030402030204062F
:103E20000506131C1C1C131313131C1C1C1C13133E
:103E300000010507060203010302040604051D1E16
:103E40001E1E1D1D1D1D1E1E1E1E1D1D0001050703
:103E5000060203010302040604051F2020201F1F81
:103E60001F1F202020201F1F010105070703040238
:103E700003020406050621222222212121212222D9
:103E800022222121070502010306042323232323E1
:103E900023230705020103060424242424242424C4
:103EA00007050201030604252525252525250705E7
:103EB00002010306042626262626262600010702DE
:103EC0000627272727270000000000000000131204
:103ED00011100F0E0D0C00000000212524260101F9
:103EE0000304040203020D0E0D0D0E0D0E0E010152
:103EF0000304040203020F100F0F100F1010010132
:103F00000304040203021112111112111212010111
:103F1000030404020302131C13131C131C1C0001D2
:103F20000203040103021D1E1D1D1E1D1E1E000195
:103F30000203040103021F201F1F201F2020010174
:103F40000304040203022122212122212222050747
:103F50000704040605060E0E0D0D0E0E0D0D0507C9
:103F600007040406050610100F0F10100F0F0507A9
:103F70000704040605061212111112121111050789
:103F80000704040605061C1C13131C1C1313050749
:103F90000603040604051E1E1D1D1E1E1D1D05070D
:103FA00006030406040520201F1F20201F1F0507ED
:103FB00007040406050622222121222221210000D5
:103FC0000000001180020000000002060000200036
:103FD00039000F00000040150020400400100022AE
:103FE0003F0006005B044F0466046D047D04070077
:103FF0007F046F0400000000000A00008020000021
:10400000FFFF7704790A3900B020790071007D0440
:10401000760406000E00700A3800B602B6083F00AB
:1040200073043F08730C6D0401113E0030223628E2
:10403000802A6E040922390080080F000100080060
:10404000000158107C0458005E04582071040C0CC8
:10405000740404000E00700C3800541454045C0402
:10406000730467045004080C78001C001020142806
:10407000802A0C08482000003F0006005B004F002B
:1040800066006D007D0007007F006F0077007C00F8
:1040900039005E007900710040000000010000005E
:1040A000030040000C0000000000000000000000C1
:1040B0004F7672666C6F7700000000000100000010
:1040C00001000000020000000100000002000000EA
:1040D00002000000030000000100000002000000D8
:1040E00002000000030000000200000003000000C6
:0C40F000030000000400000000000000BD
:1040FC0050C3FF7F01000000C4C3FF7FB0B0B0808D
:10410C0010C4FF7F01000000D8EDFF7FB0A9028032
:10411C0064EEFF7FB0B0A880B4EEFF7F010000001A
:10412C00BCEEFF7FB0B0AA80F0EEFF7FAE71B28024
:10413C00C8EFFF7FAB3F388028F0FF7F0100000005
:10414C0038F0FF7FB0B0AA8070F0FF7F0100000054
:10415C0014F1FF7FAA0DB2808CF1FF7FB0AF088005
:10416C001CF4FF7F010000002CF4FF7FAD3F0280A8
:10417C00C4F6FF7F01000000A0F8FF7FB0AD048003
:08418C006CFBFF7F0100000045
:0C419400A0410000000000200500000019
:1041A000006CDC0200800000809FD5002904000024
:0441B0000104000006
:04000003000004C92C
:00000001FF
