:1000000000000220C90400000B05000009050000E3
:100010000B0500000B0500000B0500000B050000A0
:100020000B0500000B0500000B0500000B05000090
:100030000B0500000A0500000B0500000B05000081
:100040000B0500000B0500000B0500000B05000070
:100050000B0500000B0500000B0500000B05000060
:100060000B0500000B0500000B0500000B05000050
:100070000B050000AD1F00000B0500000B05000084
:100080000B0500000B0500000B0500000B05000030
:100090000B0500000B0500000B0500000B05000020
:1000A0000B0500000B0500000B0500000B05000010
:1000B0000B0500000B0500000B0500000B05000000
:1000C0000B0500000B0500000B0500000B050000F0
:1000D0000B0500000B0500000B05000000000000F0
:1000E0000000000000000000000000000000000010
:1000F0000000000000000000000000000000000000
:1001000000000000000000000000000000000000EF
:1001100000000000000000000000000000000000DF
:1003C0000348044B834202D0034B03B118477047E4
:1003D0001400002014000020000000000548064B17
:1003E0001B1AD90F01EBA301491002D0034B03B133
:1003F000184770471400002014000020000000007F
:1004000010B5064C237843B9FFF7DAFF044B13B15C
:100410000448AFF300800123237010BD14000020B6
:1004200000000000902F000008B5054B1BB10549E6
:100430000548AFF30080BDE80840FFF7CFBF00BF1D
:100440000000000018000020902F0000A3F5803A63
:10045000704700BF174B002B08BF134B9D46FFF79B
:10046000F5FF00218B460F461348144A121A02F07A
:1004700049FD0E4B002B00D098470D4B002B00D0B0
:1004800098470020002104000D000D48002802D0EC
:100490000C48AFF3008002F03DFD2000290001F080
:1004A0009BFD02F01DFD00BF0000080000000000E1
:1004B000000000000000022014000020380000208E
:1004C000000000000000000000F0EEF80F4C104D9E
:1004D000AC420ADA21686268A3689B00043BA2BFB1
:1004E000C858D050FAE70C34F2E70A4B0A4CA34242
:1004F00008DA19685A680020043AA4BF8850FBE75C
:100500000833F4E7FFF7A6FFFEE7FEE72C30000014
:1005100038300000383000003830000080B400AFC0
:10052000034BDB6C1B0EDBB21846BD4680BC70472C
:10053000B081E00F80B582B000AF00F01FF87860A6
:10054000074B5B6803F00F037A6822FA03F37B60C2
:10055000044A7B6813607B6818460837BD4680BD37
:1005600000800C400800002080B400AF024B184609
:10057000BD4680BC704700BF006CDC0280B582B015
:1005800000AF394BDB6A03F47053B3F5005F09D059
:10059000B3F5005F12D8B3F5006F0BD0B3F5805FF1
:1005A00004D00BE0314B1B687B604FE04FF40043FD
:1005B0007B604BE02E4B1B687B6047E02A4BDB687F
:1005C00003F4E063B3F5A06F1AD0B3F5A06F39D888
:1005D000B3F5806F17D0B3F5806F33D8B3F5407F94
:1005E00014D0B3F5407F2DD8B3F5007F11D0B3F50B
:1005F000007F27D8002B1AD0B3F5807F0CD021E0E4
:100600001C4B7B6021E01C4B7B601EE01B4B7B6026
:100610001BE01B4B7B6018E0FFF780FF0346122BAB
:1006200002D9184B7B6010E0174B7B600DE0FFF7A1
:1006300075FF0346122B02D9144B7B6005E0144B67
:100640007B6002E000237B6000BF00BF064B1B689D
:100650009B0B03F0070301337A68B2FBF3F31846F0
:100660000837BD4680BD00BF00800C40040000205C
:1006700000000020003FAB01406F4001809FD5008B
:10068000C0D8A70040B56400C0CF6A00804F1200F8
:1006900040420F0080B400AF024B1B681846BD46B5
:1006A00080BC70470000002080B400AF034B044AB8
:1006B0009A6000BFBD4680BC704700BF00ED00E0FF
:1006C0000000000080B400AF4FF400431846BD4660
:1006D00080BC704780B400AF4FF47A731846BD46B3
:1006E00080BC704780B400AF024B1B681846BD4603
:1006F00080BC70470400002080B483B000AF7860F5
:1007000001227B6802FA03F318460C37BD4680BC11
:10071000704780B487B000AFF860B9607A60FB685A
:1007200003F1424303F58013DA00BB6813449B00D6
:100730007B617B697A681A6000BF1C37BD4680BC4C
:10074000704780B485B000AF786039607B6803F192
:10075000424303F58013DA003B6813449B00FB60BF
:10076000FB681B6818461437BD4680BC704780B4D0
:1007700085B000AF78607B68002B02D07B68B3F552
:10078000004F7B68BB60BB68002B01D1202303E0D6
:10079000BB68B3FA83F3DBB2C3F11F03FB60FB68F2
:1007A00018461437BD4680BC7047000080B400AFC7
:1007B000054BDB6B9BB2002B14BF01230023DBB284
:1007C0001846BD4680BC704700000C4080B400AFA6
:1007D000034B0022DA6300BFBD4680BC704700BFF8
:1007E00000000C4080B400AF034B41F67132DA6375
:1007F00000BFBD4680BC704700000C4080B400AF15
:10080000024B5B681846BD4680BC704700000C4038
:1008100080B483B000AF7860034A7B68536000BF48
:100820000C37BD4680BC704700000C4080B582B0DC
:1008300000AF01F091F90346792B05D0792B26DC26
:10084000482B22D04A2B22D1134B1B699BB21B028F
:100850009BB203F47C53FB800F4B9B6903F0F003C6
:100860009AB2FB881343FB800B4BDB691B0903F037
:100870000F039AB2FB881343FB80FB88B3F5017F1B
:1008800001D3064B04E0064B02E0054B00E00023D9
:1008900018460837BD4680BDD0FF0FE000366E0118
:1008A0000048E80180B584B000AF78600123FB60A8
:1008B000FFF7BCFF02467B68934204D80023FB602D
:1008C0000023BB600BE0FFF7B1FF03465B007A68D3
:1008D0009A4202D80123BB6001E00223BB60FA68A0
:1008E0001E210848FFF715FF064B5B6823F4807252
:1008F000BB681B02034913434B6000BF1037BD4662
:1009000080BD00BF00800C4080B582B000AF1E21CA
:100910000448FFF716FF78607B6818460837BD4625
:1009200080BD00BF00800C4080B582B000AF264B78
:100930005B6903F4E063B3F5E06F36D0B3F5E06FC5
:1009400039D8B3F5C06F33D0B3F5C06F33D8B3F532
:10095000407F0ED0B3F5407F2DD8B3F5007F13D084
:10096000B3F5007F27D8002B1CD0B3F5807F16D0BD
:1009700021E001F0E5F80346122B02D9134B7B600E
:100980001CE0134B7B6019E001F0DAF80346122BF0
:1009900002D9104B7B6011E00F4B7B600EE00F4BD8
:1009A0007B600BE00E4B7B6008E00E4B7B6005E04C
:1009B0000D4B7B6002E000237B6000BF7B68184624
:1009C0000837BD4680BD00BF00800C40804F12003C
:1009D00040420F0040B56400C0CF6A00C0D8A700F5
:1009E000809FD500406F4001003FAB0180B582B0D1
:1009F00000AF0D4800F0FCFC0346FB70FB78072BB2
:100A000005D0092B07D1FFF7B9FD786006E0FFF7A5
:100A10008BFF786002E000237B6000BF7B68184694
:100A20000837BD4680BD00BF06000E0080B584B00B
:100A300000AF78603960FFF7E1FE034603F007037B
:100A4000FB60FB68012B02D9FB68042B02D1002359
:100A5000FB7202E00123FB7200BF7B68184A9342DD
:100A600007D9FB7A002B01D0052300E00423FB60AB
:100A700016E07B68124A93420BD87B68114A934276
:100A800007D9FB7A002B01D0032300E00123FB6090
:100A900006E0FB7A002B01D0022300E00023FB607C
:100AA000FFF7ACFE034623F00703FA681343FB602D
:100AB000F868FFF7ADFE00BF1037BD4680BD00BF30
:100AC0000048E8010024F40080B582B000AFFFF7D1
:100AD0006DFE0346FB71FFF785FEFFF745FD0346FC
:100AE00000211846FFF7A2FFFB79002B01D0FFF78A
:100AF0006DFE00BF0837BD4680BD80B584B000AF35
:100B000078603960FFF752FE0346FB73FFF76AFE19
:100B100039687868FFF78AFFFB7B002B01D0FFF76D
:100B200055FE00BF1037BD4680BD000090B585B0B2
:100B300000AF78600023BB607B68344A934203D0E7
:100B40007B68334A934200E000BF786800F050FCB5
:100B50000346FB607B682D4A934204D07B682C4A95
:100B6000934206D00CE02B4B9B6A03F00303FB601F
:100B700006E0284B9B6A9B0803F00303FB6000BF61
:100B8000FB68032B38D801A252F823F0C30B0000F6
:100B90009D0B0000A50B0000AD0B0000FFF792FDC0
:100BA000B8602DE0FFF79EFDB86029E0FFF7C2FCBA
:100BB0000446FFF7A9FE0346013324FA03F3BB60A2
:100BC0001EE00023BB607B68104A934203D07B6821
:100BD0000F4A934213D10F4B9A6A7B680B498B42A1
:100BE00001D1102300E0142322FA03F3002B06D0D6
:100BF000FFF770FDB86002E00023BB6000E000BFBB
:100C0000BB6818461437BD4690BD00BF02001E00E9
:100C10000300200000800C4080B483B000AF7860F7
:100C2000094B5B6D03F00103002B07D100BF064B9E
:100C30001A6D7B681340002BF9D100E000BF0C3720
:100C4000BD4680BC704700BF00800C4080B582B0BC
:100C500000AF114800F0CCFB0346FB70FB78092B7A
:100C60000ED0092B10DC022B02D0032B04D00BE09A
:100C7000FFF738FD78600AE0FFF724FD786006E0B2
:100C8000FFF77CFC786002E000237B6000BF7B689C
:100C900018460837BD4680BD0723260080B400AF44
:100CA00000BFBD4680BC704780B400AF00BFBD46EA
:100CB00080BC704790B585B000AF78607B681B0939
:100CC00003F00F03BB60BB68013B0C2B00F2B68046
:100CD00001A252F823F000BF0D0D00003D0E0000F0
:100CE0003D0E00001D0D00003D0E00003D0E0000F9
:100CF000310D00005F0D0000F90D00003D0E0000F9
:100D00003D0E00003D0E0000450D00004F4B1B68DE
:100D10009B0B03F007030133FB6092E04B4B9B6896
:100D200003F00F03FB60F868FFF7E6FCF86088E06B
:100D3000464B5B6803F00F03FB60F868FFF7DCFCD1
:100D4000F8607EE0414B5B681B0A03F00103FB6027
:100D5000FB6801331846FFF7CFFCF86071E07B6851
:100D60003B4A93423AD07B68394A934240D87B68E9
:100D7000384A934222D07B68364A934238D87B68FF
:100D8000354A934204D07B68344A93420BD02FE01B
:100D90002E4B9B6E1B0903F00F03FB60F868FFF7F7
:100DA000ABFCF86027E0294B9B6E1B0A03F00F0396
:100DB000FB60F868FFF7A0FCF8601CE0234B9B6E1B
:100DC0001B0B03F003041020FFF7D1FC0346234460
:100DD000FB60F868FFF790FCF8600CE01B4B9B6E23
:100DE00003F00303FB60F868FFF786FCF86002E09D
:100DF0000123FB6000BF24E07B68194A934204D0C2
:100E00007B68184A93420AD014E0104B1B6F03F022
:100E10000303FB60F868FFF76FFCF8600DE00B4B15
:100E20001B6F1B0903F00303FB60F868FFF764FC0A
:100E3000F86002E00123FB6000BF02E00123FB60D9
:100E400000BFFB6818461437BD4690BD00800C40BB
:100E500080062E0080002A008016120080261600D0
:100E600090071A0090171C0090B585B000AF78600D
:100E700039607B681B0903F00F03FB60FB68013BD3
:100E80000C2B00F2148101A252F823F0C10E0000D5
:100E9000AF100000AF100000F30E0000AF10000014
:100EA000AF100000390F0000890F0000591000003A
:100EB000AF100000AF100000AF100000190F0000CD
:100EC0003B68002B01D03B68082BFFF7FDFD7A4BF8
:100ED0001B6823F4E0323B68013B9B0376491343D4
:100EE0000B60FFF727FBB8600021B868FFF705FE2D
:100EF000DEE03B68002B02D03B68B3F5007F38682A
:100F0000FFF735FC38606C4B9B6823F00F026A4991
:100F10003B6813438B60CBE03868FFF728FC03463F
:100F2000013B3B60644B5B6823F480723B681B02AF
:100F3000614913434B60BBE03B68002B02D03B6828
:100F4000B3F5007FFFF7C0FDFFF7F4FA02463B68F8
:100F5000B2FBF3F31846FFF7A5FC3868FFF707FC70
:100F60003860554B5B6823F00F0253493B681343CD
:100F70004B60FFF7DFFAB8600021B868FFF7BDFDEE
:100F8000B868FFF78FFC93E07B684C4A934251D0DE
:100F90007B684A4A93425DD87B68494A93422ED087
:100FA0007B68474A934255D87B68464A934204D0AF
:100FB0007B68454A934211D04CE00420FFF72CFE99
:100FC0003868FFF7D4FB38603B4B9B6E23F0F00290
:100FD0003B681B01384913438B663CE00420FFF754
:100FE0001BFE3868FFF7C3FB3860334B9B6E23F45E
:100FF00070623B681B02304913438B662BE03B68F1
:101000000F2B01D93B68802B0420FFF705FE3868C1
:10101000FFF7ADFB3860284B9B6E23F44054102043
:10102000FFF7A5FB02463B689B1A1B03224A23439A
:10103000936610E00420FFF7EFFD3868FFF797FB99
:1010400038601D4B9B6E23F003021B493B68134322
:101050008B6600E000BF2BE07B681C4A934204D003
:101060007B681B4A934210D020E04020FFF7D4FD5C
:101070003868FFF77CFB38600F4B1B6F23F00302CF
:101080000D493B6813430B6710E04020FFF7C4FD98
:101090003868FFF76CFB3860074B1B6F23F030029A
:1010A0003B681B01044913430B6700BF00E000BF0E
:1010B00000BF1437BD4690BD00800C4080062E0056
:1010C00080002A00801612008026160090071A0061
:1010D00090171C0080B586B000AF78600B46FB709F
:1010E00000233B617B681B0A03F00F03013B092BC4
:1010F00044D801A252F823F0331100003911000046
:10110000211100007D1100007D1100003F11000041
:10111000491100007D1100007D11000053110000F5
:10112000184B7B61FFF706FA03461846FFF7BAFB38
:1011300012E0154B7B610FE0144B7B610CE0144B0C
:101140007B6101233B6107E0124B7B6110233B6114
:1011500002E0114B7B6100BF7B681B0B03F01F0398
:10116000FB603B69002B02D03869FFF755FDFB7827
:101170001A46F9687869FFF7CCFA00E000BF183723
:10118000BD4680BD40800C4008800C4044800C402F
:1011900058800C4060800C4078800C4090B585B041
:1011A00000AF78607B6803F47813B3F5781F00F024
:1011B0000681B3F5781F00F20D81B3F5381F00F0FA
:1011C000C580B3F5381F00F20581B3F5301F00F07C
:1011D000A680B3F5301F00F2FD80B3F5281F00F0A4
:1011E0008B80B3F5281F00F2F580B3F5181F00F0CF
:1011F000E280B3F5181F00F2ED80B3F5001F00F098
:10120000B280B3F5001F00F2E580B3F5F01F52D0B5
:10121000B3F5F01F00F2DE80B3F5E01F00F0B580FB
:10122000B3F5E01F00F2D680B3F5D01F00F0A08028
:10123000B3F5D01F00F2CE80B3F5B01F4ED0B3F59A
:10124000B01F00F2C780B3F5901F39D0B3F5901FDF
:1012500000F2C080B3F5801F00F0A980B3F5801FB5
:1012600000F2B880B3F5602F00F09D80B3F5602FD9
:1012700000F2B080B3F5802F0DD0B3F5802F00F2CF
:10128000A980002B03D0B3F5003F10D0A2E0FFF7F8
:1012900075F9F860A1E0FFF771F9F860514B9B68B0
:1012A00003F00F03FA6822FA03F3FB6095E0FFF7FF
:1012B00041F9F86091E04C48FFF738FCF8608CE0A9
:1012C0004948FFF733FCF860464B9B6E1B0903F05F
:1012D0000F03FA6822FA03F3FB607EE04248FFF74F
:1012E00025FCF8603F4B9B6E1B0A03F00F03FA6866
:1012F00022FA03F3FB6070E03B48FFF717FCF8604D
:10130000384B9B6E1B0B03F003041020FFF72FFAE2
:1013100003462344FA6822FA03F3FB605DE0324897
:10132000FFF704FCF8602F4B9B6E1B0B03F00303CD
:10133000FA6822FA03F3FB602A4BDB6F03F0070322
:101340000133FA68B2FBF3F3FB6046E02648FFF78F
:10135000EDFBF860234B9B6E03F00303FA6822FA5F
:1013600003F3FB6039E02148FFF7E0FBF86034E06D
:101370001E48FFF7DBFBF8601A4B1B6F03F00303FB
:10138000FA6822FA03F3FB6027E01848FFF7CEFB68
:10139000F860144B1B6F1B0903F00303FA6822FA71
:1013A00003F3FB6019E0FFF721FBF86015E0FFF79E
:1013B000BBFAF86011E0FFF749FCF8600DE0FFF7B9
:1013C000B9F804467868FFF775FC0346B4FBF3F3FD
:1013D000FB6002E00023FB6000BFFB681846143787
:1013E000BD4690BD00800C4002001E00030020009E
:1013F00080B485B000AF78600123FB737B6803F095
:101400000F03BB60BB68013B062B00F2A08001A26A
:1014100052F823F0311400006D140000AF140000E6
:101420004F1500004F150000F114000013150000C7
:101430004B4BDB6A03F47053B3F5005F09D0B3F58F
:10144000005F0FD8B3F5006F09D0B3F5805F03D00C
:1014500008E00223FB7308E00323FB7305E0042389
:10146000FB7302E00523FB7300BF73E03C4B9B6AF8
:1014700003F00303032B0CD0032B0DD8012B02D058
:10148000022B03D008E00323FB730FE00223FB735E
:101490000CE00623FB7309E0314B9B6A03F48033B5
:1014A000002B02D00A23FB7300E000BF52E02C4B5C
:1014B0009B6A03F00C030C2B0CD00C2B0DD8042BC7
:1014C00002D0082B03D008E00323FB730FE00223B4
:1014D000FB730CE00623FB7309E0214B9B6A03F4CA
:1014E0008013002B02D00A23FB7300E000BF31E021
:1014F0001B4B1B6803F08053002B03D0B3F1805FBC
:1015000003D027E00723FB7302E00923FB7300BF2E
:1015100020E0134BDB6A03F46033B3F5003F0FD0D8
:10152000B3F5003F0FD8B3F5004F03D0B3F5803FBC
:1015300003D008E00923FB7308E00223FB7305E0F6
:101540000323FB7302E00123FB7300BF02E00023CF
:10155000FB7300BFFB7B18461437BD4680BC704749
:1015600000800C4080B588B000AF78600B46FB70FF
:101570000323FB610323FB7600233B617B6803F0BD
:101580000F03FB60FB68013B062B00F22A8101A2DE
:1015900052F823F0B11500008716000087160000EE
:1015A000E3170000E31700004D1700007717000055
:1015B000FB78023B082B00F2168101A252F823F0BF
:1015C000E5150000EF150000F91500003B160000BE
:1015D000E7170000E7170000E7170000E717000013
:1015E000E71700000423FB610023FB7631E00323AF
:1015F000FB610123FB762CE00223FB610223FB76D7
:10160000FFF714F9034601331846FFF74BF9FFF7CC
:1016100041F80346784A934206D9784B1B68774ACB
:1016200043F06003136014E0744B1B6823F0600305
:10163000724A43F0200313600BE00123FB61032394
:10164000FB76FFF7F3F8034601331846FFF72AF954
:1016500000BFFB7E01220121184600F0D3F8FFF7FE
:1016600033FAFFF71BFB654AFB695362FEF762FF23
:10167000B860B868FFF716F90021B868FFF73DFABF
:10168000FFF712FBB4E0FB78013B092B00F2AD80C1
:1016900001A252F823F000BFC1160000C7160000D7
:1016A000D7160000EB170000EB170000E71600004C
:1016B000EB170000EB170000EB170000031700000A
:1016C00000237B6122E001220121002000F09AF832
:1016D00002237B611AE001220121012000F092F82F
:1016E00001237B6112E0FEF725FFB860B868FFF7C1
:1016F000D9F8012204214248FFF70BF803237B614C
:1017000004E000237B6101233B6100BFFB68022BE7
:101710000DD13A4B9B6A23F4803323F003037A699B
:101720001A433B691B04354913438B6260E0334B1A
:101730009B6A23F4801323F00C037A6992001A4306
:101740003B691B052D4913438B6251E0FB78072B46
:1017500002D0092B07D04BE0284B1B68274A23F007
:101760008053136006E0254B1B68244A43F08053E6
:10177000136000BF3CE0FB78092B26D0092B36DC38
:10178000022B02D0032B10D031E0012201210020D6
:1017900000F038F8194B40225A6200BF174BDB6A41
:1017A00003F48033002BF9D01AE00122012101203B
:1017B00000F028F8114B60225A6200BF0F4BDB6A21
:1017C00003F40033002BF9D00AE00C4B20225A62BC
:1017D00000BF0A4BDB6A03F40043002BF9D000BFC3
:1017E00006E000BF04E000BF02E000BF00E000BF71
:1017F0002037BD4680BD00BF0048E80100800C4096
:1018000040800C4080B586B000AF0346FB710B46AC
:10181000BB7113467B71FB79042B48D801A252F8A7
:1018200023F000BF71180000631800004718000083
:10183000391800005518000001233B610223FB60AA
:1018400001237B611DE004233B610823FB6003232C
:101850007B6116E010233B612023FB6005237B6145
:101860000FE040233B618023FB6007237B6108E09E
:101870004FF480733B614FF40073FB6009237B617D
:1018800000BFBB79002B0ED00B4A3B6913627B79FA
:10189000002B0DD000BF79690848FEF752FF0346C0
:1018A000002BF8D004E0044AFB68136200E000BF9C
:1018B0001837BD4680BD00BF00800C402C800C4016
:1018C00080B483B000AFEFF310833B603B687B6074
:1018D00072B600BF7B6818460C37BD4680BC7047A7
:1018E00080B483B000AF78607B68002B01D162B612
:1018F00000BF00BF0C37BD4680BC704780B586B0C6
:1019000000AFF860B9607A60FFF7DAFF7861FB68D2
:101910001A68BB68DB431A407968BB680B401A43FE
:10192000FB681A607869FFF7DBFF00BF1837BD4618
:1019300080BD000080B483B000AF03463960FB7106
:10194000FB79002B0DD0FB79012B0AD0FB79022B00
:1019500007D0FB79032B04D0FB79042B01D0FB7952
:10196000052B0848FA7901213B6899401346DB00B2
:1019700013449B0003441433196000BF0C37BD4669
:1019800080BC70470060004080B483B000AF034665
:101990003960FB71FB79002B0DD0FB79012B0AD04C
:1019A000FB79022B07D0FB79032B04D0FB79042BA6
:1019B00001D0FB79052B0848FA7901213B68994051
:1019C0001346DB0013449B0003441033196000BF2F
:1019D0000C37BD4680BC70470060004080B584B0C5
:1019E00000AFB9607A603B600346FB73FB7B002B62
:1019F0000DD0FB7B012B0AD0FB7B022B07D0FB7B9E
:101A0000032B04D0FB7B042B01D0FB7B052B7B68D5
:101A1000002B0DD03B68002B05D0FB7BB968184626
:101A2000FFF7B2FF04E0FB7BB9681846FFF782FFBF
:101A3000BB68072B18D8FA7B1346DB0013449B00C6
:101A4000043303F1804303F5C043BA6892000F21C9
:101A500001FA02F0BA689200796801FA02F20146CE
:101A60001846FFF74BFF19E0FA7B1346DB001344DF
:101A70009B00083303F1804303F5C043BA68083A7A
:101A800092000F2101FA02F0BA68083A92007968D0
:101A900001FA02F201461846FFF730FF7B68002B7F
:101AA0000DD13B68002B05D0FB7BB9681846FFF7CA
:101AB0006BFF04E0FB7BB9681846FFF73BFF00BFF4
:101AC0001037BD4680BD000080B485B000AF78609F
:101AD0001A4B5B69DBB29B00DBB203F03C03FB7388
:101AE000164B1B699B09DBB203F00303DAB2FB7BE5
:101AF0001343FB737B68FA7B9A70104B1B69DBB254
:101B000003F03F03DAB27B685A700C4B9B691B09E8
:101B1000DBB21B01FB73094BDB691B09DBB203F072
:101B20000F03DAB2FB7B1343FB737B68FA7B1A70FB
:101B300000BF1437BD4680BC704700BFD0FF0FE028
:101B400080B400AF034BDB6C1B0EDBB21846BD4606
:101B500080BC7047B081E00F80B400AF034BDB6CFA
:101B60001B0CDBB21846BD4680BC7047B081E00F4D
:101B700080B483B000AF78607B680D4A93420BD08D
:101B80007B680C4A934207D07B680B4A934203D090
:101B90007B680A4A934201D1012300E0002303F04D
:101BA0000103DBB218460C37BD4680BC704700BF4E
:101BB000000001400004014000080140000C014009
:101BC00080B584B000AF786039607868FFF7D0FFE7
:101BD0000023FB603B681B7883F00103DBB2002B22
:101BE00002D07B6802225A607B6800225A623B68FE
:101BF0009B781A063B68DB781B041A433B68DB7949
:101C00009B021A433B681B7A1B0213433A68527AC1
:101C100013433A685278002A01D0402200E00022A3
:101C200013433A68927A002A01D0802200E0002211
:101C300013433A68D27A002A01D0202200E0002221
:101C400013433A68127B002A01D0102200E00022E0
:101C500013433A68527B002A01D0082200E0002298
:101C60001343FB603B681B79002B02D04FF40052FA
:101C700000E000223B685B79002B02D04FF08053DC
:101C800000E0002313433A689279002A02D04FF013
:101C9000005200E000221343FA681343FB607B68A4
:101CA000FA681A603B681B78002B02D07B6801221F
:101CB0005A6000BF1037BD4680BD80B584B000AF0C
:101CC000F860B9607A60F868FFF752FF7B681B78AC
:101CD0009A067B685B781B061A437B689B781B041B
:101CE0001A437B68DB781B031A437B681B799B02D2
:101CF0001A437B685B791B0213437A68927913431A
:101D00007A68D279002A02D04FF4001200E0002253
:101D100013437A68127A002A02D04FF4801200E04E
:101D2000002213437A68527A002A01D0102200E080
:101D3000002213437A68927A002A01D0042200E03C
:101D400000221A43F968BB6803331B010B441A6075
:101D500000BF1037BD4680BD80B483B000AF0346DE
:101D6000FB7197F90730002B0BDBFB7903F01F02A7
:101D7000064997F907305B09012000FA02F241F8A1
:101D8000232000BF0C37BD4680BC704700E100E057
:101D900080B483B000AF03463960FB71FB79002B40
:101DA0000DD0FB79012B0AD0FB79022B07D0FB79F0
:101DB000032B04D0FB79042B01D0FB79052B0848B9
:101DC000FA7901213B6899401346DB0013449B00DC
:101DD00003441833196000BF0C37BD4680BC704700
:101DE0000060004080B582B000AF114B01221A6440
:101DF000FFF7A6FE0346FB713B1D1846FFF764FE86
:101E0000FB790F2B10D93B79022B0DD97B79022B53
:101E100002D13B79042B07D0064B1B6823F05003FB
:101E2000044A43F01003136000BF0837BD4680BD6D
:101E300000000C40C0800C4080B483B000AF7860DC
:101E40004FF6FF7318460C37BD4680BC704780B410
:101E500083B000AF786039607B683A689A6100BFF0
:101E60000C37BD4680BC704780B483B000AF78604B
:101E700039607B68DA683B681A437B68DA6000BFC8
:101E80000C37BD4680BC704780B483B000AF78602B
:101E90007B681B6918460C37BD4680BC704780B50F
:101EA00082B000AF786039607868FFF7C5FF7B6863
:101EB0003A68DA6100BF0837BD4680BD80B500AF23
:101EC00001210848FFF706F901230422022104201A
:101ED000FFF784FD0123042203210420FFF77EFD88
:101EE00000BF80BD00D2040080B58CB000AF0121DE
:101EF0002A48FFF7EFF807F1240300221A605A601E
:101F00009A60022387F82A30012387F8293007F1E5
:101F100024031A4602212248FFF7CFFE204B9B6A7A
:101F20001F4A43F4803343F00403936295211C4815
:101F3000FFF7B5FF07F1140300221A605A609A6098
:101F40009A8101233B750423BB7507F114031946DD
:101F50001348FFF735FE01211248FFF7BBF83B1D80
:101F600000221A605A609A609A8101233B7104230F
:101F7000BB7132210C48FFF792FF3B1D19460A48FE
:101F8000FFF71EFE0D20FFF7E7FE01210648FFF7D1
:101F90006BFF00BF3037BD4680BD00BF008204002C
:101FA000000C0140007204000008014080B582B0BE
:101FB00000AF0848FFF768FF786079680548FFF7C9
:101FC00046FF03210420FFF7E3FE00BF0837BD46AC
:101FD00080BD00BF0008014080B500AFFFF702FFE1
:101FE000012201210220FFF70DFC04211120FFF73F
:101FF000B9FA01211120FEF737FF01210748FEF74A
:1020000033FFFFF75BFFFFF76FFF0548FFF7C6F8E9
:1020100003461A46034B1A6000BFFDE740810400E7
:10202000008204003000002080B483B000AF7860EC
:1020300000BFFDE703685A004CBF43F0004323F0A4
:1020400000431844704700BF2DE9F84341B301F144
:10205000FF380546164647460024E11901EBD171C9
:10206000491005EBC1094846FFF7E4FF88450346E0
:102070004FEAC1020ED002F10800B34228440BD847
:10208000FFF7D8FF0138B04201F10104E5D348461B
:10209000BDE8F883B042FAD98C4201D04F1EDCE78C
:1020A0004FF000094846BDE8F88300BF012807D07B
:1020B000022807D0044B00280CBF184600207047A8
:1020C00002487047024870477127000079270000D6
:1020D0008127000030B5214B044683B08D1E13B319
:1020E000284601A9AFF3008088B301992A46FFF77B
:1020F000ABFF014658B3FFF79DFF4B68A064012B6F
:1021000028D0002B20DB081DFFF794FF0023236558
:102110000368E064002B0DDBFFF78CFF0346002013
:10212000236103B030BD0E4B0E491846C91AC910C1
:102130000191DBE7C3F30360FFF7B8FF034630B15B
:102140000020236103B030BD0123081DDFE7002319
:102150000920E5E700230520E2E700BF00000000BA
:10216000942F00002C300000036810B5DA070446F5
:1021700006D49B0700F1480009D500F069FC2368EC
:10218000590709D51A070ED5DB0613D510BD00F087
:1021900057FC23685907F5D404F1D00000F060FC27
:1021A00023681A07F0D404F5A87000F061FC2368D6
:1021B000DB06EBD404F5E870BDE8104000F09CBCF1
:1021C0000346006800B11844704700BF704700BF65
:1021D00070B504460E462046316CFFF77BFF05467E
:1021E00098B9D6F840C03246214601202369C4F888
:1021F00014C098470828EED0072806D12846316C2D
:10220000FFF7E4FF301D00F00FFCFFDE2DE9F04783
:102210004FF0000AADF5727D0DF10C0E01F1040CCA
:10222000C768D0F8188006461446BCE80F00AEE830
:102230000F00BCE80F00AEE80F00BCE80F00AEE8EE
:102240000F009CE80F0002AD8EE80F00C5F800A05B
:1022500021E02B6C4FF4F072294673617AA800F0EC
:102260007DFE3146504633697AAA9847889C82465B
:102270006C643346324649460120CDE90058B847E0
:10228000044630BB4FF4F07228467AA900F066FE8F
:10229000BAF1080F1AD13046296CFFF71BFF04F181
:1022A00009095FFA89FA04460028D2D0A96B33469F
:1022B000696432460120CDE900584AF01001B84760
:1022C00038B920460DF5727DBDE8F087BAF1070FE9
:1022D00005D0092420460DF5727DBDE8F087204623
:1022E000296CFFF773FF03A800F09EFBF0B54FF0D9
:1022F000FF37CB6BF9B00B6401AC01F1040C0E4657
:102300000546BCE80F000FC4BCE80F000FC4BCE8D2
:102310000F000FC49CE80F0084E80F00009706E050
:102320006A4629462B6998470828044608D128465A
:102330001099FFF7CFFE0028F2D0092079B0F0BD48
:102340006846FFF711FF062CF7D131462846FFF704
:102350003FFF00BF10B414468461DC6BC1600022F3
:102360001C64194610BCFFF751BF00BF70B543692C
:10237000C6680B64AEB90A46036904460D460146B9
:1023800002209847072805D008280ED12946204664
:10239000FFF71EFF3046296CFFF718FF281D00F0DD
:1023A00043FB0122FFF732FFFFDEFFDEC26832B1DE
:1023B000D1F83CC00022C1F840C0FFF727BFFFF7AB
:1023C00095BF00BF012910D009D883B90F2A0ED8B4
:1023D00000EB820252681846009B1A60704703396E
:1023E00001298CBF02200120704708467047022057
:1023F000704700BF002300B585B00A4603A90091CD
:102400001946FFF7DFFF039805B05DF804FB00BF36
:10241000012910D009D883B90F2A0ED8009900EBF2
:1024200082020968184651607047033901298CBF40
:10243000022001207047084670470220704700BF05
:10244000002310B584B003AC039200940A461946E9
:10245000FFF7DEFF04B010BD70B54FF0FF36D36B51
:10246000ADF50E7D13640DF15C0E02F1040C054612
:102470000C46BCE80F00AEE80F00BCE80F00AEE869
:102480000F00BCE80F00AEE80F009CE80F008EE8DC
:102490000F00169612E00C2116A86A46FFF7D0FF2F
:1024A000214616A8A84778B969460820049B16AAB1
:1024B00098470528064608D0092805D06846269979
:1024C000FFF708FE0028E6D0092616A8FFF74CFE05
:1024D00030460DF50E7D70BD2DE9F04F9346CA6C68
:1024E0000D4652F8041B89B000F0030C0692002B35
:1024F00079D002240E0C8DF81D600904F6B2059106
:1025000002EB86022F6DBCF1020F08BFAA6B17F019
:1025100001078DF81C400CD0584605A900F076FB49
:1025200018B9082009B0BDE8F08F092009B0BDE84E
:10253000F08F1668002EEFD0B14664469A4600F040
:10254000080101910297BAF1020F48D0B2F8009049
:10255000568802F10408AB6C26F001020F215846A0
:10256000D718FFF747FF874237D829F001023A44CE
:10257000824294BF00220122760006F0020309F095
:10258000010943EA0903012B47D0022B31D0002B6C
:10259000CBD114B1002A40F0CA8008F10402D2F86D
:1025A0000090B9F1000FCED1584605A9029F00F066
:1025B0002DFB0028B9D1002FB3D00F215846FFF7CB
:1025C00019FF0E2102465846FFF73AFF0F215846E1
:1025D000664AFFF735FF0720A8E70022CCE75668D8
:1025E00002F10808B7E70902032405918DF81D30B0
:1025F00088E7D8F8006026F00043002C44D122B1CF
:10260000019A002A5AD0002B58D0002E01DA08F186
:102610000408013308EB8302C1E7ECB9CAB1D8F86A
:102620000430D8F80020991C4FEAD2723FF47DAFF5
:1026300005F158010133049100F08C8008F1040089
:10264000FFF7BEFD04AB01462846AFF3008000282B
:1026500057D108F10802A2E70D215846FFF7CAFE3C
:102660002B6A8342F5D1AB6A9845F2D14046FFF719
:10267000E1FC0F2102465846FFF7E2FE2A46002100
:102680005846FFF7DDFEA6E70D2158460393FFF7F6
:10269000B1FE2A6A039B8242B7D1AA6A9045B4D19F
:1026A00000270422C5E90B724244AB626A63D8F882
:1026B0000020BA4256DB01220292AAE703940026C8
:1026C0001C4608F1040905F158070DE04846049737
:1026D000FFF776FD0022014604AB2846013609F1DA
:1026E0000409AFF30080E8B9A642EFD10D215846A6
:1026F000FFF780FE0346049A0620C5E909282B62ED
:1027000014E704460D215846FFF774FE022CDDF84D
:102710001090286224D12B4643F82C9F0620C5E94F
:10272000093803E72346D8F80060039C6DE740466C
:10273000FFF780FC08F104020446AA632846AFF3C1
:10274000008000283FF4F1AE22460F215846FFF7E3
:1027500077FE40E7894658460D21FFF74BFE286279
:102760004B46DBE7581C08EB800080E700000000C8
:102770000023FFF7B1BE00BF0123FFF7ADBE00BFCE
:102780000223FFF7A9BE00BF2DE9F0430646154618
:102790001C46C3B0042900F2CD80DFE801F0AC5143
:1027A000CB2A0300002C40F0C580102A00F2C28022
:1027B0000368DC0600F1E38020AF384600F0A6F99C
:1027C000012438460023B16B04FA03F22A4203F1D4
:1027D000010305D00A4652F804CB1146C0F800C0E8
:1027E000042B00F10400EFD13846B16300F084F906
:1027F00095E0032C40F09E8094B204EB1243102B22
:102800004FEA124500F2968003681F0700F1BF806F
:1028100020AF384600F04EF9B26B07EBC50154B15A
:102820000B4601EBC401D01AE4001D5843F8045BC9
:102830008B42FAD122443846B26300F019F96EE0B7
:10284000012C4FEA124895B26DD0052C72D108EBDD
:102850000509B9F1200F6DD8B8F10F0F6ED8B9F195
:10286000100F036800F29B80D90708D5304623F08B
:10287000010343F0020340F8483B00F0EDF820AFBD
:10288000384600F0E9F8B36B002D00F0B5806D001C
:102890006A1E002507EBC8010132043903EB8202EE
:1028A00053F8040B934241F8040FF9D1002D00F0C6
:1028B0009D804146102938BF10216F466B001039AA
:1028C000013B07EBC1010133043902EB830352F8EA
:1028D000040B9A4241F8040FF9D1012C00F08480D6
:1028E000B8F10F0FB26302D820A800F0B1F8384653
:1028F00000F0B6F813E0ECB923460124816B371DD4
:1029000090B204FA03F202421CBF51F8042B47F8BC
:1029100023200133102BF4D1A80400D4B16300208C
:1029200043B0BDE8F08308EB0503102B02D8B8F1E3
:10293000100F14D1022043B0BDE8F083002DEED07B
:1029400003685A075CD46F46384600F08DF8B26BC6
:102950006B00A8F11001013B07EBC101B3E703686D
:10296000DA0759D420AF384600F06EF8B36B002D6B
:102970008DD104333846B36300F062F8CFE723F01B
:102980001003036000F5E87000F0C0F814E723F0CE
:102990000803036000F5A87000F08CF838E7D90749
:1029A00008D523F0010343F0020340F8483B00F050
:1029B00053F83368580706D5304623F0040340F82F
:1029C000D03B00F051F820AF384600F045F868469B
:1029D00000F04AF8C8F110025200B36BA9F11005DB
:1029E000013A07EBC80157E720AFC2E7012CC0D07E
:1029F000B8F10F0FB36392D8384600F029F88EE78C
:102A00006F4623F0040340F8D03B00F02DF8384621
:102A100000F02AF8B26B9BE7304623F0030340F83E
:102A2000483B00F011F89DE700F1340191E83800CF
:102A30009C46A6464CF8045D90E8FF0FE54600BDB5
:102A400090EC210B704700BF80EC210B704700BF5A
:102A500090EC200B704700BF80EC200B704700BF4C
:102A6000D0EC200B704700BFC0EC200B704700BFBC
:102A7000F0EC0201F0EC0211F0EC0221F0EC02317A
:102A8000F0EC0241F0EC0251F0EC0261F0EC02716A
:102A9000F0EC0281F0EC0291F0EC02A1F0EC02B15A
:102AA000F0EC02C1F0EC02D1F0EC02E1F0EC02F14A
:102AB000704700BFE0EC0201E0EC0211E0EC022103
:102AC000E0EC0231E0EC0241E0EC0251E0EC0261AA
:102AD000E0EC0271E0EC0281E0EC0291E0EC02A19A
:102AE000E0EC02B1E0EC02C1E0EC02D1E0EC02E18A
:102AF000E0EC02F1704700BFB0FC0181B0FC019135
:102B0000B0FC01A1B0FC01B1704700BFA0FC018185
:102B1000A0FC0191A0FC01A1A0FC01B1704700BF85
:102B2000EC4600B52DE900502DE9FF1F4FF00003E2
:102B30002DE90C0001A9FFF7D9FBDDF840E012B048
:102B4000704700BFEC4600B52DE900502DE9FF1F8E
:102B50004FF000032DE90C0001A9FFF707FCDDF899
:102B600040E012B0704700BFEC4600B52DE90050C0
:102B70002DE9FF1F4FF000032DE90C0001A9FFF71D
:102B800015FCDDF840E012B0704700BFEC4600B520
:102B90002DE900502DE9FF1F4FF000032DE90C0037
:102BA00001ABFFF7D7FBDDF840E012B0704700BF84
:102BB000EC4600B52DE900502DE9FF1F4FF0000352
:102BC0002DE90C0001AAFFF747FCDDF840E012B048
:102BD000704700BF027A03467AB9427AA2B14FF039
:102BE000030C4168013A427208680A1D5A600202E9
:102BF00083F808C0000E1A6070470068013A1A7224
:102C000002021A60000E7047B02070472DE9F043B1
:102C10004FF0000806460D4685B02846FFF7DAFF5C
:102C2000B028044600F0DC80070647D500F0F0032A
:102C3000802B5FD0B02B74D01BD8902B00F09C80E1
:102C4000A02B12D1C3434FF47F6203F007031A4154
:102C5000010702F47F6201D542F48042002330462E
:102C60001946FFF791FD0028D7D0092005B0BDE82F
:102C7000F083C02B6ED1C62800F09480C72800F0E6
:102C8000B48000F0F803C02B00F0C980C82800F021
:102C9000D480C928E9D12846FFF79CFF05230446C4
:102CA00001213046220304F00F0402F470220C4488
:102CB0002243FFF769FD0028AFD0D6E78300DBB2DF
:102CC0001F1D00230DF10C0919460D223046CDF8C9
:102CD0000090FFF777FB039B60064CBFDF1BFF18DC
:102CE00000230D2230461946CDF800900397FFF7D8
:102CF0008FFB92E72846FFF76DFF24022043B0F5D3
:102D0000004FB2D00023040119463046A2B2FFF7AB
:102D10003BFD0028A9D114F4004F18BF4FF0010863
:102D20007BE7B12852D0B22800F0AC80B3286ED037
:102D300000F0FC03B42B98D0012300F007021A44E2
:102D40003046194642F40022FFF71EFD00283FF4EA
:102D500064AF8AE700F0F803D02B86D100F00702B9
:102D6000013205230121304642F40022FFF70CFD19
:102D700000283FF452AF78E700F00D030D2B3FF42D
:102D800074AF002303AF194600F00F0200973046DE
:102D9000FFF718FB00230D22304619460097FFF776
:102DA00037FB3AE72846FFF715FF044603232203C3
:102DB00004F00F0402F47022013430461946224315
:102DC000FFF7E2FC00283FF428AF4EE72846FFF764
:102DD00001FF431EDBB20E2B02467FF63FAF44E7F6
:102DE000B8F1000F3ED0002040E72846FFF7F2FE82
:102DF000431EDBB20E2B02463FF637AF0023042101
:102E00003046FFF7C1FC00283FF407AF2DE7284606
:102E1000FFF7E0FE012304461946304642E703234C
:102E200000F00F0201323046194642F42022FFF72B
:102E3000ABFC00283FF4F1AE17E72846FFF7CAFEC7
:102E40000246012102F0F00402F00F0210340A449D
:102E50000523304642EA0432FFF796FC00283FF48F
:102E6000DCAE02E703AC434641460E2230460094F6
:102E7000FFF7A8FA43460F22414630460094FFF779
:102E8000C7FAB0E700230DF10C090D2219463046B0
:102E9000CDF80090FFF796FA2846FFF79BFE020652
:102EA0004FF00207039C0BD500F07F00B8400444AC
:102EB00028460394FFF78EFE030607F10707F3D4B5
:102EC000002300FA07F204F501742244039230460D
:102ED0000D221946CDF80090FFF79AFA9DE600BF43
:102EE00008B5064B044613B10021AFF30080044B34
:102EF0001B6803B198472046FFF796F800000000D2
:102F00003400002003460244934200D1704703F886
:102F1000011BF9E770B500260C4D0D4C641BA41085
:102F2000A64209D100F028F800260A4D0A4C641B7D
:102F3000A410A64205D170BD55F8043B9847013650
:102F4000EEE755F8043B98470136F2E70C00002005
:102F50000C0000200C000020100000200A449142C8
:102F600000F1FF3300D1704710B511F8014B9142C9
:102F700003F8014FF9D110BDF8B500BFF8BC08BC8B
:102F80009E467047F8B500BFF8BC08BC9E46704727
:042F9000000000003D
:102F9400B8D4FF7F010000002CD5FF7FB0B0B08013
:102FA40078D5FF7F0100000028F1FF7FB0A90280DF
:102FB400B4F1FF7FB0B0A88004F2FF7F01000000ED
:102FC4000CF2FF7FB0B0AA8040F2FF7FAE71B280F6
:102FD40018F3FF7FAB3F388078F3FF7F01000000D8
:102FE40088F3FF7FB0B0AA80C0F3FF7F0100000028
:102FF40064F4FF7FAA0DB280DCF4FF7FB0AF0880D9
:103004006CF7FF7F010000007CF7FF7FAD3F02807B
:1030140014FAFF7F01000000F0FBFF7FB0AD0480D5
:08302400BCFEFF7F010000006B
:0C302C003830000000000020050000000B
:10303800006CDC0200800000809FD500290400009D
:04304800010400007F
:04000003000004C92C
:00000001FF
