:1000000000100020A5010000D1010000D101000076
:10001000D1010000D1010000D1010000D101000098
:10002000D1010000D1010000D1010000D101000088
:10003000D1010000D0010000D1010000D101000079
:10004000D1010000D1010000D1010000D101000068
:10005000D1010000D1010000D1010000D101000058
:10006000D1010000D1010000D1010000D101000048
:10007000D1010000D1010000D1010000D101000038
:10008000D1010000D1010000D10100000448054B5E
:1000900010B5834203D0044B002B00D0984710BD0D
:1000A0001800002018000020000000000648074942
:1000B000091A8B10C90FC91810B5491003D0044B89
:1000C000002B00D0984710BD180000201800002019
:1000D0000000000010B5074C2378002B09D1FFF772
:1000E000D5FF054B002B02D0044800E000BF0123E0
:1000F000237010BD18000020000000004012000016
:10010000054B10B5002B03D00449054800E000BFA3
:10011000FFF7CCFF10BDC046000000001C0000200F
:1001200040120000402292029A1A92467047C0463E
:10013000174B002B00D1134B9D46FFF7F3FF002117
:100140008B460F461348144A121A01F00BF80E4B57
:10015000002B00D098470D4B002B00D09847002073
:10016000002104000D000D48002802D00C4800E0DA
:1001700000BF00F0FFFF2000290000F047FF00F063
:10018000DDFFC04600000800000000000000000085
:100190000010002018000020400000200000000097
:1001A00000000000064880470649074A074B9B1A93
:1001B00003DD043BC858D050FBDCFFF7B9FF00005B
:1001C000F10200004C120000000000201800002086
:1001D000FEE7C04680B582B000AF00F017F803001C
:1001E0007B60084B5B680F2213407A68DA4013008B
:1001F0007B60054B7A681A607B681800BD4602B0C8
:1002000080BDC04600800C400800002080B582B050
:1002100000AF2F4BDA6AF0239B011340802292013A
:1002200093420CD080229201934214D88022120172
:1002300093420CD080225201934204D00BE0254B14
:100240001B687B603EE080231B027B603AE0224B10
:100250001B687B6036E01E4BDA68E023DB0013404E
:100260008022D20093421AD08022D200934225D815
:10027000C0229200934215D0C022920093421DD812
:1002800080229200934210D080229200934215D88F
:10029000002B10D080225200934209D00EE00F4B69
:1002A0007B600EE00E4B7B600BE00E4B7B6008E04A
:1002B0000D4B7B6005E00D4B7B6002E000237B6013
:1002C000C046C0467B681800BD4602B080BDC0462F
:1002D00000800C400400002000000020406F40011E
:1002E000809FD500C0D8A70040B56400804F1200A1
:1002F00080B500AF024B034A9A60C046BD4680BD40
:1003000000ED00E00000000080B500AF80231B027C
:100310001800BD4680BD80B500AFFA239B001800D1
:10032000BD4680BD80B500AF024B1B681800BD46BE
:1003300080BDC0460400002080B586B000AFF860E4
:10034000B9607A60FB681B687B610122BB689A40D8
:100350001300DB431A007B691A407B6801211940B6
:10036000BB6899400B001A43FB681A60C046BD4643
:1003700006B080BD80B582B000AF786001227B6896
:100380009A4013001800BD4602B080BD80B500AF92
:10039000034BDB6C1B0EDBB21800BD4680BDC046B4
:1003A000B081E00F80B582B000AF254B5A69E023E1
:1003B000DB001340E022D200934236D0E022D2008C
:1003C000934235D8C0229200934212D0C0229200AC
:1003D00093422DD880229200934215D08022920021
:1003E000934225D8002B1DD080225200934216D074
:1003F0001EE0FFF7CBFF0300122B02D9114B7B60ED
:1004000019E0114B7B6016E0FFF7C0FF0300122BD1
:1004100002D90E4B7B600EE00D4B7B600BE00D4B69
:100420007B6008E00C4B7B6005E00C4B7B6002E0DE
:1004300000237B60C0467B681800BD4602B080BDCB
:1004400000800C40804F120040420F0040B5640015
:10045000C0CF6A00C0D8A700809FD500406F400180
:1004600090B583B000AFFC1C0E4B180000F024FACE
:1004700003002370FB1C1B78072B06D0092B09D126
:10048000FFF7C4FE03007B6007E0FFF78BFF03006C
:100490007B6002E000237B60C0467B681800BD469D
:1004A00003B090BD06000E0080B584B000AF786048
:1004B0000023BB60C0467B68180000F0FDF9030014
:1004C000FB607B682D4A934204D07B682C4A9342A0
:1004D00006D00CE02B4B9B6A03221340FB6006E026
:1004E000284B9B6A9B0803221340FB60C046FB68B5
:1004F000032B18D0FB68032B36D8FB68022B0DD0DA
:10050000FB68022B30D8FB68002B12D0FB68012B54
:100510002AD1FFF7F9FE0300BB6029E0FFF702FFD5
:100520000300BB6024E0FFF755FE03005B08BB60DF
:100530001EE00023BB607B68104A934203D07B68B7
:100540000F4A934213D10F4B9A6A7B680B498B4237
:1005500001D1102300E01423DA40131E07D0FFF767
:10056000DAFE0300BB6002E00023BB6000E0C0468F
:10057000BB681800BD4604B080BDC04602001E0026
:100580000300200000800C4080B582B000AF78608E
:10059000074B5B6D0122134006D1C046044B1B6D17
:1005A0007A681340FAD100E0C046BD4602B080BD73
:1005B00000800C4080B584B000AF78607B681B0978
:1005C0000F221340BB60BB68043B092B52D89A0032
:1005D0002C4BD3181B689F462B4B9B680F22134054
:1005E000FB60FB681800FFF7C5FE0300FB6044E0FA
:1005F000254B5B680F221340FB60FB681800FFF778
:10060000B9FE0300FB6038E01F4B5B681B0A012248
:100610001340FB60FB6801331800FFF7ABFE0300DB
:10062000FB602AE07B68194A93420BD1164B9B6E04
:100630000F221340FB60FB681800FFF79BFE0300CE
:10064000FB6002E00123FB60C04616E07B68104AB5
:1006500093420BD10C4B1B6F03221340FB60FB68D2
:100660001800FFF787FE0300FB6002E00123FB6038
:10067000C04602E00123FB60C046FB681800BD468F
:1006800004B080BDD811000000800C40800612002C
:1006900090071A0080B586B000AF78600A00FB1C96
:1006A0001A7000233B617B681B0A0F2213400A2B40
:1006B0002ED89A00184BD3181B689F46174B7B61A6
:1006C00012E0174B7B610FE0164B7B610CE0164B81
:1006D0007B6101233B6107E0144B7B6110233B618D
:1006E00002E0134B7B61C0467B681B0B1F2213404B
:1006F000FB603B69002B03D03B691800FFF744FF08
:10070000FB1C1A78F9687B691800FFF715FE00E0FA
:10071000C046BD4606B080BD0012000040800C40BF
:1007200008800C4044800C4058800C4060800C4095
:1007300078800C4090B585B000AF78607A68F82377
:100740009B031340F8229203934200D196E0F822D3
:100750009203934200D9A0E080229203934200D1F9
:100760006CE080229203934200D996E0F02252037B
:1007700093424DD0F0225203934200D98DE0D02213
:100780005203934261D0D0225203934200D984E0B5
:1007900090225203934242D090225203934200D9B6
:1007A0007BE080225203934263D080225203934223
:1007B00000D972E0E0221203934255D0E0221203E6
:1007C00093426AD88022D20293420FD08022D20272
:1007D000934262D8002B04D080229202934212D01E
:1007E0005BE0FFF713FD0300FB6059E0FFF70EFD30
:1007F0000300FB602D4B9B680F221340FA68DA4020
:100800001300FB604CE0FFF7E5FC0300FB6047E0F2
:10081000274B1800FFF748FE0300FB6040E0244B25
:100820001800FFF741FE0300FB60204B9B6E0F2278
:100830001340FA68DA401300FB6031E01D4B1800EA
:10084000FFF732FE0300FB602AE01A4B1800FFF7A7
:100850002BFE0300FB60154B1B6F03221340FA684D
:10086000DA401300FB601BE0FFF7FAFD0300FB60BA
:1008700016E0FFF797FD0300FB6011E0FFF7AAFC0D
:1008800004007B681800FFF795FE030019002000A4
:1008900000F0C8FB0300FB6002E00023FB60C046E1
:1008A000FB681800BD4605B090BDC04600800C40F6
:1008B00002001E000300200080B584B000AF786005
:1008C0000F23FB1801221A707B680F221340BB60B4
:1008D000BB68062B00D18DE0BB68062B00D98EE0EB
:1008E000BB68032B00D15DE0BB68032B00D986E019
:1008F000BB68012B03D0BB68022B2BD07FE0464B9B
:10090000DA6AF0239B0113408022920193420CD0BB
:1009100080229201934217D88022120193420ED076
:1009200080225201934205D00EE00F23FB180222D1
:100930001A700EE00F23FB1803221A7009E00F2330
:10094000FB1804221A7004E00F23FB1805221A700A
:10095000C04659E0304B9B6A03221340032B0FD053
:1009600013D8012B02D0022B05D00EE00F23FB1869
:1009700003221A7015E00F23FB1802221A7010E0F0
:100980000F23FB1806221A700BE0234B9A6A802370
:100990005B02134004D00F23FB180A221A7000E0F8
:1009A000C04631E01C4B9B6A0C2213400C2B0FD02D
:1009B00013D8042B02D0082B05D00EE00F23FB1810
:1009C00003221A7015E00F23FB1802221A7010E0A0
:1009D0000F23FB1806221A700BE00F4B9A6A802334
:1009E0005B03134004D00F23FB180A221A7000E0A7
:1009F000C04609E00F23FB1807221A7004E00F23FA
:100A0000FB1800221A70C0460F23FB181B78180031
:100A1000BD4604B080BDC04600800C4080B582B0A9
:100A200000AF02003960FB1D1A70FB1D1B78002B04
:100A30000DD0FB1D1B78012B09D0FB1D1B78022B51
:100A400005D0FB1D1B78032B01D0FB1D1B78012259
:100A50003B689A4010000749FB1D1A781300DB0021
:100A60009B189B00CB1814331860C046BD4602B0DB
:100A700080BDC0460060004080B582B000AF02007B
:100A80003960FB1D1A70FB1D1B78002B0DD0FB1D60
:100A90001B78012B09D0FB1D1B78022B05D0FB1DF9
:100AA0001B78032B01D0FB1D1B7801223B689A4069
:100AB00010000749FB1D1A781300DB009B189B00F0
:100AC000CB1810331860C046BD4602B080BDC0468A
:100AD0000060004090B585B000AFB96011007B6048
:100AE0000F243B19021C1A700E23FB180A1C1A70E3
:100AF0002200BB181B78002B0DD0BB181B78012BD4
:100B000009D0BB181B78022B05D0BB181B78032B10
:100B100001D0BB181B780E23FB181B78002B13D0B9
:100B20007B68002B08D0BA680F23FB181B781100D4
:100B30001800FFF7A1FF07E0BA680F23FB181B7826
:100B400011001800FFF76AFFBB68072B25D835494D
:100B50000F243B191A781300DB009B189B00CB185D
:100B600004331B68BA6892000F2191400A00D243F7
:100B700013400E22BA181178BA68920091400A0008
:100B8000110028483A19127819431300DB009B180A
:100B90009B00C3180433196026E022490F243B1937
:100BA0001A781300DB009B189B00CB1808331B68D6
:100BB000BA68083A92000F2191400A00D2431340CC
:100BC0000E22BA181178BA68083A920091400A00C9
:100BD000110014483A19127819431300DB009B18CE
:100BE0009B00C318083319600E23FB181B78002BD9
:100BF00013D17B68002B08D0BA680F23FB181B7831
:100C000011001800FFF738FF07E0BA680F23FB1840
:100C10001B7811001800FFF701FFC046BD4605B064
:100C200090BDC0460060004080B582B000AF7860E3
:100C300039607B683A681A63C046BD4602B080BD21
:100C400080B586B000AFF860B9607A60FB681B6859
:100C50007B610122BB689A401300DB431A007B6969
:100C60001A407B6801211940BB6899400B001A4368
:100C7000FB681A60C046BD4606B080BD80B584B032
:100C800000AFF860B9607A60FB681B68BA68D2434D
:100C90001A407B681A43FB681A60C046BD4604B020
:100CA00080BD000080B588B000AFF860B9607A60A0
:100CB0001A00FB1C1A707B68002B00D17AE0FB1C29
:100CC000FA1C127803210A401A70FB681B683C4A20
:100CD0001A40FB681A60F868FB1C1B781A02C023D4
:100CE0009B001900FFF7CAFFBB68002B09D1FB6806
:100CF000344A934205D1344B1800FFF71BFD030023
:100D0000BB6001235B42BB61FB681B68022213408E
:100D100012D0FB1C1B78022B0BD020DC002B02D046
:100D2000012B03D01BE0294BBB611BE0284BBB61AF
:100D300018E0284BBB6115E0FB1C1B78022B0BD085
:100D40000FDC002B02D0012B03D00AE0224BBB6149
:100D500008E0224BBB6105E0214BBB6102E0C046CD
:100D600000E0C046FB1C1B781E4AD35C7B617B699C
:100D70007A6853433B613B69002B1DD07B689B0025
:100D8000BA68D21A3B69D318013B3969180000F0E0
:100D900049F90300013BFB61FB681B680222134019
:100DA00004D0FB69002B01D10123FB61FA69FB68C8
:100DB0001A6102E0C04600E0C046BD4608B080BDF2
:100DC000FFFCFFFF00A0004000B2040040164000FE
:100DD000C0D8A7008050740180841E004054890050
:100DE000002D31012C12000080B582B000AF786078
:100DF0000A00FB1C1A707868FB1C1B781A00002183
:100E0000FFF71EFFC046BD4602B080BD80B582B070
:100E100000AF786039607B6800225A63114A7B68B2
:100E200011001800FFF700FF78683B685B7801222B
:100E30005340DBB21A000121FFF702FF3B685968FB
:100E40003B689A683B681B7B7868FFF72BFF3B6821
:100E50001A787B6811001800FFF7C6FFC046BD4630
:100E600002B080BDFFFF010080B582B000AF02007C
:100E70003960FB1D1A70FB1D1B78002B0DD0FB1D6C
:100E80001B78012B09D0FB1D1B78022B05D0FB1D05
:100E90001B78032B01D0FB1D1B7801223B689A4075
:100EA00010000749FB1D1A781300DB009B189B00FC
:100EB000CB1818331860C046BD4602B080BDC0468E
:100EC0000060004080B500AF024B01221A64C046AA
:100ED000BD4680BD00000C4080B500AF064B01212F
:100EE0001800FFF7D7FB012304220B210220FFF794
:100EF000F1FDC046BD4680BD0072040090B585B0CE
:100F000000AF1E4B01211800FFF7C4FB3B001C4A39
:100F100013CA13C312681A603B0000225A700123DF
:100F20000B2206210320FFF7D5FD01230B22072109
:100F30000320FFF7CFFD134B03229A63114B9B6BEA
:100F4000114A1A400F4B802149000A439A633B0023
:100F50000C4A19001000FFF759FF0C4B00221A70C1
:100F6000084BE2225A61074B1A68064B16210A43C6
:100F70001A60C046BD4605B090BDC04600B2040030
:100F80003012000000A00040FFF8FFFF39000020F1
:100F900080B500AF194BDA6880235B00134016D090
:100FA000174B1B78DBB2002B05D0144BDB69144BBD
:100FB00000221A700BE0114BD969124B1B785A1C96
:100FC000D0B2104A10701A00C9B20F4B99540B4B93
:100FD0009A6A80235B0213400DD0084B8022520294
:100FE0001A63084B00221A70054B01221A700B215C
:100FF0000220FFF739FFC046BD4680BD00A000407B
:101000000C000020390000203400002080B500AF23
:10101000FFF758FFFFF760FFFFF770FFFFF7B8FF1C
:10102000FCE70000002243088B4274D303098B4283
:101030005FD3030A8B4244D3030B8B4228D3030CA8
:101040008B420DD3FF22090212BA030C8B4202D34A
:101050001212090265D0030B8B4219D300E0090A72
:10106000C30B8B4201D3CB03C01A5241830B8B427B
:1010700001D38B03C01A5241430B8B4201D34B0364
:10108000C01A5241030B8B4201D30B03C01A5241C9
:10109000C30A8B4201D3CB02C01A5241830A8B424E
:1010A00001D38B02C01A5241430A8B4201D34B0237
:1010B000C01A5241030A8B4201D30B02C01A52419B
:1010C000CDD2C3098B4201D3CB01C01A524183094F
:1010D0008B4201D38B01C01A524143098B4201D389
:1010E0004B01C01A524103098B4201D30B01C01AB4
:1010F0005241C3088B4201D3CB00C01A524183082E
:101100008B4201D38B00C01A524143088B4201D35A
:101110004B00C01A5241411A00D2014652411046BA
:101120007047FFE701B5002000F006F802BDC04699
:101130000029F7D076E770477047C046074B10B5D7
:101140000400002B02D0002100E000BF044B1B680C
:10115000002B00D09847200000F030F8000000007D
:101160003C00002003008218934200D170471970A0
:101170000133F9E770B500260C4C0D4D641BA4102B
:10118000A64209D1002600F01BF80A4C0A4D641B48
:10119000A410A64205D170BDB300EB5898470136A4
:1011A000EEE7B300EB5898470136F2E71000002055
:1011B000100000201400002010000020FEE7C046B0
:1011C000F8B5C046F8BC08BC9E467047F8B5C046A6
:1011D000F8BC08BC9E467047D805000074060000A5
:1011E00074060000F0050000240600004C06000014
:1011F0007406000074060000740600000806000073
:1012000010070000C2060000C8060000BC0600006F
:101210001007000010070000CE060000D8060000EE
:101220001007000010070000E2060000080911087E
:101230000101000000000000486B010000000000F8
:0412400000000000AA
:08124400E0EEFF7F0100000055
:10124C0000366E0100800000809FD5000100000078
:08125C0001010000D5000000B3
:04000003000001A553
:00000001FF
